{"abi":[{"type":"constructor","inputs":[{"name":"owner_","type":"address","internalType":"address"},{"name":"roundId_","type":"uint256","internalType":"uint256"},{"name":"seasonId_","type":"uint256","internalType":"uint256"},{"name":"entryFee_","type":"uint256","internalType":"uint256"},{"name":"maxPlayers_","type":"uint256","internalType":"uint256"},{"name":"rumbleXPass_","type":"address","internalType":"address"},{"name":"seasonVault_","type":"address","internalType":"address"},{"name":"roundOperator_","type":"address","internalType":"address"},{"name":"settlementOperator_","type":"address","internalType":"address"}],"stateMutability":"nonpayable"},{"type":"function","name":"BPS_DENOMINATOR","inputs":[],"outputs":[{"name":"","type":"uint256","internalType":"uint256"}],"stateMutability":"view"},{"type":"function","name":"CLAIM_OPERATOR_ROLE","inputs":[],"outputs":[{"name":"","type":"bytes32","internalType":"bytes32"}],"stateMutability":"view"},{"type":"function","name":"DEFAULT_ADMIN_ROLE","inputs":[],"outputs":[{"name":"","type":"bytes32","internalType":"bytes32"}],"stateMutability":"view"},{"type":"function","name":"MAX_PLAYERS_CAP","inputs":[],"outputs":[{"name":"","type":"uint256","internalType":"uint256"}],"stateMutability":"view"},{"type":"function","name":"OWNER_ROLE","inputs":[],"outputs":[{"name":"","type":"bytes32","internalType":"bytes32"}],"stateMutability":"view"},{"type":"function","name":"PROTOCOL_FEE_BPS","inputs":[],"outputs":[{"name":"","type":"uint256","internalType":"uint256"}],"stateMutability":"view"},{"type":"function","name":"ROUND_OPERATOR_ROLE","inputs":[],"outputs":[{"name":"","type":"bytes32","internalType":"bytes32"}],"stateMutability":"view"},{"type":"function","name":"SEASON_FEE_BPS","inputs":[],"outputs":[{"name":"","type":"uint256","internalType":"uint256"}],"stateMutability":"view"},{"type":"function","name":"SEASON_OPERATOR_ROLE","inputs":[],"outputs":[{"name":"","type":"bytes32","internalType":"bytes32"}],"stateMutability":"view"},{"type":"function","name":"SETTLEMENT_OPERATOR_ROLE","inputs":[],"outputs":[{"name":"","type":"bytes32","internalType":"bytes32"}],"stateMutability":"view"},{"type":"function","name":"claimVault","inputs":[],"outputs":[{"name":"","type":"address","internalType":"address"}],"stateMutability":"view"},{"type":"function","name":"configureSettlementTargets","inputs":[{"name":"claimVault_","type":"address","internalType":"address"},{"name":"protocolTreasury_","type":"address","internalType":"address"}],"outputs":[],"stateMutability":"nonpayable"},{"type":"function","name":"entryFee","inputs":[],"outputs":[{"name":"","type":"uint256","internalType":"uint256"}],"stateMutability":"view"},{"type":"function","name":"getRoleAdmin","inputs":[{"name":"role","type":"bytes32","internalType":"bytes32"}],"outputs":[{"name":"","type":"bytes32","internalType":"bytes32"}],"stateMutability":"view"},{"type":"function","name":"grantProtocolRole","inputs":[{"name":"role","type":"bytes32","internalType":"bytes32"},{"name":"account","type":"address","internalType":"address"}],"outputs":[],"stateMutability":"nonpayable"},{"type":"function","name":"grantRole","inputs":[{"name":"role","type":"bytes32","internalType":"bytes32"},{"name":"account","type":"address","internalType":"address"}],"outputs":[],"stateMutability":"nonpayable"},{"type":"function","name":"hasRole","inputs":[{"name":"role","type":"bytes32","internalType":"bytes32"},{"name":"account","type":"address","internalType":"address"}],"outputs":[{"name":"","type":"bool","internalType":"bool"}],"stateMutability":"view"},{"type":"function","name":"join","inputs":[],"outputs":[],"stateMutability":"payable"},{"type":"function","name":"maxPlayers","inputs":[],"outputs":[{"name":"","type":"uint256","internalType":"uint256"}],"stateMutability":"view"},{"type":"function","name":"participantCount","inputs":[],"outputs":[{"name":"","type":"uint256","internalType":"uint256"}],"stateMutability":"view"},{"type":"function","name":"participantResults","inputs":[{"name":"player","type":"address","internalType":"address"}],"outputs":[{"name":"isProcessed","type":"bool","internalType":"bool"},{"name":"isSurvivor","type":"bool","internalType":"bool"},{"name":"kills","type":"uint256","internalType":"uint256"},{"name":"finalHolding","type":"uint256","internalType":"uint256"},{"name":"payoutAmount","type":"uint256","internalType":"uint256"},{"name":"payoutSent","type":"bool","internalType":"bool"},{"name":"fallbackRecorded","type":"bool","internalType":"bool"}],"stateMutability":"view"},{"type":"function","name":"participants","inputs":[],"outputs":[{"name":"","type":"address[]","internalType":"address[]"}],"stateMutability":"view"},{"type":"function","name":"participationByPlayer","inputs":[{"name":"player","type":"address","internalType":"address"}],"outputs":[{"name":"joined","type":"bool","internalType":"bool"},{"name":"paidAmount","type":"uint256","internalType":"uint256"}],"stateMutability":"view"},{"type":"function","name":"pauseProtocol","inputs":[],"outputs":[],"stateMutability":"nonpayable"},{"type":"function","name":"paused","inputs":[],"outputs":[{"name":"","type":"bool","internalType":"bool"}],"stateMutability":"view"},{"type":"function","name":"playerPoolAmount","inputs":[],"outputs":[{"name":"","type":"uint256","internalType":"uint256"}],"stateMutability":"view"},{"type":"function","name":"protocolFeeAmount","inputs":[],"outputs":[{"name":"","type":"uint256","internalType":"uint256"}],"stateMutability":"view"},{"type":"function","name":"protocolTreasury","inputs":[],"outputs":[{"name":"","type":"address","internalType":"address"}],"stateMutability":"view"},{"type":"function","name":"renounceRole","inputs":[{"name":"role","type":"bytes32","internalType":"bytes32"},{"name":"callerConfirmation","type":"address","internalType":"address"}],"outputs":[],"stateMutability":"nonpayable"},{"type":"function","name":"revokeProtocolRole","inputs":[{"name":"role","type":"bytes32","internalType":"bytes32"},{"name":"account","type":"address","internalType":"address"}],"outputs":[],"stateMutability":"nonpayable"},{"type":"function","name":"revokeRole","inputs":[{"name":"role","type":"bytes32","internalType":"bytes32"},{"name":"account","type":"address","internalType":"address"}],"outputs":[],"stateMutability":"nonpayable"},{"type":"function","name":"roundId","inputs":[],"outputs":[{"name":"","type":"uint256","internalType":"uint256"}],"stateMutability":"view"},{"type":"function","name":"rumbleXPass","inputs":[],"outputs":[{"name":"","type":"address","internalType":"address"}],"stateMutability":"view"},{"type":"function","name":"seasonFeeAmount","inputs":[],"outputs":[{"name":"","type":"uint256","internalType":"uint256"}],"stateMutability":"view"},{"type":"function","name":"seasonId","inputs":[],"outputs":[{"name":"","type":"uint256","internalType":"uint256"}],"stateMutability":"view"},{"type":"function","name":"seasonVault","inputs":[],"outputs":[{"name":"","type":"address","internalType":"address"}],"stateMutability":"view"},{"type":"function","name":"setRoundState","inputs":[{"name":"newState","type":"uint8","internalType":"enum RoundRoom.RoundState"}],"outputs":[],"stateMutability":"nonpayable"},{"type":"function","name":"settleRoundBatch","inputs":[{"name":"resultHash","type":"bytes32","internalType":"bytes32"},{"name":"participantBatch","type":"tuple[]","internalType":"struct RoundRoom.ParticipantSettlement[]","components":[{"name":"player","type":"address","internalType":"address"},{"name":"isSurvivor","type":"bool","internalType":"bool"},{"name":"kills","type":"uint256","internalType":"uint256"},{"name":"finalHolding","type":"uint256","internalType":"uint256"},{"name":"payoutAmount","type":"uint256","internalType":"uint256"}]}],"outputs":[],"stateMutability":"nonpayable"},{"type":"function","name":"settlementFinalized","inputs":[],"outputs":[{"name":"","type":"bool","internalType":"bool"}],"stateMutability":"view"},{"type":"function","name":"settlementResultHash","inputs":[],"outputs":[{"name":"","type":"bytes32","internalType":"bytes32"}],"stateMutability":"view"},{"type":"function","name":"settlementVersion","inputs":[],"outputs":[{"name":"","type":"uint256","internalType":"uint256"}],"stateMutability":"view"},{"type":"function","name":"state","inputs":[],"outputs":[{"name":"","type":"uint8","internalType":"enum RoundRoom.RoundState"}],"stateMutability":"view"},{"type":"function","name":"supportsInterface","inputs":[{"name":"interfaceId","type":"bytes4","internalType":"bytes4"}],"outputs":[{"name":"","type":"bool","internalType":"bool"}],"stateMutability":"view"},{"type":"function","name":"totalEntryCollected","inputs":[],"outputs":[{"name":"","type":"uint256","internalType":"uint256"}],"stateMutability":"view"},{"type":"function","name":"totalFallbackClaimable","inputs":[],"outputs":[{"name":"","type":"uint256","internalType":"uint256"}],"stateMutability":"view"},{"type":"function","name":"totalPaidOut","inputs":[],"outputs":[{"name":"","type":"uint256","internalType":"uint256"}],"stateMutability":"view"},{"type":"function","name":"totalParticipantsExpected","inputs":[],"outputs":[{"name":"","type":"uint256","internalType":"uint256"}],"stateMutability":"view"},{"type":"function","name":"totalParticipantsProcessed","inputs":[],"outputs":[{"name":"","type":"uint256","internalType":"uint256"}],"stateMutability":"view"},{"type":"function","name":"totalPayoutAssigned","inputs":[],"outputs":[{"name":"","type":"uint256","internalType":"uint256"}],"stateMutability":"view"},{"type":"function","name":"totalsCommitted","inputs":[],"outputs":[{"name":"","type":"bool","internalType":"bool"}],"stateMutability":"view"},{"type":"function","name":"unpauseProtocol","inputs":[],"outputs":[],"stateMutability":"nonpayable"},{"type":"event","name":"FallbackRecorded","inputs":[{"name":"roundId","type":"uint256","indexed":true,"internalType":"uint256"},{"name":"player","type":"address","indexed":true,"internalType":"address"},{"name":"amount","type":"uint256","indexed":false,"internalType":"uint256"}],"anonymous":false},{"type":"event","name":"Paused","inputs":[{"name":"account","type":"address","indexed":false,"internalType":"address"}],"anonymous":false},{"type":"event","name":"PayoutSent","inputs":[{"name":"roundId","type":"uint256","indexed":true,"internalType":"uint256"},{"name":"player","type":"address","indexed":true,"internalType":"address"},{"name":"amount","type":"uint256","indexed":false,"internalType":"uint256"}],"anonymous":false},{"type":"event","name":"PlayerJoined","inputs":[{"name":"roundId","type":"uint256","indexed":true,"internalType":"uint256"},{"name":"player","type":"address","indexed":true,"internalType":"address"},{"name":"amount","type":"uint256","indexed":false,"internalType":"uint256"}],"anonymous":false},{"type":"event","name":"ProtocolRoleGranted","inputs":[{"name":"role","type":"bytes32","indexed":true,"internalType":"bytes32"},{"name":"account","type":"address","indexed":true,"internalType":"address"},{"name":"sender","type":"address","indexed":true,"internalType":"address"}],"anonymous":false},{"type":"event","name":"ProtocolRoleRevoked","inputs":[{"name":"role","type":"bytes32","indexed":true,"internalType":"bytes32"},{"name":"account","type":"address","indexed":true,"internalType":"address"},{"name":"sender","type":"address","indexed":true,"internalType":"address"}],"anonymous":false},{"type":"event","name":"RoleAdminChanged","inputs":[{"name":"role","type":"bytes32","indexed":true,"internalType":"bytes32"},{"name":"previousAdminRole","type":"bytes32","indexed":true,"internalType":"bytes32"},{"name":"newAdminRole","type":"bytes32","indexed":true,"internalType":"bytes32"}],"anonymous":false},{"type":"event","name":"RoleGranted","inputs":[{"name":"role","type":"bytes32","indexed":true,"internalType":"bytes32"},{"name":"account","type":"address","indexed":true,"internalType":"address"},{"name":"sender","type":"address","indexed":true,"internalType":"address"}],"anonymous":false},{"type":"event","name":"RoleRevoked","inputs":[{"name":"role","type":"bytes32","indexed":true,"internalType":"bytes32"},{"name":"account","type":"address","indexed":true,"internalType":"address"},{"name":"sender","type":"address","indexed":true,"internalType":"address"}],"anonymous":false},{"type":"event","name":"RoundSettled","inputs":[{"name":"roundId","type":"uint256","indexed":true,"internalType":"uint256"},{"name":"resultHash","type":"bytes32","indexed":true,"internalType":"bytes32"},{"name":"protocolFeeAmount","type":"uint256","indexed":false,"internalType":"uint256"},{"name":"seasonFeeAmount","type":"uint256","indexed":false,"internalType":"uint256"},{"name":"playerPoolAmount","type":"uint256","indexed":false,"internalType":"uint256"},{"name":"totalPaidOut","type":"uint256","indexed":false,"internalType":"uint256"},{"name":"totalFallbackClaimable","type":"uint256","indexed":false,"internalType":"uint256"}],"anonymous":false},{"type":"event","name":"RoundStateUpdated","inputs":[{"name":"roundId","type":"uint256","indexed":true,"internalType":"uint256"},{"name":"state","type":"uint8","indexed":false,"internalType":"enum RoundRoom.RoundState"}],"anonymous":false},{"type":"event","name":"SettlementTargetsUpdated","inputs":[{"name":"claimVault","type":"address","indexed":true,"internalType":"address"},{"name":"protocolTreasury","type":"address","indexed":true,"internalType":"address"}],"anonymous":false},{"type":"event","name":"Unpaused","inputs":[{"name":"account","type":"address","indexed":false,"internalType":"address"}],"anonymous":false},{"type":"error","name":"AccessControlBadConfirmation","inputs":[]},{"type":"error","name":"AccessControlUnauthorizedAccount","inputs":[{"name":"account","type":"address","internalType":"address"},{"name":"neededRole","type":"bytes32","internalType":"bytes32"}]},{"type":"error","name":"AlreadyJoined","inputs":[]},{"type":"error","name":"ClaimVaultNotConfigured","inputs":[]},{"type":"error","name":"DuplicateParticipantSettlement","inputs":[]},{"type":"error","name":"EliminatedNonzeroPayout","inputs":[]},{"type":"error","name":"EmptySettlementBatch","inputs":[]},{"type":"error","name":"EnforcedPause","inputs":[]},{"type":"error","name":"ExpectedPause","inputs":[]},{"type":"error","name":"FallbackConservationMismatch","inputs":[]},{"type":"error","name":"IncompleteSettlementBatches","inputs":[]},{"type":"error","name":"IncorrectEntryAmount","inputs":[]},{"type":"error","name":"InvalidConfig","inputs":[]},{"type":"error","name":"MaxPlayersReached","inputs":[]},{"type":"error","name":"MissingPass","inputs":[]},{"type":"error","name":"NonParticipantInSettlement","inputs":[]},{"type":"error","name":"NonSurvivorPositivePayout","inputs":[]},{"type":"error","name":"PayoutSumMismatch","inputs":[]},{"type":"error","name":"ProcessedParticipantsOverflow","inputs":[]},{"type":"error","name":"ProtocolFeeTransferFailed","inputs":[]},{"type":"error","name":"ProtocolTreasuryNotConfigured","inputs":[]},{"type":"error","name":"ReentrancyGuardReentrantCall","inputs":[]},{"type":"error","name":"ResultHashMismatch","inputs":[]},{"type":"error","name":"RoundNotOpen","inputs":[]},{"type":"error","name":"SettlementAlreadyFinalized","inputs":[]},{"type":"error","name":"SettlementNotPending","inputs":[]},{"type":"error","name":"SettlementStateImmutable","inputs":[]},{"type":"error","name":"ZeroAddress","inputs":[]}],"bytecode":{"object":"0x61014060405234801562000011575f80fd5b5060405162003b4738038062003b47833981810160405281019062000037919062000610565b885f73ffffffffffffffffffffffffffffffffffffffff168173ffffffffffffffffffffffffffffffffffffffff16036200009e576040517fd92e233d00000000000000000000000000000000000000000000000000000000815260040160405180910390fd5b620000b25f801b82620003dc60201b60201c565b50620000e57fb19546dff01e856fb3f010c267a7b1c60363cf8a4664e21cc89c26224620214e82620003dc60201b60201c565b5050600162000109620000fd620004d760201b60201c565b6200050060201b60201c565b5f01819055505f8814806200011d57505f87145b806200012857505f86145b1562000160576040517f35be3ac800000000000000000000000000000000000000000000000000000000815260040160405180910390fd5b5f73ffffffffffffffffffffffffffffffffffffffff168473ffffffffffffffffffffffffffffffffffffffff161480620001c657505f73ffffffffffffffffffffffffffffffffffffffff168373ffffffffffffffffffffffffffffffffffffffff16145b15620001fe576040517f35be3ac800000000000000000000000000000000000000000000000000000000815260040160405180910390fd5b5f8514806200020e575061014d85115b1562000246576040517f35be3ac800000000000000000000000000000000000000000000000000000000815260040160405180910390fd5b87608081815250508660a081815250508560c081815250508460e081815250508373ffffffffffffffffffffffffffffffffffffffff166101008173ffffffffffffffffffffffffffffffffffffffff16815250508273ffffffffffffffffffffffffffffffffffffffff166101208173ffffffffffffffffffffffffffffffffffffffff16815250505f600260146101000a81548160ff02191690836006811115620002f857620002f7620006e9565b5b02179055505f73ffffffffffffffffffffffffffffffffffffffff168273ffffffffffffffffffffffffffffffffffffffff16146200036557620003637f082924f4e2f064ae6e08775a33c5bf0ed13092f3142e2c4280c29cce98ed69b783620003dc60201b60201c565b505b5f73ffffffffffffffffffffffffffffffffffffffff168173ffffffffffffffffffffffffffffffffffffffff1614620003cd57620003cb7fe5f3d29fbf8cd4b379b5a8ec1437261892bf01e7d129556690f84cf7a11d2c4d82620003dc60201b60201c565b505b50505050505050505062000716565b5f620003ef83836200050960201b60201c565b620004cd5760015f808581526020019081526020015f205f015f8473ffffffffffffffffffffffffffffffffffffffff1673ffffffffffffffffffffffffffffffffffffffff1681526020019081526020015f205f6101000a81548160ff021916908315150217905550620004696200056c60201b60201c565b73ffffffffffffffffffffffffffffffffffffffff168273ffffffffffffffffffffffffffffffffffffffff16847f2f8788117e7eff1d82e926ec794901d17c78024a50270940304540a733656f0d60405160405180910390a460019050620004d1565b5f90505b92915050565b5f7f9b779b17422d0df92223018b32b4d1fa46e071723d6817e2486d003becc55f005f1b905090565b5f819050919050565b5f805f8481526020019081526020015f205f015f8373ffffffffffffffffffffffffffffffffffffffff1673ffffffffffffffffffffffffffffffffffffffff1681526020019081526020015f205f9054906101000a900460ff16905092915050565b5f33905090565b5f80fd5b5f73ffffffffffffffffffffffffffffffffffffffff82169050919050565b5f620005a28262000577565b9050919050565b620005b48162000596565b8114620005bf575f80fd5b50565b5f81519050620005d281620005a9565b92915050565b5f819050919050565b620005ec81620005d8565b8114620005f7575f80fd5b50565b5f815190506200060a81620005e1565b92915050565b5f805f805f805f805f6101208a8c03121562000631576200063062000573565b5b5f620006408c828d01620005c2565b9950506020620006538c828d01620005fa565b9850506040620006668c828d01620005fa565b9750506060620006798c828d01620005fa565b96505060806200068c8c828d01620005fa565b95505060a06200069f8c828d01620005c2565b94505060c0620006b28c828d01620005c2565b93505060e0620006c58c828d01620005c2565b925050610100620006d98c828d01620005c2565b9150509295985092959850929598565b7f4e487b71000000000000000000000000000000000000000000000000000000005f52602160045260245ffd5b60805160a05160c05160e051610100516101205161338e620007b95f395f8181610def015261269f01525f8181611500015261187b01525f8181610d9b015261165401525f8181610bf3015281816116b20152611df601525f8181610bc901526126de01525f81816110b9015281816117a601528181611a9d01528181612308015281816123bf015281816124a6015281816127ca0152612834015261338e5ff3fe6080604052600436106102e3575f3560e01c80637e78e5591161018f578063be378228116100db578063dbf6248911610094578063e58378bb1161006e578063e58378bb14610abe578063eccc541e14610ae8578063f5d6d39a14610b10578063f93b6be514610b38576102e3565b8063dbf6248914610a3c578063dc1892e614610a52578063e1a4521814610a94576102e3565b8063be37822814610942578063c19d93fb1461096c578063c6eedef914610996578063d547741f146109c0578063d97f3dcf146109e8578063dbc96ec914610a12576102e3565b806391d1485411610148578063a83cc5cf11610122578063a83cc5cf146108a9578063ab518e6e146108e6578063b2620b5f14610910578063b688a36314610938576102e3565b806391d1485414610819578063a217fddf14610855578063a4a2d9541461087f576102e3565b80637e78e5591461071d578063803db96d1461074757806389674f9f146107715780638cd221c91461079b5780638ec9c93b146107c55780638eebb0fd146107ef576102e3565b806336568abe1161024e5780635a61e1091161020757806361945f83116101e157806361945f831461067757806364925b471461069f5780636c4470fb146106c957806377da693b146106f3576102e3565b80635a61e109146105f95780635c975abb146106235780635dce1ef81461064d576102e3565b806336568abe146104ff57806339011221146105275780634c2412a2146105515780634fb2c7ba1461057b578063556496a7146105a557806356363ee6146105cf576102e3565b806319083ddf116102a057806319083ddf146103f5578063248a9ca31461041f5780632f2ff15d1461045b57806335a07d5b1461048357806335a58736146104ad578063362f04c0146104d5576102e3565b806301ffc9a7146102e7578063049229601461032357806304eb0a891461034d578063072ea61c146103775780630b20d752146103a15780631357e1dc146103cb575b5f80fd5b3480156102f2575f80fd5b5061030d60048036038101906103089190612af8565b610b4e565b60405161031a9190612b3d565b60405180910390f35b34801561032e575f80fd5b50610337610bc7565b6040516103449190612b6e565b60405180910390f35b348015610358575f80fd5b50610361610beb565b60405161036e9190612b6e565b60405180910390f35b348015610382575f80fd5b5061038b610bf1565b6040516103989190612b6e565b60405180910390f35b3480156103ac575f80fd5b506103b5610c15565b6040516103c29190612b6e565b60405180910390f35b3480156103d6575f80fd5b506103df610c1b565b6040516103ec9190612b6e565b60405180910390f35b348015610400575f80fd5b50610409610c21565b6040516104169190612b3d565b60405180910390f35b34801561042a575f80fd5b5061044560048036038101906104409190612bba565b610c33565b6040516104529190612bf4565b60405180910390f35b348015610466575f80fd5b50610481600480360381019061047c9190612c67565b610c4f565b005b34801561048e575f80fd5b50610497610c71565b6040516104a49190612b6e565b60405180910390f35b3480156104b8575f80fd5b506104d360048036038101906104ce9190612c67565b610c77565b005b3480156104e0575f80fd5b506104e9610d0c565b6040516104f69190612b6e565b60405180910390f35b34801561050a575f80fd5b5061052560048036038101906105209190612c67565b610d18565b005b348015610532575f80fd5b5061053b610d93565b6040516105489190612b6e565b60405180910390f35b34801561055c575f80fd5b50610565610d99565b6040516105729190612b6e565b60405180910390f35b348015610586575f80fd5b5061058f610dbd565b60405161059c9190612bf4565b60405180910390f35b3480156105b0575f80fd5b506105b9610de1565b6040516105c69190612b6e565b60405180910390f35b3480156105da575f80fd5b506105e3610de7565b6040516105f09190612b6e565b60405180910390f35b348015610604575f80fd5b5061060d610ded565b60405161061a9190612cb4565b60405180910390f35b34801561062e575f80fd5b50610637610e11565b6040516106449190612b3d565b60405180910390f35b348015610658575f80fd5b50610661610e26565b60405161066e9190612bf4565b60405180910390f35b348015610682575f80fd5b5061069d60048036038101906106989190612ccd565b610e2c565b005b3480156106aa575f80fd5b506106b3610fd1565b6040516106c09190612b6e565b60405180910390f35b3480156106d4575f80fd5b506106dd610fd7565b6040516106ea9190612dc2565b60405180910390f35b3480156106fe575f80fd5b50610707611062565b6040516107149190612b6e565b60405180910390f35b348015610728575f80fd5b50610731611068565b60405161073e9190612b6e565b60405180910390f35b348015610752575f80fd5b5061075b61106e565b6040516107689190612cb4565b60405180910390f35b34801561077c575f80fd5b50610785611093565b6040516107929190612bf4565b60405180910390f35b3480156107a6575f80fd5b506107af6110b7565b6040516107bc9190612b6e565b60405180910390f35b3480156107d0575f80fd5b506107d96110db565b6040516107e69190612b6e565b60405180910390f35b3480156107fa575f80fd5b506108036110e1565b6040516108109190612bf4565b60405180910390f35b348015610824575f80fd5b5061083f600480360381019061083a9190612c67565b611105565b60405161084c9190612b3d565b60405180910390f35b348015610860575f80fd5b50610869611168565b6040516108769190612bf4565b60405180910390f35b34801561088a575f80fd5b5061089361116e565b6040516108a09190612b6e565b60405180910390f35b3480156108b4575f80fd5b506108cf60048036038101906108ca9190612de2565b611174565b6040516108dd929190612e0d565b60405180910390f35b3480156108f1575f80fd5b506108fa6111a0565b6040516109079190612cb4565b60405180910390f35b34801561091b575f80fd5b5061093660048036038101906109319190612e95565b6111c4565b005b610940611482565b005b34801561094d575f80fd5b50610956611807565b6040516109639190612b6e565b60405180910390f35b348015610977575f80fd5b5061098061180d565b60405161098d9190612f65565b60405180910390f35b3480156109a1575f80fd5b506109aa611820565b6040516109b79190612b3d565b60405180910390f35b3480156109cb575f80fd5b506109e660048036038101906109e19190612c67565b611833565b005b3480156109f3575f80fd5b506109fc611855565b604051610a099190612bf4565b60405180910390f35b348015610a1d575f80fd5b50610a26611879565b604051610a339190612cb4565b60405180910390f35b348015610a47575f80fd5b50610a5061189d565b005b348015610a5d575f80fd5b50610a786004803603810190610a739190612de2565b6118d2565b604051610a8b9796959493929190612f7e565b60405180910390f35b348015610a9f575f80fd5b50610aa8611941565b604051610ab59190612b6e565b60405180910390f35b348015610ac9575f80fd5b50610ad2611947565b604051610adf9190612bf4565b60405180910390f35b348015610af3575f80fd5b50610b0e6004803603810190610b099190612c67565b61196b565b005b348015610b1b575f80fd5b50610b366004803603810190610b31919061300e565b611a00565b005b348015610b43575f80fd5b50610b4c611af7565b005b5f7f7965db0b000000000000000000000000000000000000000000000000000000007bffffffffffffffffffffffffffffffffffffffffffffffffffffffff1916827bffffffffffffffffffffffffffffffffffffffffffffffffffffffff19161480610bc05750610bbf82611b2c565b5b9050919050565b7f000000000000000000000000000000000000000000000000000000000000000081565b60085481565b7f000000000000000000000000000000000000000000000000000000000000000081565b60075481565b60095481565b600e5f9054906101000a900460ff1681565b5f805f8381526020019081526020015f20600101549050919050565b610c5882610c33565b610c6181611b95565b610c6b8383611ba9565b50505050565b600d5481565b7fb19546dff01e856fb3f010c267a7b1c60363cf8a4664e21cc89c26224620214e610ca181611b95565b610cab8383611ba9565b503373ffffffffffffffffffffffffffffffffffffffff168273ffffffffffffffffffffffffffffffffffffffff16847fb753ecc47a2f500309a6cf640700ac2f460fc47f20b4547adf42246adaa94c2160405160405180910390a4505050565b5f600f80549050905090565b610d20611c92565b73ffffffffffffffffffffffffffffffffffffffff168173ffffffffffffffffffffffffffffffffffffffff1614610d84576040517f6697b23200000000000000000000000000000000000000000000000000000000815260040160405180910390fd5b610d8e8282611c99565b505050565b6103e881565b7f000000000000000000000000000000000000000000000000000000000000000081565b7f98fa57671cf1c7b6c196c1230a2fc2d27625561c0bad9106de2d1db003a57e8781565b60045481565b60065481565b7f000000000000000000000000000000000000000000000000000000000000000081565b5f60015f9054906101000a900460ff16905090565b600b5481565b7fb19546dff01e856fb3f010c267a7b1c60363cf8a4664e21cc89c26224620214e610e5681611b95565b5f73ffffffffffffffffffffffffffffffffffffffff168373ffffffffffffffffffffffffffffffffffffffff161480610ebb57505f73ffffffffffffffffffffffffffffffffffffffff168273ffffffffffffffffffffffffffffffffffffffff16145b15610ef2576040517f35be3ac800000000000000000000000000000000000000000000000000000000815260040160405180910390fd5b826001806101000a81548173ffffffffffffffffffffffffffffffffffffffff021916908373ffffffffffffffffffffffffffffffffffffffff1602179055508160025f6101000a81548173ffffffffffffffffffffffffffffffffffffffff021916908373ffffffffffffffffffffffffffffffffffffffff1602179055508173ffffffffffffffffffffffffffffffffffffffff168373ffffffffffffffffffffffffffffffffffffffff167f55b8babbd4c83669eae5e35d76f5356fef675abd42acb90e6b49dbcb97b3680760405160405180910390a3505050565b61014d81565b6060600f80548060200260200160405190810160405280929190818152602001828054801561105857602002820191905f5260205f20905b815f9054906101000a900473ffffffffffffffffffffffffffffffffffffffff1673ffffffffffffffffffffffffffffffffffffffff168152602001906001019080831161100f575b5050505050905090565b600c5481565b60035481565b60025f9054906101000a900473ffffffffffffffffffffffffffffffffffffffff1681565b7fe5f3d29fbf8cd4b379b5a8ec1437261892bf01e7d129556690f84cf7a11d2c4d81565b7f000000000000000000000000000000000000000000000000000000000000000081565b60055481565b7f36dc7495d0ae0bc2a620bf292049e4d4e5f800043895b13c08a1977d3a3297f581565b5f805f8481526020019081526020015f205f015f8373ffffffffffffffffffffffffffffffffffffffff1673ffffffffffffffffffffffffffffffffffffffff1681526020019081526020015f205f9054906101000a900460ff16905092915050565b5f801b81565b600a5481565b6010602052805f5260405f205f91509050805f015f9054906101000a900460ff16908060010154905082565b60018054906101000a900473ffffffffffffffffffffffffffffffffffffffff1681565b6111cc611d82565b7fe5f3d29fbf8cd4b379b5a8ec1437261892bf01e7d129556690f84cf7a11d2c4d6111f681611b95565b6111fe611dc3565b6003600681111561121257611211612ef2565b5b600260149054906101000a900460ff16600681111561123457611233612ef2565b5b1461126b576040517f3225e88c00000000000000000000000000000000000000000000000000000000815260040160405180910390fd5b600e60019054906101000a900460ff16156112b2576040517fcf7aa3c800000000000000000000000000000000000000000000000000000000815260040160405180910390fd5b5f83839050036112ee576040517f93dcb95e00000000000000000000000000000000000000000000000000000000815260040160405180910390fd5b5f73ffffffffffffffffffffffffffffffffffffffff1660018054906101000a900473ffffffffffffffffffffffffffffffffffffffff1673ffffffffffffffffffffffffffffffffffffffff1603611373576040517fc84fb4fd00000000000000000000000000000000000000000000000000000000815260040160405180910390fd5b5f73ffffffffffffffffffffffffffffffffffffffff1660025f9054906101000a900473ffffffffffffffffffffffffffffffffffffffff1673ffffffffffffffffffffffffffffffffffffffff16036113f9576040517fbcd8de5200000000000000000000000000000000000000000000000000000000815260040160405180910390fd5b600e5f9054906101000a900460ff1661141a5761141584611de5565b611456565b600b548414611455576040517f9d6be9ba00000000000000000000000000000000000000000000000000000000815260040160405180910390fd5b5b6114608383611f22565b600c54600d540361147457611473612517565b5b61147c61289f565b50505050565b61148a611d82565b611492611dc3565b5f60068111156114a5576114a4612ef2565b5b600260149054906101000a900460ff1660068111156114c7576114c6612ef2565b5b146114fe576040517f402bc00700000000000000000000000000000000000000000000000000000000815260040160405180910390fd5b7f000000000000000000000000000000000000000000000000000000000000000073ffffffffffffffffffffffffffffffffffffffff1663937cde20336040518263ffffffff1660e01b81526004016115579190612cb4565b602060405180830381865afa158015611572573d5f803e3d5ffd5b505050506040513d601f19601f820116820180604052508101906115969190613063565b6115cc576040517f77bf69e900000000000000000000000000000000000000000000000000000000815260040160405180910390fd5b5f60105f3373ffffffffffffffffffffffffffffffffffffffff1673ffffffffffffffffffffffffffffffffffffffff1681526020019081526020015f209050805f015f9054906101000a900460ff1615611652576040517e3b268200000000000000000000000000000000000000000000000000000000815260040160405180910390fd5b7f0000000000000000000000000000000000000000000000000000000000000000600f80549050106116b0576040517f94d0eef900000000000000000000000000000000000000000000000000000000815260040160405180910390fd5b7f00000000000000000000000000000000000000000000000000000000000000003414611709576040517f8a78802100000000000000000000000000000000000000000000000000000000815260040160405180910390fd5b6001815f015f6101000a81548160ff021916908315150217905550348160010181905550600f33908060018154018082558091505060019003905f5260205f20015f9091909190916101000a81548173ffffffffffffffffffffffffffffffffffffffff021916908373ffffffffffffffffffffffffffffffffffffffff1602179055503373ffffffffffffffffffffffffffffffffffffffff167f00000000000000000000000000000000000000000000000000000000000000007f03dfbe1fcb4e2d61f3b4a0c93d8f814c92250618b3387f396cc9fc9fafe2c203346040516117f49190612b6e565b60405180910390a35061180561289f565b565b6103e881565b600260149054906101000a900460ff1681565b600e60019054906101000a900460ff1681565b61183c82610c33565b61184581611b95565b61184f8383611c99565b50505050565b7f082924f4e2f064ae6e08775a33c5bf0ed13092f3142e2c4280c29cce98ed69b781565b7f000000000000000000000000000000000000000000000000000000000000000081565b7fb19546dff01e856fb3f010c267a7b1c60363cf8a4664e21cc89c26224620214e6118c781611b95565b6118cf6128b9565b50565b6011602052805f5260405f205f91509050805f015f9054906101000a900460ff1690805f0160019054906101000a900460ff1690806001015490806002015490806003015490806004015f9054906101000a900460ff16908060040160019054906101000a900460ff16905087565b61271081565b7fb19546dff01e856fb3f010c267a7b1c60363cf8a4664e21cc89c26224620214e81565b7fb19546dff01e856fb3f010c267a7b1c60363cf8a4664e21cc89c26224620214e61199581611b95565b61199f8383611c99565b503373ffffffffffffffffffffffffffffffffffffffff168273ffffffffffffffffffffffffffffffffffffffff16847f27f5a0ed9f37f001a3486a5f7ce66cb2e5e4083603248958917cb0c1285e056b60405160405180910390a4505050565b7f082924f4e2f064ae6e08775a33c5bf0ed13092f3142e2c4280c29cce98ed69b7611a2a81611b95565b600e60019054906101000a900460ff1615611a71576040517fed66b4fc00000000000000000000000000000000000000000000000000000000815260040160405180910390fd5b81600260146101000a81548160ff02191690836006811115611a9657611a95612ef2565b5b02179055507f00000000000000000000000000000000000000000000000000000000000000007f5c8a99681bc622d59d60c72ee772a4b3ad289cba816b69f0015522c426fbc61883604051611aeb9190612f65565b60405180910390a25050565b7fb19546dff01e856fb3f010c267a7b1c60363cf8a4664e21cc89c26224620214e611b2181611b95565b611b2961291a565b50565b5f7f01ffc9a7000000000000000000000000000000000000000000000000000000007bffffffffffffffffffffffffffffffffffffffffffffffffffffffff1916827bffffffffffffffffffffffffffffffffffffffffffffffffffffffff1916149050919050565b611ba681611ba1611c92565b61297b565b50565b5f611bb48383611105565b611c885760015f808581526020019081526020015f205f015f8473ffffffffffffffffffffffffffffffffffffffff1673ffffffffffffffffffffffffffffffffffffffff1681526020019081526020015f205f6101000a81548160ff021916908315150217905550611c25611c92565b73ffffffffffffffffffffffffffffffffffffffff168273ffffffffffffffffffffffffffffffffffffffff16847f2f8788117e7eff1d82e926ec794901d17c78024a50270940304540a733656f0d60405160405180910390a460019050611c8c565b5f90505b92915050565b5f33905090565b5f611ca48383611105565b15611d78575f805f8581526020019081526020015f205f015f8473ffffffffffffffffffffffffffffffffffffffff1673ffffffffffffffffffffffffffffffffffffffff1681526020019081526020015f205f6101000a81548160ff021916908315150217905550611d15611c92565b73ffffffffffffffffffffffffffffffffffffffff168273ffffffffffffffffffffffffffffffffffffffff16847ff6391f5c32d9c69d2a47ea670b442974b53935d1edc7fd64eb21e047a839171b60405160405180910390a460019050611d7c565b5f90505b92915050565b611d8a610e11565b15611dc1576040517fd93c066500000000000000000000000000000000000000000000000000000000815260040160405180910390fd5b565b611dcb6129cc565b6002611ddd611dd8612a0d565b612a36565b5f0181905550565b600f80549050600c81905550600c547f0000000000000000000000000000000000000000000000000000000000000000611e1f91906130bb565b6004819055506127106103e8600454611e3891906130bb565b611e429190613129565b6005819055506127106103e8600454611e5b91906130bb565b611e659190613129565b600681905550600654600554600454611e7e9190613159565b611e889190613159565b600781905550600454600754600654600554611ea4919061318c565b611eae919061318c565b14611ee5576040517f67b4a24c00000000000000000000000000000000000000000000000000000000815260040160405180910390fd5b600160035f828254611ef7919061318c565b925050819055506001600e5f6101000a81548160ff02191690831515021790555080600b8190555050565b5f8282905090505f5b818110156125115736848483818110611f4757611f466131bf565b5b905060a00201905060105f825f016020810190611f649190612de2565b73ffffffffffffffffffffffffffffffffffffffff1673ffffffffffffffffffffffffffffffffffffffff1681526020019081526020015f205f015f9054906101000a900460ff16611fe2576040517fbdd3e2b200000000000000000000000000000000000000000000000000000000815260040160405180910390fd5b5f60115f835f016020810190611ff89190612de2565b73ffffffffffffffffffffffffffffffffffffffff1673ffffffffffffffffffffffffffffffffffffffff1681526020019081526020015f209050805f015f9054906101000a900460ff161561207a576040517f8dfb634f00000000000000000000000000000000000000000000000000000000815260040160405180910390fd5b81602001602081019061208d9190613200565b15801561209e57505f826080013514155b156120d5576040517fcae1e41800000000000000000000000000000000000000000000000000000000815260040160405180910390fd5b5f82608001351180156120f857508160200160208101906120f69190613200565b155b1561212f576040517f43a4f1db00000000000000000000000000000000000000000000000000000000815260040160405180910390fd5b6001815f015f6101000a81548160ff02191690831515021790555081602001602081019061215d9190613200565b815f0160016101000a81548160ff0219169083151502179055508160400135816001018190555081606001358160020181905550816080013581600301819055506001600d5f8282546121b0919061318c565b92505081905550600c54600d5411156121f5576040517fd5532b5100000000000000000000000000000000000000000000000000000000815260040160405180910390fd5b816080013560085f82825461220a919061318c565b925050819055505f826080013503612223575050612504565b5f825f0160208101906122369190612de2565b73ffffffffffffffffffffffffffffffffffffffff16836080013560405161225d90613258565b5f6040518083038185875af1925050503d805f8114612297576040519150601f19603f3d011682016040523d82523d5f602084013e61229c565b606091505b50509050801561236a576001826004015f6101000a81548160ff021916908315150217905550826080013560095f8282546122d7919061318c565b92505081905550825f0160208101906122f09190612de2565b73ffffffffffffffffffffffffffffffffffffffff167f00000000000000000000000000000000000000000000000000000000000000007fac496bf04b429bf7a6bb179271f3194066e9462a4f0d8afac065edd1f2be36b8856080013560405161235a9190612b6e565b60405180910390a3505050612504565b60018054906101000a900473ffffffffffffffffffffffffffffffffffffffff1673ffffffffffffffffffffffffffffffffffffffff1663765349f38460800135855f0160208101906123bd9190612de2565b7f000000000000000000000000000000000000000000000000000000000000000087608001356040518563ffffffff1660e01b81526004016124019392919061326c565b60206040518083038185885af115801561241d573d5f803e3d5ffd5b50505050506040513d601f19601f8201168201806040525081019061244291906132b5565b5060018260040160016101000a81548160ff0219169083151502179055508260800135600a5f828254612475919061318c565b92505081905550825f01602081019061248e9190612de2565b73ffffffffffffffffffffffffffffffffffffffff167f00000000000000000000000000000000000000000000000000000000000000007f659b7f675639bf8c9368e7c68fc96c29ed0c8679855055988fac30a1be4f57f985608001356040516124f89190612b6e565b60405180910390a35050505b8080600101915050611f2b565b50505050565b600c54600d5414612554576040517f4e55a51900000000000000000000000000000000000000000000000000000000815260040160405180910390fd5b60075460085414612591576040517f67b4a24c00000000000000000000000000000000000000000000000000000000815260040160405180910390fd5b600754600a546009546125a4919061318c565b146125db576040517f7b859fe600000000000000000000000000000000000000000000000000000000815260040160405180910390fd5b5f60025f9054906101000a900473ffffffffffffffffffffffffffffffffffffffff1673ffffffffffffffffffffffffffffffffffffffff1660055460405161262390613258565b5f6040518083038185875af1925050503d805f811461265d576040519150601f19603f3d011682016040523d82523d5f602084013e612662565b606091505b505090508061269d576040517fdbefa67000000000000000000000000000000000000000000000000000000000815260040160405180910390fd5b7f000000000000000000000000000000000000000000000000000000000000000073ffffffffffffffffffffffffffffffffffffffff1663acbd68106006547f00000000000000000000000000000000000000000000000000000000000000006040518363ffffffff1660e01b81526004016127199190612b6e565b5f604051808303818588803b158015612730575f80fd5b505af1158015612742573d5f803e3d5ffd5b50505050506001600e60016101000a81548160ff0219169083151502179055505f600a54111561279c576005600260146101000a81548160ff0219169083600681111561279257612791612ef2565b5b02179055506127c8565b6004600260146101000a81548160ff021916908360068111156127c2576127c1612ef2565b5b02179055505b7f00000000000000000000000000000000000000000000000000000000000000007f5c8a99681bc622d59d60c72ee772a4b3ad289cba816b69f0015522c426fbc618600260149054906101000a900460ff166040516128279190612f65565b60405180910390a2600b547f00000000000000000000000000000000000000000000000000000000000000007f12d04fca4772fa1e3349782d7a8e0f511b474aac73f08fc681f7afb94b87751a600554600654600754600954600a546040516128949594939291906132e0565b60405180910390a350565b60016128b16128ac612a0d565b612a36565b5f0181905550565b6128c1611d82565b6001805f6101000a81548160ff0219169083151502179055507f62e78cea01bee320cd4e420270b5ea74000d11b0c9f74754ebdbfc544b05a258612903611c92565b6040516129109190612cb4565b60405180910390a1565b612922612a3f565b5f60015f6101000a81548160ff0219169083151502179055507f5db9ee0a495bf2e6ff9c91a7834c1ba4fdd244a5e8aa4e537bd38aeae4b073aa612964611c92565b6040516129719190612cb4565b60405180910390a1565b6129858282611105565b6129c85780826040517fe2517d3f0000000000000000000000000000000000000000000000000000000081526004016129bf929190613331565b60405180910390fd5b5050565b6129d4612a7f565b15612a0b576040517f3ee5aeb500000000000000000000000000000000000000000000000000000000815260040160405180910390fd5b565b5f7f9b779b17422d0df92223018b32b4d1fa46e071723d6817e2486d003becc55f005f1b905090565b5f819050919050565b612a47610e11565b612a7d576040517f8dfc202b00000000000000000000000000000000000000000000000000000000815260040160405180910390fd5b565b5f6002612a92612a8d612a0d565b612a36565b5f015414905090565b5f80fd5b5f80fd5b5f7fffffffff0000000000000000000000000000000000000000000000000000000082169050919050565b612ad781612aa3565b8114612ae1575f80fd5b50565b5f81359050612af281612ace565b92915050565b5f60208284031215612b0d57612b0c612a9b565b5b5f612b1a84828501612ae4565b91505092915050565b5f8115159050919050565b612b3781612b23565b82525050565b5f602082019050612b505f830184612b2e565b92915050565b5f819050919050565b612b6881612b56565b82525050565b5f602082019050612b815f830184612b5f565b92915050565b5f819050919050565b612b9981612b87565b8114612ba3575f80fd5b50565b5f81359050612bb481612b90565b92915050565b5f60208284031215612bcf57612bce612a9b565b5b5f612bdc84828501612ba6565b91505092915050565b612bee81612b87565b82525050565b5f602082019050612c075f830184612be5565b92915050565b5f73ffffffffffffffffffffffffffffffffffffffff82169050919050565b5f612c3682612c0d565b9050919050565b612c4681612c2c565b8114612c50575f80fd5b50565b5f81359050612c6181612c3d565b92915050565b5f8060408385031215612c7d57612c7c612a9b565b5b5f612c8a85828601612ba6565b9250506020612c9b85828601612c53565b9150509250929050565b612cae81612c2c565b82525050565b5f602082019050612cc75f830184612ca5565b92915050565b5f8060408385031215612ce357612ce2612a9b565b5b5f612cf085828601612c53565b9250506020612d0185828601612c53565b9150509250929050565b5f81519050919050565b5f82825260208201905092915050565b5f819050602082019050919050565b612d3d81612c2c565b82525050565b5f612d4e8383612d34565b60208301905092915050565b5f602082019050919050565b5f612d7082612d0b565b612d7a8185612d15565b9350612d8583612d25565b805f5b83811015612db5578151612d9c8882612d43565b9750612da783612d5a565b925050600181019050612d88565b5085935050505092915050565b5f6020820190508181035f830152612dda8184612d66565b905092915050565b5f60208284031215612df757612df6612a9b565b5b5f612e0484828501612c53565b91505092915050565b5f604082019050612e205f830185612b2e565b612e2d6020830184612b5f565b9392505050565b5f80fd5b5f80fd5b5f80fd5b5f8083601f840112612e5557612e54612e34565b5b8235905067ffffffffffffffff811115612e7257612e71612e38565b5b6020830191508360a0820283011115612e8e57612e8d612e3c565b5b9250929050565b5f805f60408486031215612eac57612eab612a9b565b5b5f612eb986828701612ba6565b935050602084013567ffffffffffffffff811115612eda57612ed9612a9f565b5b612ee686828701612e40565b92509250509250925092565b7f4e487b71000000000000000000000000000000000000000000000000000000005f52602160045260245ffd5b60078110612f3057612f2f612ef2565b5b50565b5f819050612f4082612f1f565b919050565b5f612f4f82612f33565b9050919050565b612f5f81612f45565b82525050565b5f602082019050612f785f830184612f56565b92915050565b5f60e082019050612f915f83018a612b2e565b612f9e6020830189612b2e565b612fab6040830188612b5f565b612fb86060830187612b5f565b612fc56080830186612b5f565b612fd260a0830185612b2e565b612fdf60c0830184612b2e565b98975050505050505050565b60078110612ff7575f80fd5b50565b5f8135905061300881612feb565b92915050565b5f6020828403121561302357613022612a9b565b5b5f61303084828501612ffa565b91505092915050565b61304281612b23565b811461304c575f80fd5b50565b5f8151905061305d81613039565b92915050565b5f6020828403121561307857613077612a9b565b5b5f6130858482850161304f565b91505092915050565b7f4e487b71000000000000000000000000000000000000000000000000000000005f52601160045260245ffd5b5f6130c582612b56565b91506130d083612b56565b92508282026130de81612b56565b915082820484148315176130f5576130f461308e565b5b5092915050565b7f4e487b71000000000000000000000000000000000000000000000000000000005f52601260045260245ffd5b5f61313382612b56565b915061313e83612b56565b92508261314e5761314d6130fc565b5b828204905092915050565b5f61316382612b56565b915061316e83612b56565b92508282039050818111156131865761318561308e565b5b92915050565b5f61319682612b56565b91506131a183612b56565b92508282019050808211156131b9576131b861308e565b5b92915050565b7f4e487b71000000000000000000000000000000000000000000000000000000005f52603260045260245ffd5b5f813590506131fa81613039565b92915050565b5f6020828403121561321557613214612a9b565b5b5f613222848285016131ec565b91505092915050565b5f81905092915050565b50565b5f6132435f8361322b565b915061324e82613235565b5f82019050919050565b5f61326282613238565b9150819050919050565b5f60608201905061327f5f830186612ca5565b61328c6020830185612b5f565b6132996040830184612b5f565b949350505050565b5f815190506132af81612b90565b92915050565b5f602082840312156132ca576132c9612a9b565b5b5f6132d7848285016132a1565b91505092915050565b5f60a0820190506132f35f830188612b5f565b6133006020830187612b5f565b61330d6040830186612b5f565b61331a6060830185612b5f565b6133276080830184612b5f565b9695505050505050565b5f6040820190506133445f830185612ca5565b6133516020830184612be5565b939250505056fea2646970667358221220cd431d5921fb165d489c353e1c78edf3247500f68049f1fe079fd8a4df11571e64736f6c63430008180033","linkReferences":{}},"methodIdentifiers":{"BPS_DENOMINATOR()":"e1a45218","CLAIM_OPERATOR_ROLE()":"8eebb0fd","DEFAULT_ADMIN_ROLE()":"a217fddf","MAX_PLAYERS_CAP()":"64925b47","OWNER_ROLE()":"e58378bb","PROTOCOL_FEE_BPS()":"be378228","ROUND_OPERATOR_ROLE()":"d97f3dcf","SEASON_FEE_BPS()":"39011221","SEASON_OPERATOR_ROLE()":"4fb2c7ba","SETTLEMENT_OPERATOR_ROLE()":"89674f9f","claimVault()":"ab518e6e","configureSettlementTargets(address,address)":"61945f83","entryFee()":"072ea61c","getRoleAdmin(bytes32)":"248a9ca3","grantProtocolRole(bytes32,address)":"35a58736","grantRole(bytes32,address)":"2f2ff15d","hasRole(bytes32,address)":"91d14854","join()":"b688a363","maxPlayers()":"4c2412a2","participantCount()":"362f04c0","participantResults(address)":"dc1892e6","participants()":"6c4470fb","participationByPlayer(address)":"a83cc5cf","pauseProtocol()":"dbf62489","paused()":"5c975abb","playerPoolAmount()":"0b20d752","protocolFeeAmount()":"8ec9c93b","protocolTreasury()":"803db96d","renounceRole(bytes32,address)":"36568abe","revokeProtocolRole(bytes32,address)":"eccc541e","revokeRole(bytes32,address)":"d547741f","roundId()":"8cd221c9","rumbleXPass()":"dbc96ec9","seasonFeeAmount()":"56363ee6","seasonId()":"04922960","seasonVault()":"5a61e109","setRoundState(uint8)":"f5d6d39a","settleRoundBatch(bytes32,(address,bool,uint256,uint256,uint256)[])":"b2620b5f","settlementFinalized()":"c6eedef9","settlementResultHash()":"5dce1ef8","settlementVersion()":"7e78e559","state()":"c19d93fb","supportsInterface(bytes4)":"01ffc9a7","totalEntryCollected()":"556496a7","totalFallbackClaimable()":"a4a2d954","totalPaidOut()":"1357e1dc","totalParticipantsExpected()":"77da693b","totalParticipantsProcessed()":"35a07d5b","totalPayoutAssigned()":"04eb0a89","totalsCommitted()":"19083ddf","unpauseProtocol()":"f93b6be5"},"id":41}