{"abi":[{"type":"constructor","inputs":[{"name":"owner_","type":"address","internalType":"address"},{"name":"initialSeasonId","type":"uint256","internalType":"uint256"}],"stateMutability":"nonpayable"},{"type":"function","name":"CLAIM_OPERATOR_ROLE","inputs":[],"outputs":[{"name":"","type":"bytes32","internalType":"bytes32"}],"stateMutability":"view"},{"type":"function","name":"DEFAULT_ADMIN_ROLE","inputs":[],"outputs":[{"name":"","type":"bytes32","internalType":"bytes32"}],"stateMutability":"view"},{"type":"function","name":"OWNER_ROLE","inputs":[],"outputs":[{"name":"","type":"bytes32","internalType":"bytes32"}],"stateMutability":"view"},{"type":"function","name":"ROUND_OPERATOR_ROLE","inputs":[],"outputs":[{"name":"","type":"bytes32","internalType":"bytes32"}],"stateMutability":"view"},{"type":"function","name":"SEASON_OPERATOR_ROLE","inputs":[],"outputs":[{"name":"","type":"bytes32","internalType":"bytes32"}],"stateMutability":"view"},{"type":"function","name":"SETTLEMENT_OPERATOR_ROLE","inputs":[],"outputs":[{"name":"","type":"bytes32","internalType":"bytes32"}],"stateMutability":"view"},{"type":"function","name":"activeSeasonId","inputs":[],"outputs":[{"name":"","type":"uint256","internalType":"uint256"}],"stateMutability":"view"},{"type":"function","name":"approve","inputs":[{"name":"to","type":"address","internalType":"address"},{"name":"tokenId","type":"uint256","internalType":"uint256"}],"outputs":[],"stateMutability":"nonpayable"},{"type":"function","name":"balanceOf","inputs":[{"name":"owner","type":"address","internalType":"address"}],"outputs":[{"name":"","type":"uint256","internalType":"uint256"}],"stateMutability":"view"},{"type":"function","name":"getApproved","inputs":[{"name":"tokenId","type":"uint256","internalType":"uint256"}],"outputs":[{"name":"","type":"address","internalType":"address"}],"stateMutability":"view"},{"type":"function","name":"getRoleAdmin","inputs":[{"name":"role","type":"bytes32","internalType":"bytes32"}],"outputs":[{"name":"","type":"bytes32","internalType":"bytes32"}],"stateMutability":"view"},{"type":"function","name":"grantProtocolRole","inputs":[{"name":"role","type":"bytes32","internalType":"bytes32"},{"name":"account","type":"address","internalType":"address"}],"outputs":[],"stateMutability":"nonpayable"},{"type":"function","name":"grantRole","inputs":[{"name":"role","type":"bytes32","internalType":"bytes32"},{"name":"account","type":"address","internalType":"address"}],"outputs":[],"stateMutability":"nonpayable"},{"type":"function","name":"hasPass","inputs":[{"name":"player","type":"address","internalType":"address"}],"outputs":[{"name":"","type":"bool","internalType":"bool"}],"stateMutability":"view"},{"type":"function","name":"hasRole","inputs":[{"name":"role","type":"bytes32","internalType":"bytes32"},{"name":"account","type":"address","internalType":"address"}],"outputs":[{"name":"","type":"bool","internalType":"bool"}],"stateMutability":"view"},{"type":"function","name":"isApprovedForAll","inputs":[{"name":"owner","type":"address","internalType":"address"},{"name":"operator","type":"address","internalType":"address"}],"outputs":[{"name":"","type":"bool","internalType":"bool"}],"stateMutability":"view"},{"type":"function","name":"mintPass","inputs":[{"name":"player","type":"address","internalType":"address"},{"name":"seasonId","type":"uint256","internalType":"uint256"}],"outputs":[{"name":"tokenId","type":"uint256","internalType":"uint256"}],"stateMutability":"nonpayable"},{"type":"function","name":"name","inputs":[],"outputs":[{"name":"","type":"string","internalType":"string"}],"stateMutability":"view"},{"type":"function","name":"nextTokenId","inputs":[],"outputs":[{"name":"","type":"uint256","internalType":"uint256"}],"stateMutability":"view"},{"type":"function","name":"ownerOf","inputs":[{"name":"tokenId","type":"uint256","internalType":"uint256"}],"outputs":[{"name":"","type":"address","internalType":"address"}],"stateMutability":"view"},{"type":"function","name":"passMinter","inputs":[],"outputs":[{"name":"","type":"address","internalType":"address"}],"stateMutability":"view"},{"type":"function","name":"pauseProtocol","inputs":[],"outputs":[],"stateMutability":"nonpayable"},{"type":"function","name":"paused","inputs":[],"outputs":[{"name":"","type":"bool","internalType":"bool"}],"stateMutability":"view"},{"type":"function","name":"renounceRole","inputs":[{"name":"role","type":"bytes32","internalType":"bytes32"},{"name":"callerConfirmation","type":"address","internalType":"address"}],"outputs":[],"stateMutability":"nonpayable"},{"type":"function","name":"revokeProtocolRole","inputs":[{"name":"role","type":"bytes32","internalType":"bytes32"},{"name":"account","type":"address","internalType":"address"}],"outputs":[],"stateMutability":"nonpayable"},{"type":"function","name":"revokeRole","inputs":[{"name":"role","type":"bytes32","internalType":"bytes32"},{"name":"account","type":"address","internalType":"address"}],"outputs":[],"stateMutability":"nonpayable"},{"type":"function","name":"safeTransferFrom","inputs":[{"name":"from","type":"address","internalType":"address"},{"name":"to","type":"address","internalType":"address"},{"name":"tokenId","type":"uint256","internalType":"uint256"}],"outputs":[],"stateMutability":"nonpayable"},{"type":"function","name":"safeTransferFrom","inputs":[{"name":"from","type":"address","internalType":"address"},{"name":"to","type":"address","internalType":"address"},{"name":"tokenId","type":"uint256","internalType":"uint256"},{"name":"data","type":"bytes","internalType":"bytes"}],"outputs":[],"stateMutability":"nonpayable"},{"type":"function","name":"seasonTokenByOwner","inputs":[{"name":"seasonId","type":"uint256","internalType":"uint256"},{"name":"player","type":"address","internalType":"address"}],"outputs":[{"name":"tokenId","type":"uint256","internalType":"uint256"}],"stateMutability":"view"},{"type":"function","name":"setActiveSeason","inputs":[{"name":"seasonId","type":"uint256","internalType":"uint256"}],"outputs":[],"stateMutability":"nonpayable"},{"type":"function","name":"setApprovalForAll","inputs":[{"name":"operator","type":"address","internalType":"address"},{"name":"approved","type":"bool","internalType":"bool"}],"outputs":[],"stateMutability":"nonpayable"},{"type":"function","name":"setPassMinter","inputs":[{"name":"minter","type":"address","internalType":"address"}],"outputs":[],"stateMutability":"nonpayable"},{"type":"function","name":"supportsInterface","inputs":[{"name":"interfaceId","type":"bytes4","internalType":"bytes4"}],"outputs":[{"name":"","type":"bool","internalType":"bool"}],"stateMutability":"view"},{"type":"function","name":"symbol","inputs":[],"outputs":[{"name":"","type":"string","internalType":"string"}],"stateMutability":"view"},{"type":"function","name":"tokenSeason","inputs":[{"name":"tokenId","type":"uint256","internalType":"uint256"}],"outputs":[{"name":"seasonId","type":"uint256","internalType":"uint256"}],"stateMutability":"view"},{"type":"function","name":"tokenURI","inputs":[{"name":"tokenId","type":"uint256","internalType":"uint256"}],"outputs":[{"name":"","type":"string","internalType":"string"}],"stateMutability":"view"},{"type":"function","name":"transferFrom","inputs":[{"name":"from","type":"address","internalType":"address"},{"name":"to","type":"address","internalType":"address"},{"name":"tokenId","type":"uint256","internalType":"uint256"}],"outputs":[],"stateMutability":"nonpayable"},{"type":"function","name":"unpauseProtocol","inputs":[],"outputs":[],"stateMutability":"nonpayable"},{"type":"event","name":"ActiveSeasonUpdated","inputs":[{"name":"seasonId","type":"uint256","indexed":true,"internalType":"uint256"}],"anonymous":false},{"type":"event","name":"Approval","inputs":[{"name":"owner","type":"address","indexed":true,"internalType":"address"},{"name":"approved","type":"address","indexed":true,"internalType":"address"},{"name":"tokenId","type":"uint256","indexed":true,"internalType":"uint256"}],"anonymous":false},{"type":"event","name":"ApprovalForAll","inputs":[{"name":"owner","type":"address","indexed":true,"internalType":"address"},{"name":"operator","type":"address","indexed":true,"internalType":"address"},{"name":"approved","type":"bool","indexed":false,"internalType":"bool"}],"anonymous":false},{"type":"event","name":"PassMinted","inputs":[{"name":"player","type":"address","indexed":true,"internalType":"address"},{"name":"tokenId","type":"uint256","indexed":true,"internalType":"uint256"},{"name":"seasonId","type":"uint256","indexed":true,"internalType":"uint256"}],"anonymous":false},{"type":"event","name":"PassMinterUpdated","inputs":[{"name":"passMinter","type":"address","indexed":true,"internalType":"address"}],"anonymous":false},{"type":"event","name":"Paused","inputs":[{"name":"account","type":"address","indexed":false,"internalType":"address"}],"anonymous":false},{"type":"event","name":"ProtocolRoleGranted","inputs":[{"name":"role","type":"bytes32","indexed":true,"internalType":"bytes32"},{"name":"account","type":"address","indexed":true,"internalType":"address"},{"name":"sender","type":"address","indexed":true,"internalType":"address"}],"anonymous":false},{"type":"event","name":"ProtocolRoleRevoked","inputs":[{"name":"role","type":"bytes32","indexed":true,"internalType":"bytes32"},{"name":"account","type":"address","indexed":true,"internalType":"address"},{"name":"sender","type":"address","indexed":true,"internalType":"address"}],"anonymous":false},{"type":"event","name":"RoleAdminChanged","inputs":[{"name":"role","type":"bytes32","indexed":true,"internalType":"bytes32"},{"name":"previousAdminRole","type":"bytes32","indexed":true,"internalType":"bytes32"},{"name":"newAdminRole","type":"bytes32","indexed":true,"internalType":"bytes32"}],"anonymous":false},{"type":"event","name":"RoleGranted","inputs":[{"name":"role","type":"bytes32","indexed":true,"internalType":"bytes32"},{"name":"account","type":"address","indexed":true,"internalType":"address"},{"name":"sender","type":"address","indexed":true,"internalType":"address"}],"anonymous":false},{"type":"event","name":"RoleRevoked","inputs":[{"name":"role","type":"bytes32","indexed":true,"internalType":"bytes32"},{"name":"account","type":"address","indexed":true,"internalType":"address"},{"name":"sender","type":"address","indexed":true,"internalType":"address"}],"anonymous":false},{"type":"event","name":"Transfer","inputs":[{"name":"from","type":"address","indexed":true,"internalType":"address"},{"name":"to","type":"address","indexed":true,"internalType":"address"},{"name":"tokenId","type":"uint256","indexed":true,"internalType":"uint256"}],"anonymous":false},{"type":"event","name":"Unpaused","inputs":[{"name":"account","type":"address","indexed":false,"internalType":"address"}],"anonymous":false},{"type":"error","name":"AccessControlBadConfirmation","inputs":[]},{"type":"error","name":"AccessControlUnauthorizedAccount","inputs":[{"name":"account","type":"address","internalType":"address"},{"name":"neededRole","type":"bytes32","internalType":"bytes32"}]},{"type":"error","name":"ERC721IncorrectOwner","inputs":[{"name":"sender","type":"address","internalType":"address"},{"name":"tokenId","type":"uint256","internalType":"uint256"},{"name":"owner","type":"address","internalType":"address"}]},{"type":"error","name":"ERC721InsufficientApproval","inputs":[{"name":"operator","type":"address","internalType":"address"},{"name":"tokenId","type":"uint256","internalType":"uint256"}]},{"type":"error","name":"ERC721InvalidApprover","inputs":[{"name":"approver","type":"address","internalType":"address"}]},{"type":"error","name":"ERC721InvalidOperator","inputs":[{"name":"operator","type":"address","internalType":"address"}]},{"type":"error","name":"ERC721InvalidOwner","inputs":[{"name":"owner","type":"address","internalType":"address"}]},{"type":"error","name":"ERC721InvalidReceiver","inputs":[{"name":"receiver","type":"address","internalType":"address"}]},{"type":"error","name":"ERC721InvalidSender","inputs":[{"name":"sender","type":"address","internalType":"address"}]},{"type":"error","name":"ERC721NonexistentToken","inputs":[{"name":"tokenId","type":"uint256","internalType":"uint256"}]},{"type":"error","name":"EnforcedPause","inputs":[]},{"type":"error","name":"ExpectedPause","inputs":[]},{"type":"error","name":"InvalidPlayer","inputs":[]},{"type":"error","name":"NotMinter","inputs":[]},{"type":"error","name":"PassAlreadyMinted","inputs":[{"name":"player","type":"address","internalType":"address"},{"name":"seasonId","type":"uint256","internalType":"uint256"}]},{"type":"error","name":"ZeroAddress","inputs":[]}],"bytecode":{"object":"0x6080604052600160085534801562000015575f80fd5b50604051620036cc380380620036cc83398181016040528101906200003b91906200038f565b816040518060400160405280600c81526020017f52756d626c6558205061737300000000000000000000000000000000000000008152506040518060400160405280600681526020017f5258504153530000000000000000000000000000000000000000000000000000815250815f9081620000b891906200062f565b508060019081620000ca91906200062f565b5050505f73ffffffffffffffffffffffffffffffffffffffff168173ffffffffffffffffffffffffffffffffffffffff160362000133576040517fd92e233d00000000000000000000000000000000000000000000000000000000815260040160405180910390fd5b620001475f801b826200018b60201b60201c565b506200017a7fb19546dff01e856fb3f010c267a7b1c60363cf8a4664e21cc89c26224620214e826200018b60201b60201c565b505080600981905550505062000713565b5f6200019e83836200028760201b60201c565b6200027d57600160065f8581526020019081526020015f205f015f8473ffffffffffffffffffffffffffffffffffffffff1673ffffffffffffffffffffffffffffffffffffffff1681526020019081526020015f205f6101000a81548160ff02191690831515021790555062000219620002eb60201b60201c565b73ffffffffffffffffffffffffffffffffffffffff168273ffffffffffffffffffffffffffffffffffffffff16847f2f8788117e7eff1d82e926ec794901d17c78024a50270940304540a733656f0d60405160405180910390a46001905062000281565b5f90505b92915050565b5f60065f8481526020019081526020015f205f015f8373ffffffffffffffffffffffffffffffffffffffff1673ffffffffffffffffffffffffffffffffffffffff1681526020019081526020015f205f9054906101000a900460ff16905092915050565b5f33905090565b5f80fd5b5f73ffffffffffffffffffffffffffffffffffffffff82169050919050565b5f6200032182620002f6565b9050919050565b620003338162000315565b81146200033e575f80fd5b50565b5f81519050620003518162000328565b92915050565b5f819050919050565b6200036b8162000357565b811462000376575f80fd5b50565b5f81519050620003898162000360565b92915050565b5f8060408385031215620003a857620003a7620002f2565b5b5f620003b78582860162000341565b9250506020620003ca8582860162000379565b9150509250929050565b5f81519050919050565b7f4e487b71000000000000000000000000000000000000000000000000000000005f52604160045260245ffd5b7f4e487b71000000000000000000000000000000000000000000000000000000005f52602260045260245ffd5b5f60028204905060018216806200045057607f821691505b6020821081036200046657620004656200040b565b5b50919050565b5f819050815f5260205f209050919050565b5f6020601f8301049050919050565b5f82821b905092915050565b5f60088302620004ca7fffffffffffffffffffffffffffffffffffffffffffffffffffffffffffffffff826200048d565b620004d686836200048d565b95508019841693508086168417925050509392505050565b5f819050919050565b5f62000517620005116200050b8462000357565b620004ee565b62000357565b9050919050565b5f819050919050565b6200053283620004f7565b6200054a62000541826200051e565b84845462000499565b825550505050565b5f90565b6200056062000552565b6200056d81848462000527565b505050565b5b818110156200059457620005885f8262000556565b60018101905062000573565b5050565b601f821115620005e357620005ad816200046c565b620005b8846200047e565b81016020851015620005c8578190505b620005e0620005d7856200047e565b83018262000572565b50505b505050565b5f82821c905092915050565b5f620006055f1984600802620005e8565b1980831691505092915050565b5f6200061f8383620005f4565b9150826002028217905092915050565b6200063a82620003d4565b67ffffffffffffffff811115620006565762000655620003de565b5b62000662825462000438565b6200066f82828562000598565b5f60209050601f831160018114620006a5575f841562000690578287015190505b6200069c858262000612565b8655506200070b565b601f198416620006b5866200046c565b5f5b82811015620006de57848901518255600182019150602085019450602081019050620006b7565b86831015620006fe5784890151620006fa601f891682620005f4565b8355505b6001600288020188555050505b505050505050565b612fab80620007215f395ff3fe608060405234801561000f575f80fd5b5060043610610230575f3560e01c80638eebb0fd1161012e578063d02f371f116100b6578063e459e23f1161007a578063e459e23f146106b0578063e58378bb146106cc578063e985e9c5146106ea578063eccc541e1461071a578063f93b6be51461073657610230565b8063d02f371f14610620578063d2dbfa681461063c578063d547741f1461066c578063d97f3dcf14610688578063dbf62489146106a657610230565b8063a217fddf116100fd578063a217fddf1461057c578063a22cb4651461059a578063b88d4fde146105b6578063c87b56dd146105d2578063c91ba2f81461060257610230565b80638eebb0fd146104e057806391d14854146104fe578063937cde201461052e57806395d89b411461055e57610230565b806335a58736116101bc5780635c975abb116101805780635c975abb146104265780636352211e1461044457806370a082311461047457806375794a3c146104a457806389674f9f146104c257610230565b806335a587361461039657806336568abe146103b257806342842e0e146103ce5780634d1ec54f146103ea5780634fb2c7ba1461040857610230565b80630c9ae098116102035780630c9ae098146102ce5780631ccd03ac146102fe57806323b872dd1461032e578063248a9ca31461034a5780632f2ff15d1461037a57610230565b806301ffc9a71461023457806306fdde0314610264578063081812fc14610282578063095ea7b3146102b2575b5f80fd5b61024e6004803603810190610249919061269f565b610740565b60405161025b91906126e4565b60405180910390f35b61026c610751565b6040516102799190612787565b60405180910390f35b61029c600480360381019061029791906127da565b6107e0565b6040516102a99190612844565b60405180910390f35b6102cc60048036038101906102c79190612887565b6107fb565b005b6102e860048036038101906102e39190612887565b610811565b6040516102f591906128d4565b60405180910390f35b610318600480360381019061031391906127da565b610a98565b60405161032591906128d4565b60405180910390f35b610348600480360381019061034391906128ed565b610aad565b005b610364600480360381019061035f9190612970565b610bac565b60405161037191906129aa565b60405180910390f35b610394600480360381019061038f91906129c3565b610bc9565b005b6103b060048036038101906103ab91906129c3565b610beb565b005b6103cc60048036038101906103c791906129c3565b610c80565b005b6103e860048036038101906103e391906128ed565b610cfb565b005b6103f2610d1a565b6040516103ff9190612844565b60405180910390f35b610410610d3f565b60405161041d91906129aa565b60405180910390f35b61042e610d63565b60405161043b91906126e4565b60405180910390f35b61045e600480360381019061045991906127da565b610d78565b60405161046b9190612844565b60405180910390f35b61048e60048036038101906104899190612a01565b610d89565b60405161049b91906128d4565b60405180910390f35b6104ac610e3f565b6040516104b991906128d4565b60405180910390f35b6104ca610e45565b6040516104d791906129aa565b60405180910390f35b6104e8610e69565b6040516104f591906129aa565b60405180910390f35b610518600480360381019061051391906129c3565b610e8d565b60405161052591906126e4565b60405180910390f35b61054860048036038101906105439190612a01565b610ef1565b60405161055591906126e4565b60405180910390f35b610566610f4b565b6040516105739190612787565b60405180910390f35b610584610fdb565b60405161059191906129aa565b60405180910390f35b6105b460048036038101906105af9190612a56565b610fe1565b005b6105d060048036038101906105cb9190612bc0565b610ff7565b005b6105ec60048036038101906105e791906127da565b61101c565b6040516105f99190612787565b60405180910390f35b61060a611082565b60405161061791906128d4565b60405180910390f35b61063a60048036038101906106359190612a01565b611088565b005b61065660048036038101906106519190612c40565b611139565b60405161066391906128d4565b60405180910390f35b610686600480360381019061068191906129c3565b611159565b005b61069061117b565b60405161069d91906129aa565b60405180910390f35b6106ae61119f565b005b6106ca60048036038101906106c591906127da565b6111d4565b005b6106d4611236565b6040516106e191906129aa565b60405180910390f35b61070460048036038101906106ff9190612c7e565b61125a565b60405161071191906126e4565b60405180910390f35b610734600480360381019061072f91906129c3565b6112e8565b005b61073e61137d565b005b5f61074a826113b2565b9050919050565b60605f805461075f90612ce9565b80601f016020809104026020016040519081016040528092919081815260200182805461078b90612ce9565b80156107d65780601f106107ad576101008083540402835291602001916107d6565b820191905f5260205f20905b8154815290600101906020018083116107b957829003601f168201915b5050505050905090565b5f6107ea8261142b565b506107f4826114b1565b9050919050565b61080d82826108086114ea565b6114f1565b5050565b5f61083c7fb19546dff01e856fb3f010c267a7b1c60363cf8a4664e21cc89c26224620214e33610e8d565b1580156108965750600a5f9054906101000a900473ffffffffffffffffffffffffffffffffffffffff1673ffffffffffffffffffffffffffffffffffffffff163373ffffffffffffffffffffffffffffffffffffffff1614155b156108cd576040517ff8d2906c00000000000000000000000000000000000000000000000000000000815260040160405180910390fd5b5f73ffffffffffffffffffffffffffffffffffffffff168373ffffffffffffffffffffffffffffffffffffffff1603610932576040517f0e8a471c00000000000000000000000000000000000000000000000000000000815260040160405180910390fd5b5f600b5f8481526020019081526020015f205f8573ffffffffffffffffffffffffffffffffffffffff1673ffffffffffffffffffffffffffffffffffffffff1681526020019081526020015f2054146109c45782826040517fa2242c600000000000000000000000000000000000000000000000000000000081526004016109bb929190612d19565b60405180910390fd5b60085f8154809291906109d690612d6d565b91905055905080600b5f8481526020019081526020015f205f8573ffffffffffffffffffffffffffffffffffffffff1673ffffffffffffffffffffffffffffffffffffffff1681526020019081526020015f208190555081600c5f8381526020019081526020015f2081905550610a4d8382611503565b81818473ffffffffffffffffffffffffffffffffffffffff167f973726257f937669c7969e71f1965ec84e684e39bd3343887ebda21951223c9760405160405180910390a492915050565b600c602052805f5260405f205f915090505481565b5f73ffffffffffffffffffffffffffffffffffffffff168273ffffffffffffffffffffffffffffffffffffffff1603610b1d575f6040517f64a0ae92000000000000000000000000000000000000000000000000000000008152600401610b149190612844565b60405180910390fd5b5f610b308383610b2b6114ea565b611520565b90508373ffffffffffffffffffffffffffffffffffffffff168173ffffffffffffffffffffffffffffffffffffffff1614610ba6578382826040517f64283d7b000000000000000000000000000000000000000000000000000000008152600401610b9d93929190612db4565b60405180910390fd5b50505050565b5f60065f8381526020019081526020015f20600101549050919050565b610bd282610bac565b610bdb8161172b565b610be5838361173f565b50505050565b7fb19546dff01e856fb3f010c267a7b1c60363cf8a4664e21cc89c26224620214e610c158161172b565b610c1f838361173f565b503373ffffffffffffffffffffffffffffffffffffffff168273ffffffffffffffffffffffffffffffffffffffff16847fb753ecc47a2f500309a6cf640700ac2f460fc47f20b4547adf42246adaa94c2160405160405180910390a4505050565b610c886114ea565b73ffffffffffffffffffffffffffffffffffffffff168173ffffffffffffffffffffffffffffffffffffffff1614610cec576040517f6697b23200000000000000000000000000000000000000000000000000000000815260040160405180910390fd5b610cf68282611829565b505050565b610d1583838360405180602001604052805f815250610ff7565b505050565b600a5f9054906101000a900473ffffffffffffffffffffffffffffffffffffffff1681565b7f98fa57671cf1c7b6c196c1230a2fc2d27625561c0bad9106de2d1db003a57e8781565b5f60075f9054906101000a900460ff16905090565b5f610d828261142b565b9050919050565b5f8073ffffffffffffffffffffffffffffffffffffffff168273ffffffffffffffffffffffffffffffffffffffff1603610dfa575f6040517f89c62b64000000000000000000000000000000000000000000000000000000008152600401610df19190612844565b60405180910390fd5b60035f8373ffffffffffffffffffffffffffffffffffffffff1673ffffffffffffffffffffffffffffffffffffffff1681526020019081526020015f20549050919050565b60085481565b7fe5f3d29fbf8cd4b379b5a8ec1437261892bf01e7d129556690f84cf7a11d2c4d81565b7f36dc7495d0ae0bc2a620bf292049e4d4e5f800043895b13c08a1977d3a3297f581565b5f60065f8481526020019081526020015f205f015f8373ffffffffffffffffffffffffffffffffffffffff1673ffffffffffffffffffffffffffffffffffffffff1681526020019081526020015f205f9054906101000a900460ff16905092915050565b5f80600b5f60095481526020019081526020015f205f8473ffffffffffffffffffffffffffffffffffffffff1673ffffffffffffffffffffffffffffffffffffffff1681526020019081526020015f205414159050919050565b606060018054610f5a90612ce9565b80601f0160208091040260200160405190810160405280929190818152602001828054610f8690612ce9565b8015610fd15780601f10610fa857610100808354040283529160200191610fd1565b820191905f5260205f20905b815481529060010190602001808311610fb457829003601f168201915b5050505050905090565b5f801b81565b610ff3610fec6114ea565b8383611913565b5050565b611002848484610aad565b61101661100d6114ea565b85858585611aec565b50505050565b60606110278261142b565b505f611031611c98565b90505f81511161104f5760405180602001604052805f81525061107a565b8061105984611cae565b60405160200161106a929190612e23565b6040516020818303038152906040525b915050919050565b60095481565b7fb19546dff01e856fb3f010c267a7b1c60363cf8a4664e21cc89c26224620214e6110b28161172b565b81600a5f6101000a81548173ffffffffffffffffffffffffffffffffffffffff021916908373ffffffffffffffffffffffffffffffffffffffff1602179055508173ffffffffffffffffffffffffffffffffffffffff167f03087d5340e72baaa6e260da009c53502056ecc4ea9d8dfbbe112d0f7e00f3a260405160405180910390a25050565b600b602052815f5260405f20602052805f5260405f205f91509150505481565b61116282610bac565b61116b8161172b565b6111758383611829565b50505050565b7f082924f4e2f064ae6e08775a33c5bf0ed13092f3142e2c4280c29cce98ed69b781565b7fb19546dff01e856fb3f010c267a7b1c60363cf8a4664e21cc89c26224620214e6111c98161172b565b6111d1611d78565b50565b7fb19546dff01e856fb3f010c267a7b1c60363cf8a4664e21cc89c26224620214e6111fe8161172b565b81600981905550817fc476f141e18c9ceb84fb13b2889404f0de1132a6205286982926459271eb1bf660405160405180910390a25050565b7fb19546dff01e856fb3f010c267a7b1c60363cf8a4664e21cc89c26224620214e81565b5f60055f8473ffffffffffffffffffffffffffffffffffffffff1673ffffffffffffffffffffffffffffffffffffffff1681526020019081526020015f205f8373ffffffffffffffffffffffffffffffffffffffff1673ffffffffffffffffffffffffffffffffffffffff1681526020019081526020015f205f9054906101000a900460ff16905092915050565b7fb19546dff01e856fb3f010c267a7b1c60363cf8a4664e21cc89c26224620214e6113128161172b565b61131c8383611829565b503373ffffffffffffffffffffffffffffffffffffffff168273ffffffffffffffffffffffffffffffffffffffff16847f27f5a0ed9f37f001a3486a5f7ce66cb2e5e4083603248958917cb0c1285e056b60405160405180910390a4505050565b7fb19546dff01e856fb3f010c267a7b1c60363cf8a4664e21cc89c26224620214e6113a78161172b565b6113af611dda565b50565b5f7f7965db0b000000000000000000000000000000000000000000000000000000007bffffffffffffffffffffffffffffffffffffffffffffffffffffffff1916827bffffffffffffffffffffffffffffffffffffffffffffffffffffffff19161480611424575061142382611e3b565b5b9050919050565b5f8061143683611f1c565b90505f73ffffffffffffffffffffffffffffffffffffffff168173ffffffffffffffffffffffffffffffffffffffff16036114a857826040517f7e27328900000000000000000000000000000000000000000000000000000000815260040161149f91906128d4565b60405180910390fd5b80915050919050565b5f60045f8381526020019081526020015f205f9054906101000a900473ffffffffffffffffffffffffffffffffffffffff169050919050565b5f33905090565b6114fe8383836001611f55565b505050565b61151c828260405180602001604052805f815250612114565b5050565b5f8061152b84611f1c565b90505f73ffffffffffffffffffffffffffffffffffffffff168373ffffffffffffffffffffffffffffffffffffffff161461156c5761156b818486612137565b5b5f73ffffffffffffffffffffffffffffffffffffffff168173ffffffffffffffffffffffffffffffffffffffff16146115f7576115ab5f855f80611f55565b600160035f8373ffffffffffffffffffffffffffffffffffffffff1673ffffffffffffffffffffffffffffffffffffffff1681526020019081526020015f205f82825403925050819055505b5f73ffffffffffffffffffffffffffffffffffffffff168573ffffffffffffffffffffffffffffffffffffffff161461167657600160035f8773ffffffffffffffffffffffffffffffffffffffff1673ffffffffffffffffffffffffffffffffffffffff1681526020019081526020015f205f82825401925050819055505b8460025f8681526020019081526020015f205f6101000a81548173ffffffffffffffffffffffffffffffffffffffff021916908373ffffffffffffffffffffffffffffffffffffffff160217905550838573ffffffffffffffffffffffffffffffffffffffff168273ffffffffffffffffffffffffffffffffffffffff167fddf252ad1be2c89b69c2b068fc378daa952ba7f163c4a11628f55a4df523b3ef60405160405180910390a4809150509392505050565b61173c816117376114ea565b6121fa565b50565b5f61174a8383610e8d565b61181f57600160065f8581526020019081526020015f205f015f8473ffffffffffffffffffffffffffffffffffffffff1673ffffffffffffffffffffffffffffffffffffffff1681526020019081526020015f205f6101000a81548160ff0219169083151502179055506117bc6114ea565b73ffffffffffffffffffffffffffffffffffffffff168273ffffffffffffffffffffffffffffffffffffffff16847f2f8788117e7eff1d82e926ec794901d17c78024a50270940304540a733656f0d60405160405180910390a460019050611823565b5f90505b92915050565b5f6118348383610e8d565b15611909575f60065f8581526020019081526020015f205f015f8473ffffffffffffffffffffffffffffffffffffffff1673ffffffffffffffffffffffffffffffffffffffff1681526020019081526020015f205f6101000a81548160ff0219169083151502179055506118a66114ea565b73ffffffffffffffffffffffffffffffffffffffff168273ffffffffffffffffffffffffffffffffffffffff16847ff6391f5c32d9c69d2a47ea670b442974b53935d1edc7fd64eb21e047a839171b60405160405180910390a46001905061190d565b5f90505b92915050565b5f73ffffffffffffffffffffffffffffffffffffffff168373ffffffffffffffffffffffffffffffffffffffff1603611983575f6040517fa9fbf51f00000000000000000000000000000000000000000000000000000000815260040161197a9190612844565b60405180910390fd5b5f73ffffffffffffffffffffffffffffffffffffffff168273ffffffffffffffffffffffffffffffffffffffff16036119f357816040517f5b08ba180000000000000000000000000000000000000000000000000000000081526004016119ea9190612844565b60405180910390fd5b8060055f8573ffffffffffffffffffffffffffffffffffffffff1673ffffffffffffffffffffffffffffffffffffffff1681526020019081526020015f205f8473ffffffffffffffffffffffffffffffffffffffff1673ffffffffffffffffffffffffffffffffffffffff1681526020019081526020015f205f6101000a81548160ff0219169083151502179055508173ffffffffffffffffffffffffffffffffffffffff168373ffffffffffffffffffffffffffffffffffffffff167f17307eab39ab6107e8899845ad3d59bd9653f200f220920489ca2b5937696c3183604051611adf91906126e4565b60405180910390a3505050565b5f8373ffffffffffffffffffffffffffffffffffffffff163b1115611c91578273ffffffffffffffffffffffffffffffffffffffff1663150b7a02868685856040518563ffffffff1660e01b8152600401611b4a9493929190612e98565b6020604051808303815f875af1925050508015611b8557506040513d601f19601f82011682018060405250810190611b829190612ef6565b60015b611c06573d805f8114611bb3576040519150601f19603f3d011682016040523d82523d5f602084013e611bb8565b606091505b505f815103611bfe57836040517f64a0ae92000000000000000000000000000000000000000000000000000000008152600401611bf59190612844565b60405180910390fd5b805160208201fd5b63150b7a0260e01b7bffffffffffffffffffffffffffffffffffffffffffffffffffffffff1916817bffffffffffffffffffffffffffffffffffffffffffffffffffffffff191614611c8f57836040517f64a0ae92000000000000000000000000000000000000000000000000000000008152600401611c869190612844565b60405180910390fd5b505b5050505050565b606060405180602001604052805f815250905090565b60605f6001611cbc8461224b565b0190505f8167ffffffffffffffff811115611cda57611cd9612a9c565b5b6040519080825280601f01601f191660200182016040528015611d0c5781602001600182028036833780820191505090505b5090505f82602083010190505b600115611d6d578080600190039150507f3031323334353637383961626364656600000000000000000000000000000000600a86061a8153600a8581611d6257611d61612f21565b5b0494505f8503611d19575b819350505050919050565b611d8061239c565b600160075f6101000a81548160ff0219169083151502179055507f62e78cea01bee320cd4e420270b5ea74000d11b0c9f74754ebdbfc544b05a258611dc36114ea565b604051611dd09190612844565b60405180910390a1565b611de26123dd565b5f60075f6101000a81548160ff0219169083151502179055507f5db9ee0a495bf2e6ff9c91a7834c1ba4fdd244a5e8aa4e537bd38aeae4b073aa611e246114ea565b604051611e319190612844565b60405180910390a1565b5f7f80ac58cd000000000000000000000000000000000000000000000000000000007bffffffffffffffffffffffffffffffffffffffffffffffffffffffff1916827bffffffffffffffffffffffffffffffffffffffffffffffffffffffff19161480611f0557507f5b5e139f000000000000000000000000000000000000000000000000000000007bffffffffffffffffffffffffffffffffffffffffffffffffffffffff1916827bffffffffffffffffffffffffffffffffffffffffffffffffffffffff1916145b80611f155750611f148261241d565b5b9050919050565b5f60025f8381526020019081526020015f205f9054906101000a900473ffffffffffffffffffffffffffffffffffffffff169050919050565b8080611f8d57505f73ffffffffffffffffffffffffffffffffffffffff168273ffffffffffffffffffffffffffffffffffffffff1614155b156120bf575f611f9c8461142b565b90505f73ffffffffffffffffffffffffffffffffffffffff168373ffffffffffffffffffffffffffffffffffffffff161415801561200657508273ffffffffffffffffffffffffffffffffffffffff168173ffffffffffffffffffffffffffffffffffffffff1614155b80156120195750612017818461125a565b155b1561205b57826040517fa9fbf51f0000000000000000000000000000000000000000000000000000000081526004016120529190612844565b60405180910390fd5b81156120bd57838573ffffffffffffffffffffffffffffffffffffffff168273ffffffffffffffffffffffffffffffffffffffff167f8c5be1e5ebec7d5bd14f71427d1e84f3dd0314c0f7b2291e5b200ac8c7c3b92560405160405180910390a45b505b8360045f8581526020019081526020015f205f6101000a81548173ffffffffffffffffffffffffffffffffffffffff021916908373ffffffffffffffffffffffffffffffffffffffff16021790555050505050565b61211e8383612486565b6121326121296114ea565b5f858585611aec565b505050565b612142838383612579565b6121f5575f73ffffffffffffffffffffffffffffffffffffffff168373ffffffffffffffffffffffffffffffffffffffff16036121b657806040517f7e2732890000000000000000000000000000000000000000000000000000000081526004016121ad91906128d4565b60405180910390fd5b81816040517f177e802f0000000000000000000000000000000000000000000000000000000081526004016121ec929190612d19565b60405180910390fd5b505050565b6122048282610e8d565b6122475780826040517fe2517d3f00000000000000000000000000000000000000000000000000000000815260040161223e929190612f4e565b60405180910390fd5b5050565b5f805f90507a184f03e93ff9f4daa797ed6e38ed64bf6a1f01000000000000000083106122a7577a184f03e93ff9f4daa797ed6e38ed64bf6a1f010000000000000000838161229d5761229c612f21565b5b0492506040810190505b6d04ee2d6d415b85acef810000000083106122e4576d04ee2d6d415b85acef810000000083816122da576122d9612f21565b5b0492506020810190505b662386f26fc10000831061231357662386f26fc10000838161230957612308612f21565b5b0492506010810190505b6305f5e100831061233c576305f5e100838161233257612331612f21565b5b0492506008810190505b612710831061236157612710838161235757612356612f21565b5b0492506004810190505b60648310612384576064838161237a57612379612f21565b5b0492506002810190505b600a8310612393576001810190505b80915050919050565b6123a4610d63565b156123db576040517fd93c066500000000000000000000000000000000000000000000000000000000815260040160405180910390fd5b565b6123e5610d63565b61241b576040517f8dfc202b00000000000000000000000000000000000000000000000000000000815260040160405180910390fd5b565b5f7f01ffc9a7000000000000000000000000000000000000000000000000000000007bffffffffffffffffffffffffffffffffffffffffffffffffffffffff1916827bffffffffffffffffffffffffffffffffffffffffffffffffffffffff1916149050919050565b5f73ffffffffffffffffffffffffffffffffffffffff168273ffffffffffffffffffffffffffffffffffffffff16036124f6575f6040517f64a0ae920000000000000000000000000000000000000000000000000000000081526004016124ed9190612844565b60405180910390fd5b5f61250283835f611520565b90505f73ffffffffffffffffffffffffffffffffffffffff168173ffffffffffffffffffffffffffffffffffffffff1614612574575f6040517f73c6ac6e00000000000000000000000000000000000000000000000000000000815260040161256b9190612844565b60405180910390fd5b505050565b5f8073ffffffffffffffffffffffffffffffffffffffff168373ffffffffffffffffffffffffffffffffffffffff161415801561263057508273ffffffffffffffffffffffffffffffffffffffff168473ffffffffffffffffffffffffffffffffffffffff1614806125f157506125f0848461125a565b5b8061262f57508273ffffffffffffffffffffffffffffffffffffffff16612617836114b1565b73ffffffffffffffffffffffffffffffffffffffff16145b5b90509392505050565b5f604051905090565b5f80fd5b5f80fd5b5f7fffffffff0000000000000000000000000000000000000000000000000000000082169050919050565b61267e8161264a565b8114612688575f80fd5b50565b5f8135905061269981612675565b92915050565b5f602082840312156126b4576126b3612642565b5b5f6126c18482850161268b565b91505092915050565b5f8115159050919050565b6126de816126ca565b82525050565b5f6020820190506126f75f8301846126d5565b92915050565b5f81519050919050565b5f82825260208201905092915050565b5f5b83811015612734578082015181840152602081019050612719565b5f8484015250505050565b5f601f19601f8301169050919050565b5f612759826126fd565b6127638185612707565b9350612773818560208601612717565b61277c8161273f565b840191505092915050565b5f6020820190508181035f83015261279f818461274f565b905092915050565b5f819050919050565b6127b9816127a7565b81146127c3575f80fd5b50565b5f813590506127d4816127b0565b92915050565b5f602082840312156127ef576127ee612642565b5b5f6127fc848285016127c6565b91505092915050565b5f73ffffffffffffffffffffffffffffffffffffffff82169050919050565b5f61282e82612805565b9050919050565b61283e81612824565b82525050565b5f6020820190506128575f830184612835565b92915050565b61286681612824565b8114612870575f80fd5b50565b5f813590506128818161285d565b92915050565b5f806040838503121561289d5761289c612642565b5b5f6128aa85828601612873565b92505060206128bb858286016127c6565b9150509250929050565b6128ce816127a7565b82525050565b5f6020820190506128e75f8301846128c5565b92915050565b5f805f6060848603121561290457612903612642565b5b5f61291186828701612873565b935050602061292286828701612873565b9250506040612933868287016127c6565b9150509250925092565b5f819050919050565b61294f8161293d565b8114612959575f80fd5b50565b5f8135905061296a81612946565b92915050565b5f6020828403121561298557612984612642565b5b5f6129928482850161295c565b91505092915050565b6129a48161293d565b82525050565b5f6020820190506129bd5f83018461299b565b92915050565b5f80604083850312156129d9576129d8612642565b5b5f6129e68582860161295c565b92505060206129f785828601612873565b9150509250929050565b5f60208284031215612a1657612a15612642565b5b5f612a2384828501612873565b91505092915050565b612a35816126ca565b8114612a3f575f80fd5b50565b5f81359050612a5081612a2c565b92915050565b5f8060408385031215612a6c57612a6b612642565b5b5f612a7985828601612873565b9250506020612a8a85828601612a42565b9150509250929050565b5f80fd5b5f80fd5b7f4e487b71000000000000000000000000000000000000000000000000000000005f52604160045260245ffd5b612ad28261273f565b810181811067ffffffffffffffff82111715612af157612af0612a9c565b5b80604052505050565b5f612b03612639565b9050612b0f8282612ac9565b919050565b5f67ffffffffffffffff821115612b2e57612b2d612a9c565b5b612b378261273f565b9050602081019050919050565b828183375f83830152505050565b5f612b64612b5f84612b14565b612afa565b905082815260208101848484011115612b8057612b7f612a98565b5b612b8b848285612b44565b509392505050565b5f82601f830112612ba757612ba6612a94565b5b8135612bb7848260208601612b52565b91505092915050565b5f805f8060808587031215612bd857612bd7612642565b5b5f612be587828801612873565b9450506020612bf687828801612873565b9350506040612c07878288016127c6565b925050606085013567ffffffffffffffff811115612c2857612c27612646565b5b612c3487828801612b93565b91505092959194509250565b5f8060408385031215612c5657612c55612642565b5b5f612c63858286016127c6565b9250506020612c7485828601612873565b9150509250929050565b5f8060408385031215612c9457612c93612642565b5b5f612ca185828601612873565b9250506020612cb285828601612873565b9150509250929050565b7f4e487b71000000000000000000000000000000000000000000000000000000005f52602260045260245ffd5b5f6002820490506001821680612d0057607f821691505b602082108103612d1357612d12612cbc565b5b50919050565b5f604082019050612d2c5f830185612835565b612d3960208301846128c5565b9392505050565b7f4e487b71000000000000000000000000000000000000000000000000000000005f52601160045260245ffd5b5f612d77826127a7565b91507fffffffffffffffffffffffffffffffffffffffffffffffffffffffffffffffff8203612da957612da8612d40565b5b600182019050919050565b5f606082019050612dc75f830186612835565b612dd460208301856128c5565b612de16040830184612835565b949350505050565b5f81905092915050565b5f612dfd826126fd565b612e078185612de9565b9350612e17818560208601612717565b80840191505092915050565b5f612e2e8285612df3565b9150612e3a8284612df3565b91508190509392505050565b5f81519050919050565b5f82825260208201905092915050565b5f612e6a82612e46565b612e748185612e50565b9350612e84818560208601612717565b612e8d8161273f565b840191505092915050565b5f608082019050612eab5f830187612835565b612eb86020830186612835565b612ec560408301856128c5565b8181036060830152612ed78184612e60565b905095945050505050565b5f81519050612ef081612675565b92915050565b5f60208284031215612f0b57612f0a612642565b5b5f612f1884828501612ee2565b91505092915050565b7f4e487b71000000000000000000000000000000000000000000000000000000005f52601260045260245ffd5b5f604082019050612f615f830185612835565b612f6e602083018461299b565b939250505056fea26469706673582212203a325c58b6f1f87cd3c4b6ff05b2f5a64f9e028aa72cdc0a6cc813f6d8ff8c4d64736f6c63430008180033","linkReferences":{}},"methodIdentifiers":{"CLAIM_OPERATOR_ROLE()":"8eebb0fd","DEFAULT_ADMIN_ROLE()":"a217fddf","OWNER_ROLE()":"e58378bb","ROUND_OPERATOR_ROLE()":"d97f3dcf","SEASON_OPERATOR_ROLE()":"4fb2c7ba","SETTLEMENT_OPERATOR_ROLE()":"89674f9f","activeSeasonId()":"c91ba2f8","approve(address,uint256)":"095ea7b3","balanceOf(address)":"70a08231","getApproved(uint256)":"081812fc","getRoleAdmin(bytes32)":"248a9ca3","grantProtocolRole(bytes32,address)":"35a58736","grantRole(bytes32,address)":"2f2ff15d","hasPass(address)":"937cde20","hasRole(bytes32,address)":"91d14854","isApprovedForAll(address,address)":"e985e9c5","mintPass(address,uint256)":"0c9ae098","name()":"06fdde03","nextTokenId()":"75794a3c","ownerOf(uint256)":"6352211e","passMinter()":"4d1ec54f","pauseProtocol()":"dbf62489","paused()":"5c975abb","renounceRole(bytes32,address)":"36568abe","revokeProtocolRole(bytes32,address)":"eccc541e","revokeRole(bytes32,address)":"d547741f","safeTransferFrom(address,address,uint256)":"42842e0e","safeTransferFrom(address,address,uint256,bytes)":"b88d4fde","seasonTokenByOwner(uint256,address)":"d2dbfa68","setActiveSeason(uint256)":"e459e23f","setApprovalForAll(address,bool)":"a22cb465","setPassMinter(address)":"d02f371f","supportsInterface(bytes4)":"01ffc9a7","symbol()":"95d89b41","tokenSeason(uint256)":"1ccd03ac","tokenURI(uint256)":"c87b56dd","transferFrom(address,address,uint256)":"23b872dd","unpauseProtocol()":"f93b6be5"},"id":42}