{"abi":[{"type":"constructor","inputs":[{"name":"owner_","type":"address","internalType":"address"}],"stateMutability":"nonpayable"},{"type":"function","name":"CLAIM_OPERATOR_ROLE","inputs":[],"outputs":[{"name":"","type":"bytes32","internalType":"bytes32"}],"stateMutability":"view"},{"type":"function","name":"DEFAULT_ADMIN_ROLE","inputs":[],"outputs":[{"name":"","type":"bytes32","internalType":"bytes32"}],"stateMutability":"view"},{"type":"function","name":"OWNER_ROLE","inputs":[],"outputs":[{"name":"","type":"bytes32","internalType":"bytes32"}],"stateMutability":"view"},{"type":"function","name":"ROUND_OPERATOR_ROLE","inputs":[],"outputs":[{"name":"","type":"bytes32","internalType":"bytes32"}],"stateMutability":"view"},{"type":"function","name":"SEASON_OPERATOR_ROLE","inputs":[],"outputs":[{"name":"","type":"bytes32","internalType":"bytes32"}],"stateMutability":"view"},{"type":"function","name":"SETTLEMENT_OPERATOR_ROLE","inputs":[],"outputs":[{"name":"","type":"bytes32","internalType":"bytes32"}],"stateMutability":"view"},{"type":"function","name":"authorizedRoundRooms","inputs":[{"name":"roundRoom","type":"address","internalType":"address"}],"outputs":[{"name":"authorized","type":"bool","internalType":"bool"}],"stateMutability":"view"},{"type":"function","name":"claim","inputs":[{"name":"claimKeys","type":"bytes32[]","internalType":"bytes32[]"}],"outputs":[{"name":"totalPayout","type":"uint256","internalType":"uint256"}],"stateMutability":"nonpayable"},{"type":"function","name":"claimAll","inputs":[],"outputs":[{"name":"totalPayout","type":"uint256","internalType":"uint256"},{"name":"claimedCount","type":"uint256","internalType":"uint256"}],"stateMutability":"nonpayable"},{"type":"function","name":"claimRecords","inputs":[{"name":"claimKey","type":"bytes32","internalType":"bytes32"}],"outputs":[{"name":"player","type":"address","internalType":"address"},{"name":"claimType","type":"uint8","internalType":"enum ClaimVault.ClaimType"},{"name":"sourceId","type":"uint256","internalType":"uint256"},{"name":"amount","type":"uint256","internalType":"uint256"},{"name":"claimed","type":"bool","internalType":"bool"},{"name":"createdAt","type":"uint256","internalType":"uint256"},{"name":"claimedAt","type":"uint256","internalType":"uint256"}],"stateMutability":"view"},{"type":"function","name":"getClaimKey","inputs":[{"name":"player","type":"address","internalType":"address"},{"name":"claimType","type":"uint8","internalType":"enum ClaimVault.ClaimType"},{"name":"sourceId","type":"uint256","internalType":"uint256"}],"outputs":[{"name":"","type":"bytes32","internalType":"bytes32"}],"stateMutability":"pure"},{"type":"function","name":"getPlayerClaimKeys","inputs":[{"name":"player","type":"address","internalType":"address"}],"outputs":[{"name":"","type":"bytes32[]","internalType":"bytes32[]"}],"stateMutability":"view"},{"type":"function","name":"getRoleAdmin","inputs":[{"name":"role","type":"bytes32","internalType":"bytes32"}],"outputs":[{"name":"","type":"bytes32","internalType":"bytes32"}],"stateMutability":"view"},{"type":"function","name":"grantProtocolRole","inputs":[{"name":"role","type":"bytes32","internalType":"bytes32"},{"name":"account","type":"address","internalType":"address"}],"outputs":[],"stateMutability":"nonpayable"},{"type":"function","name":"grantRole","inputs":[{"name":"role","type":"bytes32","internalType":"bytes32"},{"name":"account","type":"address","internalType":"address"}],"outputs":[],"stateMutability":"nonpayable"},{"type":"function","name":"hasRole","inputs":[{"name":"role","type":"bytes32","internalType":"bytes32"},{"name":"account","type":"address","internalType":"address"}],"outputs":[{"name":"","type":"bool","internalType":"bool"}],"stateMutability":"view"},{"type":"function","name":"pauseProtocol","inputs":[],"outputs":[],"stateMutability":"nonpayable"},{"type":"function","name":"paused","inputs":[],"outputs":[{"name":"","type":"bool","internalType":"bool"}],"stateMutability":"view"},{"type":"function","name":"recordClaim","inputs":[{"name":"player","type":"address","internalType":"address"},{"name":"claimType","type":"uint8","internalType":"enum ClaimVault.ClaimType"},{"name":"sourceId","type":"uint256","internalType":"uint256"},{"name":"amount","type":"uint256","internalType":"uint256"}],"outputs":[{"name":"","type":"bytes32","internalType":"bytes32"}],"stateMutability":"nonpayable"},{"type":"function","name":"recordFallbackRoundPayout","inputs":[{"name":"player","type":"address","internalType":"address"},{"name":"roundId","type":"uint256","internalType":"uint256"},{"name":"amount","type":"uint256","internalType":"uint256"}],"outputs":[{"name":"","type":"bytes32","internalType":"bytes32"}],"stateMutability":"payable"},{"type":"function","name":"renounceRole","inputs":[{"name":"role","type":"bytes32","internalType":"bytes32"},{"name":"callerConfirmation","type":"address","internalType":"address"}],"outputs":[],"stateMutability":"nonpayable"},{"type":"function","name":"revokeProtocolRole","inputs":[{"name":"role","type":"bytes32","internalType":"bytes32"},{"name":"account","type":"address","internalType":"address"}],"outputs":[],"stateMutability":"nonpayable"},{"type":"function","name":"revokeRole","inputs":[{"name":"role","type":"bytes32","internalType":"bytes32"},{"name":"account","type":"address","internalType":"address"}],"outputs":[],"stateMutability":"nonpayable"},{"type":"function","name":"setAuthorizedRoundRoom","inputs":[{"name":"roundRoom","type":"address","internalType":"address"},{"name":"authorized","type":"bool","internalType":"bool"}],"outputs":[],"stateMutability":"nonpayable"},{"type":"function","name":"supportsInterface","inputs":[{"name":"interfaceId","type":"bytes4","internalType":"bytes4"}],"outputs":[{"name":"","type":"bool","internalType":"bool"}],"stateMutability":"view"},{"type":"function","name":"totalClaimableFor","inputs":[{"name":"player","type":"address","internalType":"address"}],"outputs":[{"name":"total","type":"uint256","internalType":"uint256"}],"stateMutability":"view"},{"type":"function","name":"unpauseProtocol","inputs":[],"outputs":[],"stateMutability":"nonpayable"},{"type":"event","name":"ClaimAll","inputs":[{"name":"player","type":"address","indexed":true,"internalType":"address"},{"name":"totalAmount","type":"uint256","indexed":false,"internalType":"uint256"},{"name":"claimedCount","type":"uint256","indexed":false,"internalType":"uint256"}],"anonymous":false},{"type":"event","name":"ClaimRecorded","inputs":[{"name":"player","type":"address","indexed":true,"internalType":"address"},{"name":"claimType","type":"uint8","indexed":true,"internalType":"uint8"},{"name":"sourceId","type":"uint256","indexed":true,"internalType":"uint256"},{"name":"amount","type":"uint256","indexed":false,"internalType":"uint256"}],"anonymous":false},{"type":"event","name":"Claimed","inputs":[{"name":"player","type":"address","indexed":true,"internalType":"address"},{"name":"totalAmount","type":"uint256","indexed":false,"internalType":"uint256"},{"name":"claimedCount","type":"uint256","indexed":false,"internalType":"uint256"}],"anonymous":false},{"type":"event","name":"Paused","inputs":[{"name":"account","type":"address","indexed":false,"internalType":"address"}],"anonymous":false},{"type":"event","name":"ProtocolRoleGranted","inputs":[{"name":"role","type":"bytes32","indexed":true,"internalType":"bytes32"},{"name":"account","type":"address","indexed":true,"internalType":"address"},{"name":"sender","type":"address","indexed":true,"internalType":"address"}],"anonymous":false},{"type":"event","name":"ProtocolRoleRevoked","inputs":[{"name":"role","type":"bytes32","indexed":true,"internalType":"bytes32"},{"name":"account","type":"address","indexed":true,"internalType":"address"},{"name":"sender","type":"address","indexed":true,"internalType":"address"}],"anonymous":false},{"type":"event","name":"RoleAdminChanged","inputs":[{"name":"role","type":"bytes32","indexed":true,"internalType":"bytes32"},{"name":"previousAdminRole","type":"bytes32","indexed":true,"internalType":"bytes32"},{"name":"newAdminRole","type":"bytes32","indexed":true,"internalType":"bytes32"}],"anonymous":false},{"type":"event","name":"RoleGranted","inputs":[{"name":"role","type":"bytes32","indexed":true,"internalType":"bytes32"},{"name":"account","type":"address","indexed":true,"internalType":"address"},{"name":"sender","type":"address","indexed":true,"internalType":"address"}],"anonymous":false},{"type":"event","name":"RoleRevoked","inputs":[{"name":"role","type":"bytes32","indexed":true,"internalType":"bytes32"},{"name":"account","type":"address","indexed":true,"internalType":"address"},{"name":"sender","type":"address","indexed":true,"internalType":"address"}],"anonymous":false},{"type":"event","name":"RoundRoomAuthorizationUpdated","inputs":[{"name":"roundRoom","type":"address","indexed":true,"internalType":"address"},{"name":"authorized","type":"bool","indexed":false,"internalType":"bool"}],"anonymous":false},{"type":"event","name":"Unpaused","inputs":[{"name":"account","type":"address","indexed":false,"internalType":"address"}],"anonymous":false},{"type":"error","name":"AccessControlBadConfirmation","inputs":[]},{"type":"error","name":"AccessControlUnauthorizedAccount","inputs":[{"name":"account","type":"address","internalType":"address"},{"name":"neededRole","type":"bytes32","internalType":"bytes32"}]},{"type":"error","name":"ClaimAlreadyClaimed","inputs":[{"name":"claimKey","type":"bytes32","internalType":"bytes32"}]},{"type":"error","name":"ClaimAlreadyFinalized","inputs":[{"name":"claimKey","type":"bytes32","internalType":"bytes32"}]},{"type":"error","name":"ClaimNotOwned","inputs":[{"name":"claimKey","type":"bytes32","internalType":"bytes32"}]},{"type":"error","name":"ClaimTransferFailed","inputs":[]},{"type":"error","name":"EmptyClaimKeys","inputs":[]},{"type":"error","name":"EnforcedPause","inputs":[]},{"type":"error","name":"ExpectedPause","inputs":[]},{"type":"error","name":"InvalidClaimAmount","inputs":[{"name":"claimKey","type":"bytes32","internalType":"bytes32"}]},{"type":"error","name":"InvalidClaimInput","inputs":[]},{"type":"error","name":"InvalidFundedAmount","inputs":[]},{"type":"error","name":"NoClaimableRecords","inputs":[]},{"type":"error","name":"ReentrancyGuardReentrantCall","inputs":[]},{"type":"error","name":"UnauthorizedClaimRecorder","inputs":[]},{"type":"error","name":"ZeroAddress","inputs":[]}],"bytecode":{"object":"0x608060405234801562000010575f80fd5b50604051620028a2380380620028a2833981810160405281019062000036919062000311565b805f73ffffffffffffffffffffffffffffffffffffffff168173ffffffffffffffffffffffffffffffffffffffff16036200009d576040517fd92e233d00000000000000000000000000000000000000000000000000000000815260040160405180910390fd5b620000b15f801b826200011560201b60201c565b50620000e47fb19546dff01e856fb3f010c267a7b1c60363cf8a4664e21cc89c26224620214e826200011560201b60201c565b5050600162000108620000fc6200021060201b60201c565b6200023960201b60201c565b5f01819055505062000341565b5f6200012883836200024260201b60201c565b620002065760015f808581526020019081526020015f205f015f8473ffffffffffffffffffffffffffffffffffffffff1673ffffffffffffffffffffffffffffffffffffffff1681526020019081526020015f205f6101000a81548160ff021916908315150217905550620001a2620002a560201b60201c565b73ffffffffffffffffffffffffffffffffffffffff168273ffffffffffffffffffffffffffffffffffffffff16847f2f8788117e7eff1d82e926ec794901d17c78024a50270940304540a733656f0d60405160405180910390a4600190506200020a565b5f90505b92915050565b5f7f9b779b17422d0df92223018b32b4d1fa46e071723d6817e2486d003becc55f005f1b905090565b5f819050919050565b5f805f8481526020019081526020015f205f015f8373ffffffffffffffffffffffffffffffffffffffff1673ffffffffffffffffffffffffffffffffffffffff1681526020019081526020015f205f9054906101000a900460ff16905092915050565b5f33905090565b5f80fd5b5f73ffffffffffffffffffffffffffffffffffffffff82169050919050565b5f620002db82620002b0565b9050919050565b620002ed81620002cf565b8114620002f8575f80fd5b50565b5f815190506200030b81620002e2565b92915050565b5f60208284031215620003295762000328620002ac565b5b5f6200033884828501620002fb565b91505092915050565b612553806200034f5f395ff3fe60806040526004361061019b575f3560e01c80638eebb0fd116100eb578063d547741f11610089578063e58378bb11610063578063e58378bb146105f6578063eccc541e14610620578063f34dd2eb14610648578063f93b6be5146106845761019b565b8063d547741f1461058e578063d97f3dcf146105b6578063dbf62489146105e05761019b565b8063a5f4642c116100c5578063a5f4642c146104c3578063a8dfd213146104eb578063b391c50814610527578063d1058e59146105635761019b565b80638eebb0fd1461043357806391d148541461045d578063a217fddf146104995761019b565b806336568abe116101585780634fb2c7ba116101325780634fb2c7ba146103855780635c975abb146103af578063765349f3146103d957806389674f9f146104095761019b565b806336568abe146102df578063377ef50c1461030757806345632eb4146103495761019b565b8063012fb54f1461019f57806301ffc9a7146101db578063248a9ca3146102175780632f2ff15d14610253578063321c9c031461027b57806335a58736146102b7575b5f80fd5b3480156101aa575f80fd5b506101c560048036038101906101c09190611e0b565b61069a565b6040516101d29190611e73565b60405180910390f35b3480156101e6575f80fd5b5061020160048036038101906101fc9190611ee1565b6106cf565b60405161020e9190611f26565b60405180910390f35b348015610222575f80fd5b5061023d60048036038101906102389190611f69565b610748565b60405161024a9190611e73565b60405180910390f35b34801561025e575f80fd5b5061027960048036038101906102749190611f94565b610764565b005b348015610286575f80fd5b506102a1600480360381019061029c9190611fd2565b610786565b6040516102ae91906120b4565b60405180910390f35b3480156102c2575f80fd5b506102dd60048036038101906102d89190611f94565b610819565b005b3480156102ea575f80fd5b5061030560048036038101906103009190611f94565b6108ae565b005b348015610312575f80fd5b5061032d60048036038101906103289190611f69565b610929565b6040516103409796959493929190612165565b60405180910390f35b348015610354575f80fd5b5061036f600480360381019061036a91906121d2565b61099e565b60405161037c9190611e73565b60405180910390f35b348015610390575f80fd5b506103996109e8565b6040516103a69190611e73565b60405180910390f35b3480156103ba575f80fd5b506103c3610a0c565b6040516103d09190611f26565b60405180910390f35b6103f360048036038101906103ee9190612236565b610a21565b6040516104009190611e73565b60405180910390f35b348015610414575f80fd5b5061041d610b39565b60405161042a9190611e73565b60405180910390f35b34801561043e575f80fd5b50610447610b5d565b6040516104549190611e73565b60405180910390f35b348015610468575f80fd5b50610483600480360381019061047e9190611f94565b610b81565b6040516104909190611f26565b60405180910390f35b3480156104a4575f80fd5b506104ad610be4565b6040516104ba9190611e73565b60405180910390f35b3480156104ce575f80fd5b506104e960048036038101906104e491906122b0565b610bea565b005b3480156104f6575f80fd5b50610511600480360381019061050c9190611fd2565b610cbb565b60405161051e9190611f26565b60405180910390f35b348015610532575f80fd5b5061054d6004803603810190610548919061234f565b610cd8565b60405161055a919061239a565b60405180910390f35b34801561056e575f80fd5b50610577611020565b6040516105859291906123b3565b60405180910390f35b348015610599575f80fd5b506105b460048036038101906105af9190611f94565b61126a565b005b3480156105c1575f80fd5b506105ca61128c565b6040516105d79190611e73565b60405180910390f35b3480156105eb575f80fd5b506105f46112b0565b005b348015610601575f80fd5b5061060a6112e5565b6040516106179190611e73565b60405180910390f35b34801561062b575f80fd5b5061064660048036038101906106419190611f94565b611309565b005b348015610653575f80fd5b5061066e60048036038101906106699190611fd2565b61139e565b60405161067b919061239a565b60405180910390f35b34801561068f575f80fd5b50610698611459565b005b5f8383836040516020016106b0939291906123da565b6040516020818303038152906040528051906020012090509392505050565b5f7f7965db0b000000000000000000000000000000000000000000000000000000007bffffffffffffffffffffffffffffffffffffffffffffffffffffffff1916827bffffffffffffffffffffffffffffffffffffffffffffffffffffffff1916148061074157506107408261148e565b5b9050919050565b5f805f8381526020019081526020015f20600101549050919050565b61076d82610748565b610776816114f7565b610780838361150b565b50505050565b606060045f8373ffffffffffffffffffffffffffffffffffffffff1673ffffffffffffffffffffffffffffffffffffffff1681526020019081526020015f2080548060200260200160405190810160405280929190818152602001828054801561080d57602002820191905f5260205f20905b8154815260200190600101908083116107f9575b50505050509050919050565b7fb19546dff01e856fb3f010c267a7b1c60363cf8a4664e21cc89c26224620214e610843816114f7565b61084d838361150b565b503373ffffffffffffffffffffffffffffffffffffffff168273ffffffffffffffffffffffffffffffffffffffff16847fb753ecc47a2f500309a6cf640700ac2f460fc47f20b4547adf42246adaa94c2160405160405180910390a4505050565b6108b66115f4565b73ffffffffffffffffffffffffffffffffffffffff168173ffffffffffffffffffffffffffffffffffffffff161461091a576040517f6697b23200000000000000000000000000000000000000000000000000000000815260040160405180910390fd5b61092482826115fb565b505050565b6002602052805f5260405f205f91509050805f015f9054906101000a900473ffffffffffffffffffffffffffffffffffffffff1690805f0160149054906101000a900460ff1690806001015490806002015490806003015f9054906101000a900460ff16908060040154908060050154905087565b5f7f36dc7495d0ae0bc2a620bf292049e4d4e5f800043895b13c08a1977d3a3297f56109c9816114f7565b6109d16116e4565b6109dd86868686611725565b915050949350505050565b7f98fa57671cf1c7b6c196c1230a2fc2d27625561c0bad9106de2d1db003a57e8781565b5f60015f9054906101000a900460ff16905090565b5f610a2a6116e4565b60035f3373ffffffffffffffffffffffffffffffffffffffff1673ffffffffffffffffffffffffffffffffffffffff1681526020019081526020015f205f9054906101000a900460ff16158015610aa85750610aa67f36dc7495d0ae0bc2a620bf292049e4d4e5f800043895b13c08a1977d3a3297f533610b81565b155b15610adf576040517f57afc87000000000000000000000000000000000000000000000000000000000815260040160405180910390fd5b8134141580610aed57505f82145b15610b24576040517f0624b0b200000000000000000000000000000000000000000000000000000000815260040160405180910390fd5b610b30845f8585611725565b90509392505050565b7fe5f3d29fbf8cd4b379b5a8ec1437261892bf01e7d129556690f84cf7a11d2c4d81565b7f36dc7495d0ae0bc2a620bf292049e4d4e5f800043895b13c08a1977d3a3297f581565b5f805f8481526020019081526020015f205f015f8373ffffffffffffffffffffffffffffffffffffffff1673ffffffffffffffffffffffffffffffffffffffff1681526020019081526020015f205f9054906101000a900460ff16905092915050565b5f801b81565b7fb19546dff01e856fb3f010c267a7b1c60363cf8a4664e21cc89c26224620214e610c14816114f7565b8160035f8573ffffffffffffffffffffffffffffffffffffffff1673ffffffffffffffffffffffffffffffffffffffff1681526020019081526020015f205f6101000a81548160ff0219169083151502179055508273ffffffffffffffffffffffffffffffffffffffff167fa1c99702d007b66c4786852fcbbddeb0f0bd442865ff4392f0e08fa30635951783604051610cae9190611f26565b60405180910390a2505050565b6003602052805f5260405f205f915054906101000a900460ff1681565b5f610ce1611b35565b610ce96116e4565b5f8383905003610d25576040517f671dd29800000000000000000000000000000000000000000000000000000000815260040160405180910390fd5b5f8383905090505f5b81811015610eb5575f858583818110610d4a57610d4961240f565b5b9050602002013590505f60025f8381526020019081526020015f2090503373ffffffffffffffffffffffffffffffffffffffff16815f015f9054906101000a900473ffffffffffffffffffffffffffffffffffffffff1673ffffffffffffffffffffffffffffffffffffffff1614610df957816040517fb1dda189000000000000000000000000000000000000000000000000000000008152600401610df09190611e73565b60405180910390fd5b806003015f9054906101000a900460ff1615610e4c57816040517f30635cf1000000000000000000000000000000000000000000000000000000008152600401610e439190611e73565b60405180910390fd5b5f816002015403610e9457816040517fe4be4011000000000000000000000000000000000000000000000000000000008152600401610e8b9190611e73565b60405180910390fd5b806002015485610ea49190612469565b945050508080600101915050610d2e565b505f5b81811015610f20575f60025f878785818110610ed757610ed661240f565b5b9050602002013581526020019081526020015f2090506001816003015f6101000a81548160ff021916908315150217905550428160050181905550508080600101915050610eb8565b505f3373ffffffffffffffffffffffffffffffffffffffff1683604051610f46906124c9565b5f6040518083038185875af1925050503d805f8114610f80576040519150601f19603f3d011682016040523d82523d5f602084013e610f85565b606091505b5050905080610fc0576040517f7022d24a00000000000000000000000000000000000000000000000000000000815260040160405180910390fd5b3373ffffffffffffffffffffffffffffffffffffffff167f987d620f307ff6b94d58743cb7a7509f24071586a77759b77c2d4e29f75a2f9a84846040516110089291906123b3565b60405180910390a2505061101a611b57565b92915050565b5f8061102a611b35565b6110326116e4565b5f60045f3373ffffffffffffffffffffffffffffffffffffffff1673ffffffffffffffffffffffffffffffffffffffff1681526020019081526020015f2090505f818054905090505f5b81811015611132575f60025f85848154811061109b5761109a61240f565b5b905f5260205f20015481526020019081526020015f209050806003015f9054906101000a900460ff16806110d257505f8160020154145b156110dd5750611125565b8060020154866110ed9190612469565b95506001856110fc9190612469565b94506001816003015f6101000a81548160ff021916908315150217905550428160050181905550505b808060010191505061107c565b505f830361116c576040517fc8ac3f8100000000000000000000000000000000000000000000000000000000815260040160405180910390fd5b5f3373ffffffffffffffffffffffffffffffffffffffff1685604051611191906124c9565b5f6040518083038185875af1925050503d805f81146111cb576040519150601f19603f3d011682016040523d82523d5f602084013e6111d0565b606091505b505090508061120b576040517f7022d24a00000000000000000000000000000000000000000000000000000000815260040160405180910390fd5b3373ffffffffffffffffffffffffffffffffffffffff167fe5b519eccad60ea5af710c9c7792f84934cb83d5c13f3cf5cfc68432d56882c286866040516112539291906123b3565b60405180910390a2505050611266611b57565b9091565b61127382610748565b61127c816114f7565b61128683836115fb565b50505050565b7f082924f4e2f064ae6e08775a33c5bf0ed13092f3142e2c4280c29cce98ed69b781565b7fb19546dff01e856fb3f010c267a7b1c60363cf8a4664e21cc89c26224620214e6112da816114f7565b6112e2611b71565b50565b7fb19546dff01e856fb3f010c267a7b1c60363cf8a4664e21cc89c26224620214e81565b7fb19546dff01e856fb3f010c267a7b1c60363cf8a4664e21cc89c26224620214e611333816114f7565b61133d83836115fb565b503373ffffffffffffffffffffffffffffffffffffffff168273ffffffffffffffffffffffffffffffffffffffff16847f27f5a0ed9f37f001a3486a5f7ce66cb2e5e4083603248958917cb0c1285e056b60405160405180910390a4505050565b5f8060045f8473ffffffffffffffffffffffffffffffffffffffff1673ffffffffffffffffffffffffffffffffffffffff1681526020019081526020015f2090505f5b8180549050811015611452575f60025f8484815481106114045761140361240f565b5b905f5260205f20015481526020019081526020015f209050806003015f9054906101000a900460ff16611444578060020154846114419190612469565b93505b5080806001019150506113e1565b5050919050565b7fb19546dff01e856fb3f010c267a7b1c60363cf8a4664e21cc89c26224620214e611483816114f7565b61148b611bd2565b50565b5f7f01ffc9a7000000000000000000000000000000000000000000000000000000007bffffffffffffffffffffffffffffffffffffffffffffffffffffffff1916827bffffffffffffffffffffffffffffffffffffffffffffffffffffffff1916149050919050565b611508816115036115f4565b611c33565b50565b5f6115168383610b81565b6115ea5760015f808581526020019081526020015f205f015f8473ffffffffffffffffffffffffffffffffffffffff1673ffffffffffffffffffffffffffffffffffffffff1681526020019081526020015f205f6101000a81548160ff0219169083151502179055506115876115f4565b73ffffffffffffffffffffffffffffffffffffffff168273ffffffffffffffffffffffffffffffffffffffff16847f2f8788117e7eff1d82e926ec794901d17c78024a50270940304540a733656f0d60405160405180910390a4600190506115ee565b5f90505b92915050565b5f33905090565b5f6116068383610b81565b156116da575f805f8581526020019081526020015f205f015f8473ffffffffffffffffffffffffffffffffffffffff1673ffffffffffffffffffffffffffffffffffffffff1681526020019081526020015f205f6101000a81548160ff0219169083151502179055506116776115f4565b73ffffffffffffffffffffffffffffffffffffffff168273ffffffffffffffffffffffffffffffffffffffff16847ff6391f5c32d9c69d2a47ea670b442974b53935d1edc7fd64eb21e047a839171b60405160405180910390a4600190506116de565b5f90505b92915050565b6116ec610a0c565b15611723576040517fd93c066500000000000000000000000000000000000000000000000000000000815260040160405180910390fd5b565b5f8073ffffffffffffffffffffffffffffffffffffffff168573ffffffffffffffffffffffffffffffffffffffff16148061175f57505f83145b8061176957505f82145b156117a0576040517f0a30943100000000000000000000000000000000000000000000000000000000815260040160405180910390fd5b6117ab85858561069a565b90505f60025f8381526020019081526020015f2090505f73ffffffffffffffffffffffffffffffffffffffff16815f015f9054906101000a900473ffffffffffffffffffffffffffffffffffffffff1673ffffffffffffffffffffffffffffffffffffffff1603611a59576040518060e001604052808773ffffffffffffffffffffffffffffffffffffffff1681526020018660018111156118505761184f6120e3565b5b81526020018581526020018481526020015f151581526020014281526020015f81525060025f8481526020019081526020015f205f820151815f015f6101000a81548173ffffffffffffffffffffffffffffffffffffffff021916908373ffffffffffffffffffffffffffffffffffffffff1602179055506020820151815f0160146101000a81548160ff021916908360018111156118f2576118f16120e3565b5b021790555060408201518160010155606082015181600201556080820151816003015f6101000a81548160ff02191690831515021790555060a0820151816004015560c0820151816005015590505060055f8381526020019081526020015f205f9054906101000a900460ff166119ee57600160055f8481526020019081526020015f205f6101000a81548160ff02191690831515021790555060045f8773ffffffffffffffffffffffffffffffffffffffff1673ffffffffffffffffffffffffffffffffffffffff1681526020019081526020015f2082908060018154018082558091505060019003905f5260205f20015f90919091909150555b83856001811115611a0257611a016120e3565b5b60ff168773ffffffffffffffffffffffffffffffffffffffff167fdf6054a9d74a7c33f2c49f46430ffdc1c60dd252430c6fb55897691bcc17911e86604051611a4b919061239a565b60405180910390a450611b2d565b806003015f9054906101000a900460ff1615611aac57816040517f27ab3dda000000000000000000000000000000000000000000000000000000008152600401611aa39190611e73565b60405180910390fd5b82816002015f828254611abf9190612469565b9250508190555083856001811115611ada57611ad96120e3565b5b60ff168773ffffffffffffffffffffffffffffffffffffffff167fdf6054a9d74a7c33f2c49f46430ffdc1c60dd252430c6fb55897691bcc17911e86604051611b23919061239a565b60405180910390a4505b949350505050565b611b3d611c84565b6002611b4f611b4a611cc5565b611cee565b5f0181905550565b6001611b69611b64611cc5565b611cee565b5f0181905550565b611b796116e4565b6001805f6101000a81548160ff0219169083151502179055507f62e78cea01bee320cd4e420270b5ea74000d11b0c9f74754ebdbfc544b05a258611bbb6115f4565b604051611bc891906124dd565b60405180910390a1565b611bda611cf7565b5f60015f6101000a81548160ff0219169083151502179055507f5db9ee0a495bf2e6ff9c91a7834c1ba4fdd244a5e8aa4e537bd38aeae4b073aa611c1c6115f4565b604051611c2991906124dd565b60405180910390a1565b611c3d8282610b81565b611c805780826040517fe2517d3f000000000000000000000000000000000000000000000000000000008152600401611c779291906124f6565b60405180910390fd5b5050565b611c8c611d37565b15611cc3576040517f3ee5aeb500000000000000000000000000000000000000000000000000000000815260040160405180910390fd5b565b5f7f9b779b17422d0df92223018b32b4d1fa46e071723d6817e2486d003becc55f005f1b905090565b5f819050919050565b611cff610a0c565b611d35576040517f8dfc202b00000000000000000000000000000000000000000000000000000000815260040160405180910390fd5b565b5f6002611d4a611d45611cc5565b611cee565b5f015414905090565b5f80fd5b5f80fd5b5f73ffffffffffffffffffffffffffffffffffffffff82169050919050565b5f611d8482611d5b565b9050919050565b611d9481611d7a565b8114611d9e575f80fd5b50565b5f81359050611daf81611d8b565b92915050565b60028110611dc1575f80fd5b50565b5f81359050611dd281611db5565b92915050565b5f819050919050565b611dea81611dd8565b8114611df4575f80fd5b50565b5f81359050611e0581611de1565b92915050565b5f805f60608486031215611e2257611e21611d53565b5b5f611e2f86828701611da1565b9350506020611e4086828701611dc4565b9250506040611e5186828701611df7565b9150509250925092565b5f819050919050565b611e6d81611e5b565b82525050565b5f602082019050611e865f830184611e64565b92915050565b5f7fffffffff0000000000000000000000000000000000000000000000000000000082169050919050565b611ec081611e8c565b8114611eca575f80fd5b50565b5f81359050611edb81611eb7565b92915050565b5f60208284031215611ef657611ef5611d53565b5b5f611f0384828501611ecd565b91505092915050565b5f8115159050919050565b611f2081611f0c565b82525050565b5f602082019050611f395f830184611f17565b92915050565b611f4881611e5b565b8114611f52575f80fd5b50565b5f81359050611f6381611f3f565b92915050565b5f60208284031215611f7e57611f7d611d53565b5b5f611f8b84828501611f55565b91505092915050565b5f8060408385031215611faa57611fa9611d53565b5b5f611fb785828601611f55565b9250506020611fc885828601611da1565b9150509250929050565b5f60208284031215611fe757611fe6611d53565b5b5f611ff484828501611da1565b91505092915050565b5f81519050919050565b5f82825260208201905092915050565b5f819050602082019050919050565b61202f81611e5b565b82525050565b5f6120408383612026565b60208301905092915050565b5f602082019050919050565b5f61206282611ffd565b61206c8185612007565b935061207783612017565b805f5b838110156120a757815161208e8882612035565b97506120998361204c565b92505060018101905061207a565b5085935050505092915050565b5f6020820190508181035f8301526120cc8184612058565b905092915050565b6120dd81611d7a565b82525050565b7f4e487b71000000000000000000000000000000000000000000000000000000005f52602160045260245ffd5b60028110612121576121206120e3565b5b50565b5f81905061213182612110565b919050565b5f61214082612124565b9050919050565b61215081612136565b82525050565b61215f81611dd8565b82525050565b5f60e0820190506121785f83018a6120d4565b6121856020830189612147565b6121926040830188612156565b61219f6060830187612156565b6121ac6080830186611f17565b6121b960a0830185612156565b6121c660c0830184612156565b98975050505050505050565b5f805f80608085870312156121ea576121e9611d53565b5b5f6121f787828801611da1565b945050602061220887828801611dc4565b935050604061221987828801611df7565b925050606061222a87828801611df7565b91505092959194509250565b5f805f6060848603121561224d5761224c611d53565b5b5f61225a86828701611da1565b935050602061226b86828701611df7565b925050604061227c86828701611df7565b9150509250925092565b61228f81611f0c565b8114612299575f80fd5b50565b5f813590506122aa81612286565b92915050565b5f80604083850312156122c6576122c5611d53565b5b5f6122d385828601611da1565b92505060206122e48582860161229c565b9150509250929050565b5f80fd5b5f80fd5b5f80fd5b5f8083601f84011261230f5761230e6122ee565b5b8235905067ffffffffffffffff81111561232c5761232b6122f2565b5b602083019150836020820283011115612348576123476122f6565b5b9250929050565b5f806020838503121561236557612364611d53565b5b5f83013567ffffffffffffffff81111561238257612381611d57565b5b61238e858286016122fa565b92509250509250929050565b5f6020820190506123ad5f830184612156565b92915050565b5f6040820190506123c65f830185612156565b6123d36020830184612156565b9392505050565b5f6060820190506123ed5f8301866120d4565b6123fa6020830185612147565b6124076040830184612156565b949350505050565b7f4e487b71000000000000000000000000000000000000000000000000000000005f52603260045260245ffd5b7f4e487b71000000000000000000000000000000000000000000000000000000005f52601160045260245ffd5b5f61247382611dd8565b915061247e83611dd8565b92508282019050808211156124965761249561243c565b5b92915050565b5f81905092915050565b50565b5f6124b45f8361249c565b91506124bf826124a6565b5f82019050919050565b5f6124d3826124a9565b9150819050919050565b5f6020820190506124f05f8301846120d4565b92915050565b5f6040820190506125095f8301856120d4565b6125166020830184611e64565b939250505056fea2646970667358221220a3c73a674f6ebc32a267fe3ef10eda403b60c54f21d271d9cb2d967445ea9b1764736f6c63430008180033","linkReferences":{}},"methodIdentifiers":{"CLAIM_OPERATOR_ROLE()":"8eebb0fd","DEFAULT_ADMIN_ROLE()":"a217fddf","OWNER_ROLE()":"e58378bb","ROUND_OPERATOR_ROLE()":"d97f3dcf","SEASON_OPERATOR_ROLE()":"4fb2c7ba","SETTLEMENT_OPERATOR_ROLE()":"89674f9f","authorizedRoundRooms(address)":"a8dfd213","claim(bytes32[])":"b391c508","claimAll()":"d1058e59","claimRecords(bytes32)":"377ef50c","getClaimKey(address,uint8,uint256)":"012fb54f","getPlayerClaimKeys(address)":"321c9c03","getRoleAdmin(bytes32)":"248a9ca3","grantProtocolRole(bytes32,address)":"35a58736","grantRole(bytes32,address)":"2f2ff15d","hasRole(bytes32,address)":"91d14854","pauseProtocol()":"dbf62489","paused()":"5c975abb","recordClaim(address,uint8,uint256,uint256)":"45632eb4","recordFallbackRoundPayout(address,uint256,uint256)":"765349f3","renounceRole(bytes32,address)":"36568abe","revokeProtocolRole(bytes32,address)":"eccc541e","revokeRole(bytes32,address)":"d547741f","setAuthorizedRoundRoom(address,bool)":"a5f4642c","supportsInterface(bytes4)":"01ffc9a7","totalClaimableFor(address)":"f34dd2eb","unpauseProtocol()":"f93b6be5"},"id":39}