{"abi":[{"type":"constructor","inputs":[{"name":"owner_","type":"address","internalType":"address"}],"stateMutability":"nonpayable"},{"type":"function","name":"CLAIM_OPERATOR_ROLE","inputs":[],"outputs":[{"name":"","type":"bytes32","internalType":"bytes32"}],"stateMutability":"view"},{"type":"function","name":"DEFAULT_ADMIN_ROLE","inputs":[],"outputs":[{"name":"","type":"bytes32","internalType":"bytes32"}],"stateMutability":"view"},{"type":"function","name":"OWNER_ROLE","inputs":[],"outputs":[{"name":"","type":"bytes32","internalType":"bytes32"}],"stateMutability":"view"},{"type":"function","name":"ROUND_OPERATOR_ROLE","inputs":[],"outputs":[{"name":"","type":"bytes32","internalType":"bytes32"}],"stateMutability":"view"},{"type":"function","name":"SEASON_OPERATOR_ROLE","inputs":[],"outputs":[{"name":"","type":"bytes32","internalType":"bytes32"}],"stateMutability":"view"},{"type":"function","name":"SETTLEMENT_OPERATOR_ROLE","inputs":[],"outputs":[{"name":"","type":"bytes32","internalType":"bytes32"}],"stateMutability":"view"},{"type":"function","name":"authorizedRoundRooms","inputs":[{"name":"roundRoom","type":"address","internalType":"address"}],"outputs":[{"name":"authorized","type":"bool","internalType":"bool"}],"stateMutability":"view"},{"type":"function","name":"authorizedSeasonVaults","inputs":[{"name":"seasonVault","type":"address","internalType":"address"}],"outputs":[{"name":"authorized","type":"bool","internalType":"bool"}],"stateMutability":"view"},{"type":"function","name":"claim","inputs":[{"name":"claimKeys","type":"bytes32[]","internalType":"bytes32[]"}],"outputs":[{"name":"totalPayout","type":"uint256","internalType":"uint256"}],"stateMutability":"nonpayable"},{"type":"function","name":"claimAll","inputs":[],"outputs":[{"name":"totalPayout","type":"uint256","internalType":"uint256"},{"name":"claimedCount","type":"uint256","internalType":"uint256"}],"stateMutability":"nonpayable"},{"type":"function","name":"claimRecords","inputs":[{"name":"claimKey","type":"bytes32","internalType":"bytes32"}],"outputs":[{"name":"player","type":"address","internalType":"address"},{"name":"claimType","type":"uint8","internalType":"enum ClaimVault.ClaimType"},{"name":"sourceId","type":"uint256","internalType":"uint256"},{"name":"amount","type":"uint256","internalType":"uint256"},{"name":"claimed","type":"bool","internalType":"bool"},{"name":"createdAt","type":"uint256","internalType":"uint256"},{"name":"claimedAt","type":"uint256","internalType":"uint256"}],"stateMutability":"view"},{"type":"function","name":"getClaimKey","inputs":[{"name":"player","type":"address","internalType":"address"},{"name":"claimType","type":"uint8","internalType":"enum ClaimVault.ClaimType"},{"name":"sourceId","type":"uint256","internalType":"uint256"}],"outputs":[{"name":"","type":"bytes32","internalType":"bytes32"}],"stateMutability":"pure"},{"type":"function","name":"getPlayerClaimKeys","inputs":[{"name":"player","type":"address","internalType":"address"}],"outputs":[{"name":"","type":"bytes32[]","internalType":"bytes32[]"}],"stateMutability":"view"},{"type":"function","name":"getRoleAdmin","inputs":[{"name":"role","type":"bytes32","internalType":"bytes32"}],"outputs":[{"name":"","type":"bytes32","internalType":"bytes32"}],"stateMutability":"view"},{"type":"function","name":"grantProtocolRole","inputs":[{"name":"role","type":"bytes32","internalType":"bytes32"},{"name":"account","type":"address","internalType":"address"}],"outputs":[],"stateMutability":"nonpayable"},{"type":"function","name":"grantRole","inputs":[{"name":"role","type":"bytes32","internalType":"bytes32"},{"name":"account","type":"address","internalType":"address"}],"outputs":[],"stateMutability":"nonpayable"},{"type":"function","name":"hasRole","inputs":[{"name":"role","type":"bytes32","internalType":"bytes32"},{"name":"account","type":"address","internalType":"address"}],"outputs":[{"name":"","type":"bool","internalType":"bool"}],"stateMutability":"view"},{"type":"function","name":"pauseProtocol","inputs":[],"outputs":[],"stateMutability":"nonpayable"},{"type":"function","name":"paused","inputs":[],"outputs":[{"name":"","type":"bool","internalType":"bool"}],"stateMutability":"view"},{"type":"function","name":"recordClaim","inputs":[{"name":"player","type":"address","internalType":"address"},{"name":"claimType","type":"uint8","internalType":"enum ClaimVault.ClaimType"},{"name":"sourceId","type":"uint256","internalType":"uint256"},{"name":"amount","type":"uint256","internalType":"uint256"}],"outputs":[{"name":"","type":"bytes32","internalType":"bytes32"}],"stateMutability":"nonpayable"},{"type":"function","name":"recordFallbackRoundPayout","inputs":[{"name":"player","type":"address","internalType":"address"},{"name":"roundId","type":"uint256","internalType":"uint256"},{"name":"amount","type":"uint256","internalType":"uint256"}],"outputs":[{"name":"","type":"bytes32","internalType":"bytes32"}],"stateMutability":"payable"},{"type":"function","name":"recordSeasonReward","inputs":[{"name":"player","type":"address","internalType":"address"},{"name":"seasonId","type":"uint256","internalType":"uint256"},{"name":"amount","type":"uint256","internalType":"uint256"}],"outputs":[{"name":"","type":"bytes32","internalType":"bytes32"}],"stateMutability":"payable"},{"type":"function","name":"renounceRole","inputs":[{"name":"role","type":"bytes32","internalType":"bytes32"},{"name":"callerConfirmation","type":"address","internalType":"address"}],"outputs":[],"stateMutability":"nonpayable"},{"type":"function","name":"revokeProtocolRole","inputs":[{"name":"role","type":"bytes32","internalType":"bytes32"},{"name":"account","type":"address","internalType":"address"}],"outputs":[],"stateMutability":"nonpayable"},{"type":"function","name":"revokeRole","inputs":[{"name":"role","type":"bytes32","internalType":"bytes32"},{"name":"account","type":"address","internalType":"address"}],"outputs":[],"stateMutability":"nonpayable"},{"type":"function","name":"setAuthorizedRoundRoom","inputs":[{"name":"roundRoom","type":"address","internalType":"address"},{"name":"authorized","type":"bool","internalType":"bool"}],"outputs":[],"stateMutability":"nonpayable"},{"type":"function","name":"setAuthorizedSeasonVault","inputs":[{"name":"seasonVault","type":"address","internalType":"address"},{"name":"authorized","type":"bool","internalType":"bool"}],"outputs":[],"stateMutability":"nonpayable"},{"type":"function","name":"supportsInterface","inputs":[{"name":"interfaceId","type":"bytes4","internalType":"bytes4"}],"outputs":[{"name":"","type":"bool","internalType":"bool"}],"stateMutability":"view"},{"type":"function","name":"totalClaimableFor","inputs":[{"name":"player","type":"address","internalType":"address"}],"outputs":[{"name":"total","type":"uint256","internalType":"uint256"}],"stateMutability":"view"},{"type":"function","name":"unpauseProtocol","inputs":[],"outputs":[],"stateMutability":"nonpayable"},{"type":"event","name":"ClaimAll","inputs":[{"name":"player","type":"address","indexed":true,"internalType":"address"},{"name":"totalAmount","type":"uint256","indexed":false,"internalType":"uint256"},{"name":"claimedCount","type":"uint256","indexed":false,"internalType":"uint256"}],"anonymous":false},{"type":"event","name":"ClaimRecorded","inputs":[{"name":"player","type":"address","indexed":true,"internalType":"address"},{"name":"claimType","type":"uint8","indexed":true,"internalType":"uint8"},{"name":"sourceId","type":"uint256","indexed":true,"internalType":"uint256"},{"name":"amount","type":"uint256","indexed":false,"internalType":"uint256"}],"anonymous":false},{"type":"event","name":"Claimed","inputs":[{"name":"player","type":"address","indexed":true,"internalType":"address"},{"name":"totalAmount","type":"uint256","indexed":false,"internalType":"uint256"},{"name":"claimedCount","type":"uint256","indexed":false,"internalType":"uint256"}],"anonymous":false},{"type":"event","name":"Paused","inputs":[{"name":"account","type":"address","indexed":false,"internalType":"address"}],"anonymous":false},{"type":"event","name":"ProtocolRoleGranted","inputs":[{"name":"role","type":"bytes32","indexed":true,"internalType":"bytes32"},{"name":"account","type":"address","indexed":true,"internalType":"address"},{"name":"sender","type":"address","indexed":true,"internalType":"address"}],"anonymous":false},{"type":"event","name":"ProtocolRoleRevoked","inputs":[{"name":"role","type":"bytes32","indexed":true,"internalType":"bytes32"},{"name":"account","type":"address","indexed":true,"internalType":"address"},{"name":"sender","type":"address","indexed":true,"internalType":"address"}],"anonymous":false},{"type":"event","name":"RoleAdminChanged","inputs":[{"name":"role","type":"bytes32","indexed":true,"internalType":"bytes32"},{"name":"previousAdminRole","type":"bytes32","indexed":true,"internalType":"bytes32"},{"name":"newAdminRole","type":"bytes32","indexed":true,"internalType":"bytes32"}],"anonymous":false},{"type":"event","name":"RoleGranted","inputs":[{"name":"role","type":"bytes32","indexed":true,"internalType":"bytes32"},{"name":"account","type":"address","indexed":true,"internalType":"address"},{"name":"sender","type":"address","indexed":true,"internalType":"address"}],"anonymous":false},{"type":"event","name":"RoleRevoked","inputs":[{"name":"role","type":"bytes32","indexed":true,"internalType":"bytes32"},{"name":"account","type":"address","indexed":true,"internalType":"address"},{"name":"sender","type":"address","indexed":true,"internalType":"address"}],"anonymous":false},{"type":"event","name":"RoundRoomAuthorizationUpdated","inputs":[{"name":"roundRoom","type":"address","indexed":true,"internalType":"address"},{"name":"authorized","type":"bool","indexed":false,"internalType":"bool"}],"anonymous":false},{"type":"event","name":"SeasonVaultAuthorizationUpdated","inputs":[{"name":"seasonVault","type":"address","indexed":true,"internalType":"address"},{"name":"authorized","type":"bool","indexed":false,"internalType":"bool"}],"anonymous":false},{"type":"event","name":"Unpaused","inputs":[{"name":"account","type":"address","indexed":false,"internalType":"address"}],"anonymous":false},{"type":"error","name":"AccessControlBadConfirmation","inputs":[]},{"type":"error","name":"AccessControlUnauthorizedAccount","inputs":[{"name":"account","type":"address","internalType":"address"},{"name":"neededRole","type":"bytes32","internalType":"bytes32"}]},{"type":"error","name":"ClaimAlreadyClaimed","inputs":[{"name":"claimKey","type":"bytes32","internalType":"bytes32"}]},{"type":"error","name":"ClaimAlreadyFinalized","inputs":[{"name":"claimKey","type":"bytes32","internalType":"bytes32"}]},{"type":"error","name":"ClaimNotOwned","inputs":[{"name":"claimKey","type":"bytes32","internalType":"bytes32"}]},{"type":"error","name":"ClaimTransferFailed","inputs":[]},{"type":"error","name":"EmptyClaimKeys","inputs":[]},{"type":"error","name":"EnforcedPause","inputs":[]},{"type":"error","name":"ExpectedPause","inputs":[]},{"type":"error","name":"InvalidClaimAmount","inputs":[{"name":"claimKey","type":"bytes32","internalType":"bytes32"}]},{"type":"error","name":"InvalidClaimInput","inputs":[]},{"type":"error","name":"InvalidFundedAmount","inputs":[]},{"type":"error","name":"NoClaimableRecords","inputs":[]},{"type":"error","name":"ReentrancyGuardReentrantCall","inputs":[]},{"type":"error","name":"UnauthorizedClaimRecorder","inputs":[]},{"type":"error","name":"ZeroAddress","inputs":[]}],"bytecode":{"object":"0x608060405234801562000010575f80fd5b5060405162002b6e38038062002b6e833981810160405281019062000036919062000311565b805f73ffffffffffffffffffffffffffffffffffffffff168173ffffffffffffffffffffffffffffffffffffffff16036200009d576040517fd92e233d00000000000000000000000000000000000000000000000000000000815260040160405180910390fd5b620000b15f801b826200011560201b60201c565b50620000e47fb19546dff01e856fb3f010c267a7b1c60363cf8a4664e21cc89c26224620214e826200011560201b60201c565b5050600162000108620000fc6200021060201b60201c565b6200023960201b60201c565b5f01819055505062000341565b5f6200012883836200024260201b60201c565b620002065760015f808581526020019081526020015f205f015f8473ffffffffffffffffffffffffffffffffffffffff1673ffffffffffffffffffffffffffffffffffffffff1681526020019081526020015f205f6101000a81548160ff021916908315150217905550620001a2620002a560201b60201c565b73ffffffffffffffffffffffffffffffffffffffff168273ffffffffffffffffffffffffffffffffffffffff16847f2f8788117e7eff1d82e926ec794901d17c78024a50270940304540a733656f0d60405160405180910390a4600190506200020a565b5f90505b92915050565b5f7f9b779b17422d0df92223018b32b4d1fa46e071723d6817e2486d003becc55f005f1b905090565b5f819050919050565b5f805f8481526020019081526020015f205f015f8373ffffffffffffffffffffffffffffffffffffffff1673ffffffffffffffffffffffffffffffffffffffff1681526020019081526020015f205f9054906101000a900460ff16905092915050565b5f33905090565b5f80fd5b5f73ffffffffffffffffffffffffffffffffffffffff82169050919050565b5f620002db82620002b0565b9050919050565b620002ed81620002cf565b8114620002f8575f80fd5b50565b5f815190506200030b81620002e2565b92915050565b5f60208284031215620003295762000328620002ac565b5b5f6200033884828501620002fb565b91505092915050565b61281f806200034f5f395ff3fe6080604052600436106101cc575f3560e01c8063a217fddf116100f6578063d97f3dcf11610094578063eccc541e11610063578063eccc541e146106a9578063f34dd2eb146106d1578063f8a6b3731461070d578063f93b6be514610749576101cc565b8063d97f3dcf1461060f578063dbf6248914610639578063e4d2c53c1461064f578063e58378bb1461067f576101cc565b8063a8dfd213116100d0578063a8dfd21314610544578063b391c50814610580578063d1058e59146105bc578063d547741f146105e7576101cc565b8063a217fddf146104ca578063a5f4642c146104f4578063a6b67c3a1461051c576101cc565b8063377ef50c1161016e578063765349f31161013d578063765349f31461040a57806389674f9f1461043a5780638eebb0fd1461046457806391d148541461048e576101cc565b8063377ef50c1461033857806345632eb41461037a5780634fb2c7ba146103b65780635c975abb146103e0576101cc565b80632f2ff15d116101aa5780632f2ff15d14610284578063321c9c03146102ac57806335a58736146102e857806336568abe14610310576101cc565b8063012fb54f146101d057806301ffc9a71461020c578063248a9ca314610248575b5f80fd5b3480156101db575f80fd5b506101f660048036038101906101f191906120d7565b61075f565b604051610203919061213f565b60405180910390f35b348015610217575f80fd5b50610232600480360381019061022d91906121ad565b610794565b60405161023f91906121f2565b60405180910390f35b348015610253575f80fd5b5061026e60048036038101906102699190612235565b61080d565b60405161027b919061213f565b60405180910390f35b34801561028f575f80fd5b506102aa60048036038101906102a59190612260565b610829565b005b3480156102b7575f80fd5b506102d260048036038101906102cd919061229e565b61084b565b6040516102df9190612380565b60405180910390f35b3480156102f3575f80fd5b5061030e60048036038101906103099190612260565b6108de565b005b34801561031b575f80fd5b5061033660048036038101906103319190612260565b610973565b005b348015610343575f80fd5b5061035e60048036038101906103599190612235565b6109ee565b6040516103719796959493929190612431565b60405180910390f35b348015610385575f80fd5b506103a0600480360381019061039b919061249e565b610a63565b6040516103ad919061213f565b60405180910390f35b3480156103c1575f80fd5b506103ca610aad565b6040516103d7919061213f565b60405180910390f35b3480156103eb575f80fd5b506103f4610ad1565b60405161040191906121f2565b60405180910390f35b610424600480360381019061041f9190612502565b610ae6565b604051610431919061213f565b60405180910390f35b348015610445575f80fd5b5061044e610bfe565b60405161045b919061213f565b60405180910390f35b34801561046f575f80fd5b50610478610c22565b604051610485919061213f565b60405180910390f35b348015610499575f80fd5b506104b460048036038101906104af9190612260565b610c46565b6040516104c191906121f2565b60405180910390f35b3480156104d5575f80fd5b506104de610ca9565b6040516104eb919061213f565b60405180910390f35b3480156104ff575f80fd5b5061051a6004803603810190610515919061257c565b610caf565b005b348015610527575f80fd5b50610542600480360381019061053d919061257c565b610d80565b005b34801561054f575f80fd5b5061056a6004803603810190610565919061229e565b610e51565b60405161057791906121f2565b60405180910390f35b34801561058b575f80fd5b506105a660048036038101906105a1919061261b565b610e6e565b6040516105b39190612666565b60405180910390f35b3480156105c7575f80fd5b506105d06111b6565b6040516105de92919061267f565b60405180910390f35b3480156105f2575f80fd5b5061060d60048036038101906106089190612260565b611400565b005b34801561061a575f80fd5b50610623611422565b604051610630919061213f565b60405180910390f35b348015610644575f80fd5b5061064d611446565b005b61066960048036038101906106649190612502565b61147b565b604051610676919061213f565b60405180910390f35b34801561068a575f80fd5b50610693611594565b6040516106a0919061213f565b60405180910390f35b3480156106b4575f80fd5b506106cf60048036038101906106ca9190612260565b6115b8565b005b3480156106dc575f80fd5b506106f760048036038101906106f2919061229e565b61164d565b6040516107049190612666565b60405180910390f35b348015610718575f80fd5b50610733600480360381019061072e919061229e565b611708565b60405161074091906121f2565b60405180910390f35b348015610754575f80fd5b5061075d611725565b005b5f838383604051602001610775939291906126a6565b6040516020818303038152906040528051906020012090509392505050565b5f7f7965db0b000000000000000000000000000000000000000000000000000000007bffffffffffffffffffffffffffffffffffffffffffffffffffffffff1916827bffffffffffffffffffffffffffffffffffffffffffffffffffffffff1916148061080657506108058261175a565b5b9050919050565b5f805f8381526020019081526020015f20600101549050919050565b6108328261080d565b61083b816117c3565b61084583836117d7565b50505050565b606060055f8373ffffffffffffffffffffffffffffffffffffffff1673ffffffffffffffffffffffffffffffffffffffff1681526020019081526020015f208054806020026020016040519081016040528092919081815260200182805480156108d257602002820191905f5260205f20905b8154815260200190600101908083116108be575b50505050509050919050565b7fb19546dff01e856fb3f010c267a7b1c60363cf8a4664e21cc89c26224620214e610908816117c3565b61091283836117d7565b503373ffffffffffffffffffffffffffffffffffffffff168273ffffffffffffffffffffffffffffffffffffffff16847fb753ecc47a2f500309a6cf640700ac2f460fc47f20b4547adf42246adaa94c2160405160405180910390a4505050565b61097b6118c0565b73ffffffffffffffffffffffffffffffffffffffff168173ffffffffffffffffffffffffffffffffffffffff16146109df576040517f6697b23200000000000000000000000000000000000000000000000000000000815260040160405180910390fd5b6109e982826118c7565b505050565b6002602052805f5260405f205f91509050805f015f9054906101000a900473ffffffffffffffffffffffffffffffffffffffff1690805f0160149054906101000a900460ff1690806001015490806002015490806003015f9054906101000a900460ff16908060040154908060050154905087565b5f7f36dc7495d0ae0bc2a620bf292049e4d4e5f800043895b13c08a1977d3a3297f5610a8e816117c3565b610a966119b0565b610aa2868686866119f1565b915050949350505050565b7f98fa57671cf1c7b6c196c1230a2fc2d27625561c0bad9106de2d1db003a57e8781565b5f60015f9054906101000a900460ff16905090565b5f610aef6119b0565b60035f3373ffffffffffffffffffffffffffffffffffffffff1673ffffffffffffffffffffffffffffffffffffffff1681526020019081526020015f205f9054906101000a900460ff16158015610b6d5750610b6b7f36dc7495d0ae0bc2a620bf292049e4d4e5f800043895b13c08a1977d3a3297f533610c46565b155b15610ba4576040517f57afc87000000000000000000000000000000000000000000000000000000000815260040160405180910390fd5b8134141580610bb257505f82145b15610be9576040517f0624b0b200000000000000000000000000000000000000000000000000000000815260040160405180910390fd5b610bf5845f85856119f1565b90509392505050565b7fe5f3d29fbf8cd4b379b5a8ec1437261892bf01e7d129556690f84cf7a11d2c4d81565b7f36dc7495d0ae0bc2a620bf292049e4d4e5f800043895b13c08a1977d3a3297f581565b5f805f8481526020019081526020015f205f015f8373ffffffffffffffffffffffffffffffffffffffff1673ffffffffffffffffffffffffffffffffffffffff1681526020019081526020015f205f9054906101000a900460ff16905092915050565b5f801b81565b7fb19546dff01e856fb3f010c267a7b1c60363cf8a4664e21cc89c26224620214e610cd9816117c3565b8160035f8573ffffffffffffffffffffffffffffffffffffffff1673ffffffffffffffffffffffffffffffffffffffff1681526020019081526020015f205f6101000a81548160ff0219169083151502179055508273ffffffffffffffffffffffffffffffffffffffff167fa1c99702d007b66c4786852fcbbddeb0f0bd442865ff4392f0e08fa30635951783604051610d7391906121f2565b60405180910390a2505050565b7fb19546dff01e856fb3f010c267a7b1c60363cf8a4664e21cc89c26224620214e610daa816117c3565b8160045f8573ffffffffffffffffffffffffffffffffffffffff1673ffffffffffffffffffffffffffffffffffffffff1681526020019081526020015f205f6101000a81548160ff0219169083151502179055508273ffffffffffffffffffffffffffffffffffffffff167f907a856518d8bace3b66d30366a66fd4dcb9a94b744f320bd5b1a958992dd23083604051610e4491906121f2565b60405180910390a2505050565b6003602052805f5260405f205f915054906101000a900460ff1681565b5f610e77611e01565b610e7f6119b0565b5f8383905003610ebb576040517f671dd29800000000000000000000000000000000000000000000000000000000815260040160405180910390fd5b5f8383905090505f5b8181101561104b575f858583818110610ee057610edf6126db565b5b9050602002013590505f60025f8381526020019081526020015f2090503373ffffffffffffffffffffffffffffffffffffffff16815f015f9054906101000a900473ffffffffffffffffffffffffffffffffffffffff1673ffffffffffffffffffffffffffffffffffffffff1614610f8f57816040517fb1dda189000000000000000000000000000000000000000000000000000000008152600401610f86919061213f565b60405180910390fd5b806003015f9054906101000a900460ff1615610fe257816040517f30635cf1000000000000000000000000000000000000000000000000000000008152600401610fd9919061213f565b60405180910390fd5b5f81600201540361102a57816040517fe4be4011000000000000000000000000000000000000000000000000000000008152600401611021919061213f565b60405180910390fd5b80600201548561103a9190612735565b945050508080600101915050610ec4565b505f5b818110156110b6575f60025f87878581811061106d5761106c6126db565b5b9050602002013581526020019081526020015f2090506001816003015f6101000a81548160ff02191690831515021790555042816005018190555050808060010191505061104e565b505f3373ffffffffffffffffffffffffffffffffffffffff16836040516110dc90612795565b5f6040518083038185875af1925050503d805f8114611116576040519150601f19603f3d011682016040523d82523d5f602084013e61111b565b606091505b5050905080611156576040517f7022d24a00000000000000000000000000000000000000000000000000000000815260040160405180910390fd5b3373ffffffffffffffffffffffffffffffffffffffff167f987d620f307ff6b94d58743cb7a7509f24071586a77759b77c2d4e29f75a2f9a848460405161119e92919061267f565b60405180910390a250506111b0611e23565b92915050565b5f806111c0611e01565b6111c86119b0565b5f60055f3373ffffffffffffffffffffffffffffffffffffffff1673ffffffffffffffffffffffffffffffffffffffff1681526020019081526020015f2090505f818054905090505f5b818110156112c8575f60025f858481548110611231576112306126db565b5b905f5260205f20015481526020019081526020015f209050806003015f9054906101000a900460ff168061126857505f8160020154145b1561127357506112bb565b8060020154866112839190612735565b95506001856112929190612735565b94506001816003015f6101000a81548160ff021916908315150217905550428160050181905550505b8080600101915050611212565b505f8303611302576040517fc8ac3f8100000000000000000000000000000000000000000000000000000000815260040160405180910390fd5b5f3373ffffffffffffffffffffffffffffffffffffffff168560405161132790612795565b5f6040518083038185875af1925050503d805f8114611361576040519150601f19603f3d011682016040523d82523d5f602084013e611366565b606091505b50509050806113a1576040517f7022d24a00000000000000000000000000000000000000000000000000000000815260040160405180910390fd5b3373ffffffffffffffffffffffffffffffffffffffff167fe5b519eccad60ea5af710c9c7792f84934cb83d5c13f3cf5cfc68432d56882c286866040516113e992919061267f565b60405180910390a25050506113fc611e23565b9091565b6114098261080d565b611412816117c3565b61141c83836118c7565b50505050565b7f082924f4e2f064ae6e08775a33c5bf0ed13092f3142e2c4280c29cce98ed69b781565b7fb19546dff01e856fb3f010c267a7b1c60363cf8a4664e21cc89c26224620214e611470816117c3565b611478611e3d565b50565b5f6114846119b0565b60045f3373ffffffffffffffffffffffffffffffffffffffff1673ffffffffffffffffffffffffffffffffffffffff1681526020019081526020015f205f9054906101000a900460ff1615801561150257506115007f36dc7495d0ae0bc2a620bf292049e4d4e5f800043895b13c08a1977d3a3297f533610c46565b155b15611539576040517f57afc87000000000000000000000000000000000000000000000000000000000815260040160405180910390fd5b813414158061154757505f82145b1561157e576040517f0624b0b200000000000000000000000000000000000000000000000000000000815260040160405180910390fd5b61158b84600185856119f1565b90509392505050565b7fb19546dff01e856fb3f010c267a7b1c60363cf8a4664e21cc89c26224620214e81565b7fb19546dff01e856fb3f010c267a7b1c60363cf8a4664e21cc89c26224620214e6115e2816117c3565b6115ec83836118c7565b503373ffffffffffffffffffffffffffffffffffffffff168273ffffffffffffffffffffffffffffffffffffffff16847f27f5a0ed9f37f001a3486a5f7ce66cb2e5e4083603248958917cb0c1285e056b60405160405180910390a4505050565b5f8060055f8473ffffffffffffffffffffffffffffffffffffffff1673ffffffffffffffffffffffffffffffffffffffff1681526020019081526020015f2090505f5b8180549050811015611701575f60025f8484815481106116b3576116b26126db565b5b905f5260205f20015481526020019081526020015f209050806003015f9054906101000a900460ff166116f3578060020154846116f09190612735565b93505b508080600101915050611690565b5050919050565b6004602052805f5260405f205f915054906101000a900460ff1681565b7fb19546dff01e856fb3f010c267a7b1c60363cf8a4664e21cc89c26224620214e61174f816117c3565b611757611e9e565b50565b5f7f01ffc9a7000000000000000000000000000000000000000000000000000000007bffffffffffffffffffffffffffffffffffffffffffffffffffffffff1916827bffffffffffffffffffffffffffffffffffffffffffffffffffffffff1916149050919050565b6117d4816117cf6118c0565b611eff565b50565b5f6117e28383610c46565b6118b65760015f808581526020019081526020015f205f015f8473ffffffffffffffffffffffffffffffffffffffff1673ffffffffffffffffffffffffffffffffffffffff1681526020019081526020015f205f6101000a81548160ff0219169083151502179055506118536118c0565b73ffffffffffffffffffffffffffffffffffffffff168273ffffffffffffffffffffffffffffffffffffffff16847f2f8788117e7eff1d82e926ec794901d17c78024a50270940304540a733656f0d60405160405180910390a4600190506118ba565b5f90505b92915050565b5f33905090565b5f6118d28383610c46565b156119a6575f805f8581526020019081526020015f205f015f8473ffffffffffffffffffffffffffffffffffffffff1673ffffffffffffffffffffffffffffffffffffffff1681526020019081526020015f205f6101000a81548160ff0219169083151502179055506119436118c0565b73ffffffffffffffffffffffffffffffffffffffff168273ffffffffffffffffffffffffffffffffffffffff16847ff6391f5c32d9c69d2a47ea670b442974b53935d1edc7fd64eb21e047a839171b60405160405180910390a4600190506119aa565b5f90505b92915050565b6119b8610ad1565b156119ef576040517fd93c066500000000000000000000000000000000000000000000000000000000815260040160405180910390fd5b565b5f8073ffffffffffffffffffffffffffffffffffffffff168573ffffffffffffffffffffffffffffffffffffffff161480611a2b57505f83145b80611a3557505f82145b15611a6c576040517f0a30943100000000000000000000000000000000000000000000000000000000815260040160405180910390fd5b611a7785858561075f565b90505f60025f8381526020019081526020015f2090505f73ffffffffffffffffffffffffffffffffffffffff16815f015f9054906101000a900473ffffffffffffffffffffffffffffffffffffffff1673ffffffffffffffffffffffffffffffffffffffff1603611d25576040518060e001604052808773ffffffffffffffffffffffffffffffffffffffff168152602001866001811115611b1c57611b1b6123af565b5b81526020018581526020018481526020015f151581526020014281526020015f81525060025f8481526020019081526020015f205f820151815f015f6101000a81548173ffffffffffffffffffffffffffffffffffffffff021916908373ffffffffffffffffffffffffffffffffffffffff1602179055506020820151815f0160146101000a81548160ff02191690836001811115611bbe57611bbd6123af565b5b021790555060408201518160010155606082015181600201556080820151816003015f6101000a81548160ff02191690831515021790555060a0820151816004015560c0820151816005015590505060065f8381526020019081526020015f205f9054906101000a900460ff16611cba57600160065f8481526020019081526020015f205f6101000a81548160ff02191690831515021790555060055f8773ffffffffffffffffffffffffffffffffffffffff1673ffffffffffffffffffffffffffffffffffffffff1681526020019081526020015f2082908060018154018082558091505060019003905f5260205f20015f90919091909150555b83856001811115611cce57611ccd6123af565b5b60ff168773ffffffffffffffffffffffffffffffffffffffff167fdf6054a9d74a7c33f2c49f46430ffdc1c60dd252430c6fb55897691bcc17911e86604051611d179190612666565b60405180910390a450611df9565b806003015f9054906101000a900460ff1615611d7857816040517f27ab3dda000000000000000000000000000000000000000000000000000000008152600401611d6f919061213f565b60405180910390fd5b82816002015f828254611d8b9190612735565b9250508190555083856001811115611da657611da56123af565b5b60ff168773ffffffffffffffffffffffffffffffffffffffff167fdf6054a9d74a7c33f2c49f46430ffdc1c60dd252430c6fb55897691bcc17911e86604051611def9190612666565b60405180910390a4505b949350505050565b611e09611f50565b6002611e1b611e16611f91565b611fba565b5f0181905550565b6001611e35611e30611f91565b611fba565b5f0181905550565b611e456119b0565b6001805f6101000a81548160ff0219169083151502179055507f62e78cea01bee320cd4e420270b5ea74000d11b0c9f74754ebdbfc544b05a258611e876118c0565b604051611e9491906127a9565b60405180910390a1565b611ea6611fc3565b5f60015f6101000a81548160ff0219169083151502179055507f5db9ee0a495bf2e6ff9c91a7834c1ba4fdd244a5e8aa4e537bd38aeae4b073aa611ee86118c0565b604051611ef591906127a9565b60405180910390a1565b611f098282610c46565b611f4c5780826040517fe2517d3f000000000000000000000000000000000000000000000000000000008152600401611f439291906127c2565b60405180910390fd5b5050565b611f58612003565b15611f8f576040517f3ee5aeb500000000000000000000000000000000000000000000000000000000815260040160405180910390fd5b565b5f7f9b779b17422d0df92223018b32b4d1fa46e071723d6817e2486d003becc55f005f1b905090565b5f819050919050565b611fcb610ad1565b612001576040517f8dfc202b00000000000000000000000000000000000000000000000000000000815260040160405180910390fd5b565b5f6002612016612011611f91565b611fba565b5f015414905090565b5f80fd5b5f80fd5b5f73ffffffffffffffffffffffffffffffffffffffff82169050919050565b5f61205082612027565b9050919050565b61206081612046565b811461206a575f80fd5b50565b5f8135905061207b81612057565b92915050565b6002811061208d575f80fd5b50565b5f8135905061209e81612081565b92915050565b5f819050919050565b6120b6816120a4565b81146120c0575f80fd5b50565b5f813590506120d1816120ad565b92915050565b5f805f606084860312156120ee576120ed61201f565b5b5f6120fb8682870161206d565b935050602061210c86828701612090565b925050604061211d868287016120c3565b9150509250925092565b5f819050919050565b61213981612127565b82525050565b5f6020820190506121525f830184612130565b92915050565b5f7fffffffff0000000000000000000000000000000000000000000000000000000082169050919050565b61218c81612158565b8114612196575f80fd5b50565b5f813590506121a781612183565b92915050565b5f602082840312156121c2576121c161201f565b5b5f6121cf84828501612199565b91505092915050565b5f8115159050919050565b6121ec816121d8565b82525050565b5f6020820190506122055f8301846121e3565b92915050565b61221481612127565b811461221e575f80fd5b50565b5f8135905061222f8161220b565b92915050565b5f6020828403121561224a5761224961201f565b5b5f61225784828501612221565b91505092915050565b5f80604083850312156122765761227561201f565b5b5f61228385828601612221565b92505060206122948582860161206d565b9150509250929050565b5f602082840312156122b3576122b261201f565b5b5f6122c08482850161206d565b91505092915050565b5f81519050919050565b5f82825260208201905092915050565b5f819050602082019050919050565b6122fb81612127565b82525050565b5f61230c83836122f2565b60208301905092915050565b5f602082019050919050565b5f61232e826122c9565b61233881856122d3565b9350612343836122e3565b805f5b8381101561237357815161235a8882612301565b975061236583612318565b925050600181019050612346565b5085935050505092915050565b5f6020820190508181035f8301526123988184612324565b905092915050565b6123a981612046565b82525050565b7f4e487b71000000000000000000000000000000000000000000000000000000005f52602160045260245ffd5b600281106123ed576123ec6123af565b5b50565b5f8190506123fd826123dc565b919050565b5f61240c826123f0565b9050919050565b61241c81612402565b82525050565b61242b816120a4565b82525050565b5f60e0820190506124445f83018a6123a0565b6124516020830189612413565b61245e6040830188612422565b61246b6060830187612422565b61247860808301866121e3565b61248560a0830185612422565b61249260c0830184612422565b98975050505050505050565b5f805f80608085870312156124b6576124b561201f565b5b5f6124c38782880161206d565b94505060206124d487828801612090565b93505060406124e5878288016120c3565b92505060606124f6878288016120c3565b91505092959194509250565b5f805f606084860312156125195761251861201f565b5b5f6125268682870161206d565b9350506020612537868287016120c3565b9250506040612548868287016120c3565b9150509250925092565b61255b816121d8565b8114612565575f80fd5b50565b5f8135905061257681612552565b92915050565b5f80604083850312156125925761259161201f565b5b5f61259f8582860161206d565b92505060206125b085828601612568565b9150509250929050565b5f80fd5b5f80fd5b5f80fd5b5f8083601f8401126125db576125da6125ba565b5b8235905067ffffffffffffffff8111156125f8576125f76125be565b5b602083019150836020820283011115612614576126136125c2565b5b9250929050565b5f80602083850312156126315761263061201f565b5b5f83013567ffffffffffffffff81111561264e5761264d612023565b5b61265a858286016125c6565b92509250509250929050565b5f6020820190506126795f830184612422565b92915050565b5f6040820190506126925f830185612422565b61269f6020830184612422565b9392505050565b5f6060820190506126b95f8301866123a0565b6126c66020830185612413565b6126d36040830184612422565b949350505050565b7f4e487b71000000000000000000000000000000000000000000000000000000005f52603260045260245ffd5b7f4e487b71000000000000000000000000000000000000000000000000000000005f52601160045260245ffd5b5f61273f826120a4565b915061274a836120a4565b925082820190508082111561276257612761612708565b5b92915050565b5f81905092915050565b50565b5f6127805f83612768565b915061278b82612772565b5f82019050919050565b5f61279f82612775565b9150819050919050565b5f6020820190506127bc5f8301846123a0565b92915050565b5f6040820190506127d55f8301856123a0565b6127e26020830184612130565b939250505056fea264697066735822122097c001a3e1f5a9ab87bcd2f44e924ebf2edb45461225c69ab80c1c027cabe27764736f6c63430008180033","linkReferences":{}},"methodIdentifiers":{"CLAIM_OPERATOR_ROLE()":"8eebb0fd","DEFAULT_ADMIN_ROLE()":"a217fddf","OWNER_ROLE()":"e58378bb","ROUND_OPERATOR_ROLE()":"d97f3dcf","SEASON_OPERATOR_ROLE()":"4fb2c7ba","SETTLEMENT_OPERATOR_ROLE()":"89674f9f","authorizedRoundRooms(address)":"a8dfd213","authorizedSeasonVaults(address)":"f8a6b373","claim(bytes32[])":"b391c508","claimAll()":"d1058e59","claimRecords(bytes32)":"377ef50c","getClaimKey(address,uint8,uint256)":"012fb54f","getPlayerClaimKeys(address)":"321c9c03","getRoleAdmin(bytes32)":"248a9ca3","grantProtocolRole(bytes32,address)":"35a58736","grantRole(bytes32,address)":"2f2ff15d","hasRole(bytes32,address)":"91d14854","pauseProtocol()":"dbf62489","paused()":"5c975abb","recordClaim(address,uint8,uint256,uint256)":"45632eb4","recordFallbackRoundPayout(address,uint256,uint256)":"765349f3","recordSeasonReward(address,uint256,uint256)":"e4d2c53c","renounceRole(bytes32,address)":"36568abe","revokeProtocolRole(bytes32,address)":"eccc541e","revokeRole(bytes32,address)":"d547741f","setAuthorizedRoundRoom(address,bool)":"a5f4642c","setAuthorizedSeasonVault(address,bool)":"a6b67c3a","supportsInterface(bytes4)":"01ffc9a7","totalClaimableFor(address)":"f34dd2eb","unpauseProtocol()":"f93b6be5"},"id":39}