{"abi":[{"type":"constructor","inputs":[{"name":"owner_","type":"address","internalType":"address"}],"stateMutability":"nonpayable"},{"type":"function","name":"CLAIM_OPERATOR_ROLE","inputs":[],"outputs":[{"name":"","type":"bytes32","internalType":"bytes32"}],"stateMutability":"view"},{"type":"function","name":"DEFAULT_ADMIN_ROLE","inputs":[],"outputs":[{"name":"","type":"bytes32","internalType":"bytes32"}],"stateMutability":"view"},{"type":"function","name":"OWNER_ROLE","inputs":[],"outputs":[{"name":"","type":"bytes32","internalType":"bytes32"}],"stateMutability":"view"},{"type":"function","name":"ROUND_OPERATOR_ROLE","inputs":[],"outputs":[{"name":"","type":"bytes32","internalType":"bytes32"}],"stateMutability":"view"},{"type":"function","name":"SEASON_OPERATOR_ROLE","inputs":[],"outputs":[{"name":"","type":"bytes32","internalType":"bytes32"}],"stateMutability":"view"},{"type":"function","name":"SETTLEMENT_OPERATOR_ROLE","inputs":[],"outputs":[{"name":"","type":"bytes32","internalType":"bytes32"}],"stateMutability":"view"},{"type":"function","name":"assignSeasonRewards","inputs":[{"name":"seasonId","type":"uint256","internalType":"uint256"},{"name":"players","type":"address[]","internalType":"address[]"},{"name":"totalKills","type":"uint256[]","internalType":"uint256[]"}],"outputs":[],"stateMutability":"nonpayable"},{"type":"function","name":"assignedRewards","inputs":[{"name":"seasonId","type":"uint256","internalType":"uint256"},{"name":"player","type":"address","internalType":"address"}],"outputs":[{"name":"reward","type":"uint256","internalType":"uint256"}],"stateMutability":"view"},{"type":"function","name":"authorizedRoundRooms","inputs":[{"name":"room","type":"address","internalType":"address"}],"outputs":[{"name":"authorized","type":"bool","internalType":"bool"}],"stateMutability":"view"},{"type":"function","name":"claimVault","inputs":[],"outputs":[{"name":"","type":"address","internalType":"address"}],"stateMutability":"view"},{"type":"function","name":"configureSeason","inputs":[{"name":"seasonId","type":"uint256","internalType":"uint256"},{"name":"qualificationThreshold","type":"uint256","internalType":"uint256"}],"outputs":[],"stateMutability":"nonpayable"},{"type":"function","name":"getRoleAdmin","inputs":[{"name":"role","type":"bytes32","internalType":"bytes32"}],"outputs":[{"name":"","type":"bytes32","internalType":"bytes32"}],"stateMutability":"view"},{"type":"function","name":"getSeasonBalance","inputs":[{"name":"seasonId","type":"uint256","internalType":"uint256"}],"outputs":[{"name":"","type":"uint256","internalType":"uint256"}],"stateMutability":"view"},{"type":"function","name":"grantProtocolRole","inputs":[{"name":"role","type":"bytes32","internalType":"bytes32"},{"name":"account","type":"address","internalType":"address"}],"outputs":[],"stateMutability":"nonpayable"},{"type":"function","name":"grantRole","inputs":[{"name":"role","type":"bytes32","internalType":"bytes32"},{"name":"account","type":"address","internalType":"address"}],"outputs":[],"stateMutability":"nonpayable"},{"type":"function","name":"hasRole","inputs":[{"name":"role","type":"bytes32","internalType":"bytes32"},{"name":"account","type":"address","internalType":"address"}],"outputs":[{"name":"","type":"bool","internalType":"bool"}],"stateMutability":"view"},{"type":"function","name":"pauseProtocol","inputs":[],"outputs":[],"stateMutability":"nonpayable"},{"type":"function","name":"paused","inputs":[],"outputs":[{"name":"","type":"bool","internalType":"bool"}],"stateMutability":"view"},{"type":"function","name":"receiveSeasonFee","inputs":[{"name":"seasonId","type":"uint256","internalType":"uint256"}],"outputs":[],"stateMutability":"payable"},{"type":"function","name":"renounceRole","inputs":[{"name":"role","type":"bytes32","internalType":"bytes32"},{"name":"callerConfirmation","type":"address","internalType":"address"}],"outputs":[],"stateMutability":"nonpayable"},{"type":"function","name":"revokeProtocolRole","inputs":[{"name":"role","type":"bytes32","internalType":"bytes32"},{"name":"account","type":"address","internalType":"address"}],"outputs":[],"stateMutability":"nonpayable"},{"type":"function","name":"revokeRole","inputs":[{"name":"role","type":"bytes32","internalType":"bytes32"},{"name":"account","type":"address","internalType":"address"}],"outputs":[],"stateMutability":"nonpayable"},{"type":"function","name":"seasonPoolBalance","inputs":[{"name":"seasonId","type":"uint256","internalType":"uint256"}],"outputs":[{"name":"seasonPoolBalance","type":"uint256","internalType":"uint256"}],"stateMutability":"view"},{"type":"function","name":"seasons","inputs":[{"name":"seasonId","type":"uint256","internalType":"uint256"}],"outputs":[{"name":"poolBalance","type":"uint256","internalType":"uint256"},{"name":"qualificationThreshold","type":"uint256","internalType":"uint256"},{"name":"rewardsAssigned","type":"bool","internalType":"bool"},{"name":"closed","type":"bool","internalType":"bool"}],"stateMutability":"view"},{"type":"function","name":"setAuthorizedRoundRoom","inputs":[{"name":"roundRoom","type":"address","internalType":"address"},{"name":"authorized","type":"bool","internalType":"bool"}],"outputs":[],"stateMutability":"nonpayable"},{"type":"function","name":"setClaimVault","inputs":[{"name":"claimVault_","type":"address","internalType":"address"}],"outputs":[],"stateMutability":"nonpayable"},{"type":"function","name":"setQualificationThreshold","inputs":[{"name":"seasonId","type":"uint256","internalType":"uint256"},{"name":"threshold","type":"uint256","internalType":"uint256"}],"outputs":[],"stateMutability":"nonpayable"},{"type":"function","name":"supportsInterface","inputs":[{"name":"interfaceId","type":"bytes4","internalType":"bytes4"}],"outputs":[{"name":"","type":"bool","internalType":"bool"}],"stateMutability":"view"},{"type":"function","name":"unpauseProtocol","inputs":[],"outputs":[],"stateMutability":"nonpayable"},{"type":"event","name":"ClaimVaultUpdated","inputs":[{"name":"claimVault","type":"address","indexed":true,"internalType":"address"}],"anonymous":false},{"type":"event","name":"Paused","inputs":[{"name":"account","type":"address","indexed":false,"internalType":"address"}],"anonymous":false},{"type":"event","name":"ProtocolRoleGranted","inputs":[{"name":"role","type":"bytes32","indexed":true,"internalType":"bytes32"},{"name":"account","type":"address","indexed":true,"internalType":"address"},{"name":"sender","type":"address","indexed":true,"internalType":"address"}],"anonymous":false},{"type":"event","name":"ProtocolRoleRevoked","inputs":[{"name":"role","type":"bytes32","indexed":true,"internalType":"bytes32"},{"name":"account","type":"address","indexed":true,"internalType":"address"},{"name":"sender","type":"address","indexed":true,"internalType":"address"}],"anonymous":false},{"type":"event","name":"QualificationThresholdUpdated","inputs":[{"name":"seasonId","type":"uint256","indexed":true,"internalType":"uint256"},{"name":"qualificationThreshold","type":"uint256","indexed":false,"internalType":"uint256"}],"anonymous":false},{"type":"event","name":"RoleAdminChanged","inputs":[{"name":"role","type":"bytes32","indexed":true,"internalType":"bytes32"},{"name":"previousAdminRole","type":"bytes32","indexed":true,"internalType":"bytes32"},{"name":"newAdminRole","type":"bytes32","indexed":true,"internalType":"bytes32"}],"anonymous":false},{"type":"event","name":"RoleGranted","inputs":[{"name":"role","type":"bytes32","indexed":true,"internalType":"bytes32"},{"name":"account","type":"address","indexed":true,"internalType":"address"},{"name":"sender","type":"address","indexed":true,"internalType":"address"}],"anonymous":false},{"type":"event","name":"RoleRevoked","inputs":[{"name":"role","type":"bytes32","indexed":true,"internalType":"bytes32"},{"name":"account","type":"address","indexed":true,"internalType":"address"},{"name":"sender","type":"address","indexed":true,"internalType":"address"}],"anonymous":false},{"type":"event","name":"RoundRoomAuthorizationUpdated","inputs":[{"name":"roundRoom","type":"address","indexed":true,"internalType":"address"},{"name":"authorized","type":"bool","indexed":false,"internalType":"bool"}],"anonymous":false},{"type":"event","name":"SeasonConfigured","inputs":[{"name":"seasonId","type":"uint256","indexed":true,"internalType":"uint256"},{"name":"qualificationThreshold","type":"uint256","indexed":false,"internalType":"uint256"}],"anonymous":false},{"type":"event","name":"SeasonFunded","inputs":[{"name":"seasonId","type":"uint256","indexed":true,"internalType":"uint256"},{"name":"amount","type":"uint256","indexed":false,"internalType":"uint256"},{"name":"sender","type":"address","indexed":true,"internalType":"address"}],"anonymous":false},{"type":"event","name":"SeasonRewardEntitlement","inputs":[{"name":"seasonId","type":"uint256","indexed":true,"internalType":"uint256"},{"name":"player","type":"address","indexed":true,"internalType":"address"},{"name":"totalKills","type":"uint256","indexed":false,"internalType":"uint256"},{"name":"rewardAmount","type":"uint256","indexed":false,"internalType":"uint256"}],"anonymous":false},{"type":"event","name":"SeasonRewardsAssigned","inputs":[{"name":"seasonId","type":"uint256","indexed":true,"internalType":"uint256"},{"name":"qualificationThreshold","type":"uint256","indexed":false,"internalType":"uint256"},{"name":"totalValue","type":"uint256","indexed":false,"internalType":"uint256"},{"name":"totalQualifiedKills","type":"uint256","indexed":false,"internalType":"uint256"},{"name":"sumAssigned","type":"uint256","indexed":false,"internalType":"uint256"},{"name":"remainder","type":"uint256","indexed":false,"internalType":"uint256"}],"anonymous":false},{"type":"event","name":"Unpaused","inputs":[{"name":"account","type":"address","indexed":false,"internalType":"address"}],"anonymous":false},{"type":"error","name":"AccessControlBadConfirmation","inputs":[]},{"type":"error","name":"AccessControlUnauthorizedAccount","inputs":[{"name":"account","type":"address","internalType":"address"},{"name":"neededRole","type":"bytes32","internalType":"bytes32"}]},{"type":"error","name":"ClaimVaultNotConfigured","inputs":[]},{"type":"error","name":"DuplicatePlayerInput","inputs":[]},{"type":"error","name":"EnforcedPause","inputs":[]},{"type":"error","name":"ExpectedPause","inputs":[]},{"type":"error","name":"InvalidAmount","inputs":[]},{"type":"error","name":"InvalidArrayLength","inputs":[]},{"type":"error","name":"InvalidClaimVault","inputs":[]},{"type":"error","name":"InvalidPlayer","inputs":[]},{"type":"error","name":"ReentrancyGuardReentrantCall","inputs":[]},{"type":"error","name":"SeasonRewardsAlreadyAssigned","inputs":[]},{"type":"error","name":"UnauthorizedSeasonConfigurator","inputs":[]},{"type":"error","name":"UnauthorizedSeasonFeeSender","inputs":[]},{"type":"error","name":"ZeroAddress","inputs":[]}],"bytecode":{"object":"0x608060405234801562000010575f80fd5b506040516200289b3803806200289b833981810160405281019062000036919062000311565b805f73ffffffffffffffffffffffffffffffffffffffff168173ffffffffffffffffffffffffffffffffffffffff16036200009d576040517fd92e233d00000000000000000000000000000000000000000000000000000000815260040160405180910390fd5b620000b15f801b826200011560201b60201c565b50620000e47fb19546dff01e856fb3f010c267a7b1c60363cf8a4664e21cc89c26224620214e826200011560201b60201c565b5050600162000108620000fc6200021060201b60201c565b6200023960201b60201c565b5f01819055505062000341565b5f6200012883836200024260201b60201c565b620002065760015f808581526020019081526020015f205f015f8473ffffffffffffffffffffffffffffffffffffffff1673ffffffffffffffffffffffffffffffffffffffff1681526020019081526020015f205f6101000a81548160ff021916908315150217905550620001a2620002a560201b60201c565b73ffffffffffffffffffffffffffffffffffffffff168273ffffffffffffffffffffffffffffffffffffffff16847f2f8788117e7eff1d82e926ec794901d17c78024a50270940304540a733656f0d60405160405180910390a4600190506200020a565b5f90505b92915050565b5f7f9b779b17422d0df92223018b32b4d1fa46e071723d6817e2486d003becc55f005f1b905090565b5f819050919050565b5f805f8481526020019081526020015f205f015f8373ffffffffffffffffffffffffffffffffffffffff1673ffffffffffffffffffffffffffffffffffffffff1681526020019081526020015f205f9054906101000a900460ff16905092915050565b5f33905090565b5f80fd5b5f73ffffffffffffffffffffffffffffffffffffffff82169050919050565b5f620002db82620002b0565b9050919050565b620002ed81620002cf565b8114620002f8575f80fd5b50565b5f815190506200030b81620002e2565b92915050565b5f60208284031215620003295762000328620002ac565b5b5f6200033884828501620002fb565b91505092915050565b61254c806200034f5f395ff3fe6080604052600436106101c1575f3560e01c806395c0d657116100f6578063d547741f11610094578063e58378bb11610063578063e58378bb14610629578063eccc541e14610653578063f5d709a11461067b578063f93b6be5146106ba576101c1565b8063d547741f14610599578063d76276d4146105c1578063d97f3dcf146105e9578063dbf6248914610613576101c1565b8063a5f4642c116100d0578063a5f4642c146104ef578063a8dfd21314610517578063ab518e6e14610553578063acbd68101461057d576101c1565b806395c0d657146104615780639ae88dcf14610489578063a217fddf146104c5576101c1565b80635c975abb1161016357806389674f9f1161013d57806389674f9f146103955780638eebb0fd146103bf57806391d14854146103e9578063954487f214610425576101c1565b80635c975abb14610307578063746104fe146103315780637accb1221461036d576101c1565b806335a587361161019f57806335a587361461026557806336568abe1461028d578063448dccb2146102b55780634fb2c7ba146102dd576101c1565b806301ffc9a7146101c5578063248a9ca3146102015780632f2ff15d1461023d575b5f80fd5b3480156101d0575f80fd5b506101eb60048036038101906101e69190611d4f565b6106d0565b6040516101f89190611d94565b60405180910390f35b34801561020c575f80fd5b5061022760048036038101906102229190611de0565b610749565b6040516102349190611e1a565b60405180910390f35b348015610248575f80fd5b50610263600480360381019061025e9190611e8d565b610765565b005b348015610270575f80fd5b5061028b60048036038101906102869190611e8d565b610787565b005b348015610298575f80fd5b506102b360048036038101906102ae9190611e8d565b61081c565b005b3480156102c0575f80fd5b506102db60048036038101906102d69190611efe565b610897565b005b3480156102e8575f80fd5b506102f1610981565b6040516102fe9190611e1a565b60405180910390f35b348015610312575f80fd5b5061031b6109a5565b6040516103289190611d94565b60405180910390f35b34801561033c575f80fd5b5061035760048036038101906103529190611f3c565b6109ba565b6040516103649190611f89565b60405180910390f35b348015610378575f80fd5b50610393600480360381019061038e9190612058565b6109da565b005b3480156103a0575f80fd5b506103a9610ca8565b6040516103b69190611e1a565b60405180910390f35b3480156103ca575f80fd5b506103d3610ccc565b6040516103e09190611e1a565b60405180910390f35b3480156103f4575f80fd5b5061040f600480360381019061040a9190611e8d565b610cf0565b60405161041c9190611d94565b60405180910390f35b348015610430575f80fd5b5061044b600480360381019061044691906120e9565b610d53565b6040516104589190611f89565b60405180910390f35b34801561046c575f80fd5b5061048760048036038101906104829190611efe565b610d68565b005b348015610494575f80fd5b506104af60048036038101906104aa91906120e9565b610e57565b6040516104bc9190611f89565b60405180910390f35b3480156104d0575f80fd5b506104d9610e73565b6040516104e69190611e1a565b60405180910390f35b3480156104fa575f80fd5b506105156004803603810190610510919061213e565b610e79565b005b348015610522575f80fd5b5061053d6004803603810190610538919061217c565b610f4a565b60405161054a9190611d94565b60405180910390f35b34801561055e575f80fd5b50610567610f67565b60405161057491906121b6565b60405180910390f35b610597600480360381019061059291906120e9565b610f8c565b005b3480156105a4575f80fd5b506105bf60048036038101906105ba9190611e8d565b611129565b005b3480156105cc575f80fd5b506105e760048036038101906105e2919061217c565b61114b565b005b3480156105f4575f80fd5b506105fd611261565b60405161060a9190611e1a565b60405180910390f35b34801561061e575f80fd5b50610627611285565b005b348015610634575f80fd5b5061063d6112ba565b60405161064a9190611e1a565b60405180910390f35b34801561065e575f80fd5b5061067960048036038101906106749190611e8d565b6112de565b005b348015610686575f80fd5b506106a1600480360381019061069c91906120e9565b611373565b6040516106b194939291906121cf565b60405180910390f35b3480156106c5575f80fd5b506106ce6113b8565b005b5f7f7965db0b000000000000000000000000000000000000000000000000000000007bffffffffffffffffffffffffffffffffffffffffffffffffffffffff1916827bffffffffffffffffffffffffffffffffffffffffffffffffffffffff191614806107425750610741826113ed565b5b9050919050565b5f805f8381526020019081526020015f20600101549050919050565b61076e82610749565b61077781611456565b610781838361146a565b50505050565b7fb19546dff01e856fb3f010c267a7b1c60363cf8a4664e21cc89c26224620214e6107b181611456565b6107bb838361146a565b503373ffffffffffffffffffffffffffffffffffffffff168273ffffffffffffffffffffffffffffffffffffffff16847fb753ecc47a2f500309a6cf640700ac2f460fc47f20b4547adf42246adaa94c2160405160405180910390a4505050565b610824611553565b73ffffffffffffffffffffffffffffffffffffffff168173ffffffffffffffffffffffffffffffffffffffff1614610888576040517f6697b23200000000000000000000000000000000000000000000000000000000815260040160405180910390fd5b610892828261155a565b505050565b6108c17fb19546dff01e856fb3f010c267a7b1c60363cf8a4664e21cc89c26224620214e33610cf0565b1580156108f557506108f37f98fa57671cf1c7b6c196c1230a2fc2d27625561c0bad9106de2d1db003a57e8733610cf0565b155b1561092c576040517f9a1ffcea00000000000000000000000000000000000000000000000000000000815260040160405180910390fd5b8060035f8481526020019081526020015f2060010181905550817f1692a15d6e9423f0c4cc438fb9c81aeaca75bcfe50be8987ee9473f8ac63049b826040516109759190611f89565b60405180910390a25050565b7f98fa57671cf1c7b6c196c1230a2fc2d27625561c0bad9106de2d1db003a57e8781565b5f60015f9054906101000a900460ff16905090565b6004602052815f5260405f20602052805f5260405f205f91509150505481565b7f98fa57671cf1c7b6c196c1230a2fc2d27625561c0bad9106de2d1db003a57e87610a0481611456565b610a0c611643565b610a14611684565b828290508585905014610a53576040517f9d89020a00000000000000000000000000000000000000000000000000000000815260040160405180910390fd5b5f60035f8881526020019081526020015f209050806002015f9054906101000a900460ff1615610aaf576040517f512667fa00000000000000000000000000000000000000000000000000000000815260040160405180910390fd5b5f81600101549050610ac187876116a6565b5f825f015490505f610ad4878785611830565b90505f811480610ae357505f82145b15610b4d576001846002015f6101000a81548160ff021916908315150217905550897f6ab2982933dbbd96379813e618054dccd4291ee45c1b50fa5ba90188759b1e0d8484845f87604051610b3c959493929190612254565b60405180910390a250505050610c98565b5f73ffffffffffffffffffffffffffffffffffffffff1660065f9054906101000a900473ffffffffffffffffffffffffffffffffffffffff1673ffffffffffffffffffffffffffffffffffffffff1603610bd3576040517fc84fb4fd00000000000000000000000000000000000000000000000000000000815260040160405180910390fd5b5f60405180608001604052808c81526020018581526020018481526020018381525090505f610c05828c8c8c8c6118a0565b90505f8185610c1491906122d2565b905080875f01819055508060025f8f81526020019081526020015f20819055506001876002015f6101000a81548160ff0219169083151502179055508c7f6ab2982933dbbd96379813e618054dccd4291ee45c1b50fa5ba90188759b1e0d8787878686604051610c88959493929190612305565b60405180910390a2505050505050505b610ca0611af6565b505050505050565b7fe5f3d29fbf8cd4b379b5a8ec1437261892bf01e7d129556690f84cf7a11d2c4d81565b7f36dc7495d0ae0bc2a620bf292049e4d4e5f800043895b13c08a1977d3a3297f581565b5f805f8481526020019081526020015f205f015f8373ffffffffffffffffffffffffffffffffffffffff1673ffffffffffffffffffffffffffffffffffffffff1681526020019081526020015f205f9054906101000a900460ff16905092915050565b6002602052805f5260405f205f915090505481565b610d927fb19546dff01e856fb3f010c267a7b1c60363cf8a4664e21cc89c26224620214e33610cf0565b158015610dc65750610dc47f98fa57671cf1c7b6c196c1230a2fc2d27625561c0bad9106de2d1db003a57e8733610cf0565b155b15610dfd576040517f9a1ffcea00000000000000000000000000000000000000000000000000000000815260040160405180910390fd5b5f60035f8481526020019081526020015f209050818160010181905550827fe83ce807c2a5a003c08fb0d7f7fe10cae36f5b9ad13f85f1fa2422b6a7dfe20983604051610e4a9190611f89565b60405180910390a2505050565b5f60035f8381526020019081526020015f205f01549050919050565b5f801b81565b7fb19546dff01e856fb3f010c267a7b1c60363cf8a4664e21cc89c26224620214e610ea381611456565b8160055f8573ffffffffffffffffffffffffffffffffffffffff1673ffffffffffffffffffffffffffffffffffffffff1681526020019081526020015f205f6101000a81548160ff0219169083151502179055508273ffffffffffffffffffffffffffffffffffffffff167fa1c99702d007b66c4786852fcbbddeb0f0bd442865ff4392f0e08fa30635951783604051610f3d9190611d94565b60405180910390a2505050565b6005602052805f5260405f205f915054906101000a900460ff1681565b60065f9054906101000a900473ffffffffffffffffffffffffffffffffffffffff1681565b610f94611643565b5f3403610fcd576040517f2c5211c600000000000000000000000000000000000000000000000000000000815260040160405180910390fd5b60055f3373ffffffffffffffffffffffffffffffffffffffff1673ffffffffffffffffffffffffffffffffffffffff1681526020019081526020015f205f9054906101000a900460ff1615801561104b57506110497f082924f4e2f064ae6e08775a33c5bf0ed13092f3142e2c4280c29cce98ed69b733610cf0565b155b15611082576040517fca0db19000000000000000000000000000000000000000000000000000000000815260040160405180910390fd5b5f60035f8381526020019081526020015f20905034815f015f8282546110a89190612356565b925050819055503460025f8481526020019081526020015f205f8282546110cf9190612356565b925050819055503373ffffffffffffffffffffffffffffffffffffffff16827f8e1497828f623da98ae9038f0e0f44456640d94b8dcc70af24821ddd3adb61a73460405161111d9190611f89565b60405180910390a35050565b61113282610749565b61113b81611456565b611145838361155a565b50505050565b7fb19546dff01e856fb3f010c267a7b1c60363cf8a4664e21cc89c26224620214e61117581611456565b5f73ffffffffffffffffffffffffffffffffffffffff168273ffffffffffffffffffffffffffffffffffffffff16036111da576040517f6fec03bd00000000000000000000000000000000000000000000000000000000815260040160405180910390fd5b8160065f6101000a81548173ffffffffffffffffffffffffffffffffffffffff021916908373ffffffffffffffffffffffffffffffffffffffff1602179055508173ffffffffffffffffffffffffffffffffffffffff167fe8be4a3b4254e4bf5ece73e698ebf93c5d0e46b71dcb1375e8165b6884e10f3e60405160405180910390a25050565b7f082924f4e2f064ae6e08775a33c5bf0ed13092f3142e2c4280c29cce98ed69b781565b7fb19546dff01e856fb3f010c267a7b1c60363cf8a4664e21cc89c26224620214e6112af81611456565b6112b7611b10565b50565b7fb19546dff01e856fb3f010c267a7b1c60363cf8a4664e21cc89c26224620214e81565b7fb19546dff01e856fb3f010c267a7b1c60363cf8a4664e21cc89c26224620214e61130881611456565b611312838361155a565b503373ffffffffffffffffffffffffffffffffffffffff168273ffffffffffffffffffffffffffffffffffffffff16847f27f5a0ed9f37f001a3486a5f7ce66cb2e5e4083603248958917cb0c1285e056b60405160405180910390a4505050565b6003602052805f5260405f205f91509050805f015490806001015490806002015f9054906101000a900460ff16908060020160019054906101000a900460ff16905084565b7fb19546dff01e856fb3f010c267a7b1c60363cf8a4664e21cc89c26224620214e6113e281611456565b6113ea611b71565b50565b5f7f01ffc9a7000000000000000000000000000000000000000000000000000000007bffffffffffffffffffffffffffffffffffffffffffffffffffffffff1916827bffffffffffffffffffffffffffffffffffffffffffffffffffffffff1916149050919050565b61146781611462611553565b611bd2565b50565b5f6114758383610cf0565b6115495760015f808581526020019081526020015f205f015f8473ffffffffffffffffffffffffffffffffffffffff1673ffffffffffffffffffffffffffffffffffffffff1681526020019081526020015f205f6101000a81548160ff0219169083151502179055506114e6611553565b73ffffffffffffffffffffffffffffffffffffffff168273ffffffffffffffffffffffffffffffffffffffff16847f2f8788117e7eff1d82e926ec794901d17c78024a50270940304540a733656f0d60405160405180910390a46001905061154d565b5f90505b92915050565b5f33905090565b5f6115658383610cf0565b15611639575f805f8581526020019081526020015f205f015f8473ffffffffffffffffffffffffffffffffffffffff1673ffffffffffffffffffffffffffffffffffffffff1681526020019081526020015f205f6101000a81548160ff0219169083151502179055506115d6611553565b73ffffffffffffffffffffffffffffffffffffffff168273ffffffffffffffffffffffffffffffffffffffff16847ff6391f5c32d9c69d2a47ea670b442974b53935d1edc7fd64eb21e047a839171b60405160405180910390a46001905061163d565b5f90505b92915050565b61164b6109a5565b15611682576040517fd93c066500000000000000000000000000000000000000000000000000000000815260040160405180910390fd5b565b61168c611c23565b600261169e611699611c64565b611c8d565b5f0181905550565b5f8282905090505f5b8181101561182a575f73ffffffffffffffffffffffffffffffffffffffff168484838181106116e1576116e0612389565b5b90506020020160208101906116f6919061217c565b73ffffffffffffffffffffffffffffffffffffffff1603611743576040517f0e8a471c00000000000000000000000000000000000000000000000000000000815260040160405180910390fd5b5f6001826117519190612356565b90505b8281101561181c5784848281811061176f5761176e612389565b5b9050602002016020810190611784919061217c565b73ffffffffffffffffffffffffffffffffffffffff168585848181106117ad576117ac612389565b5b90506020020160208101906117c2919061217c565b73ffffffffffffffffffffffffffffffffffffffff160361180f576040517fe4ddec0500000000000000000000000000000000000000000000000000000000815260040160405180910390fd5b8080600101915050611754565b5080806001019150506116af565b50505050565b5f808484905090505f5b81811015611897578386868381811061185657611855612389565b5b905060200201351061188a5785858281811061187557611874612389565b5b90506020020135836118879190612356565b92505b808060010191505061183a565b50509392505050565b5f808585905090505f5b81811015611aeb575f8585838181106118c6576118c5612389565b5b90506020020135905088602001518110156118e15750611ade565b5f8960600151828b604001516118f791906123b6565b6119019190612424565b90508060045f8c5f015181526020019081526020015f205f8b8b8781811061192c5761192b612389565b5b9050602002016020810190611941919061217c565b73ffffffffffffffffffffffffffffffffffffffff1673ffffffffffffffffffffffffffffffffffffffff1681526020019081526020015f2081905550808561198a9190612356565b945088888481811061199f5761199e612389565b5b90506020020160208101906119b4919061217c565b73ffffffffffffffffffffffffffffffffffffffff168a5f01517f70893436492358250c072bc0ba2f2b640539041113eb21ee0eb73e129205b72384846040516119ff929190612454565b60405180910390a35f811115611adb5760065f9054906101000a900473ffffffffffffffffffffffffffffffffffffffff1673ffffffffffffffffffffffffffffffffffffffff1663e4d2c53c828b8b87818110611a6057611a5f612389565b5b9050602002016020810190611a75919061217c565b8d5f0151856040518563ffffffff1660e01b8152600401611a989392919061247b565b60206040518083038185885af1158015611ab4573d5f803e3d5ffd5b50505050506040513d601f19601f82011682018060405250810190611ad991906124c4565b505b50505b80806001019150506118aa565b505095945050505050565b6001611b08611b03611c64565b611c8d565b5f0181905550565b611b18611643565b6001805f6101000a81548160ff0219169083151502179055507f62e78cea01bee320cd4e420270b5ea74000d11b0c9f74754ebdbfc544b05a258611b5a611553565b604051611b6791906121b6565b60405180910390a1565b611b79611c96565b5f60015f6101000a81548160ff0219169083151502179055507f5db9ee0a495bf2e6ff9c91a7834c1ba4fdd244a5e8aa4e537bd38aeae4b073aa611bbb611553565b604051611bc891906121b6565b60405180910390a1565b611bdc8282610cf0565b611c1f5780826040517fe2517d3f000000000000000000000000000000000000000000000000000000008152600401611c169291906124ef565b60405180910390fd5b5050565b611c2b611cd6565b15611c62576040517f3ee5aeb500000000000000000000000000000000000000000000000000000000815260040160405180910390fd5b565b5f7f9b779b17422d0df92223018b32b4d1fa46e071723d6817e2486d003becc55f005f1b905090565b5f819050919050565b611c9e6109a5565b611cd4576040517f8dfc202b00000000000000000000000000000000000000000000000000000000815260040160405180910390fd5b565b5f6002611ce9611ce4611c64565b611c8d565b5f015414905090565b5f80fd5b5f80fd5b5f7fffffffff0000000000000000000000000000000000000000000000000000000082169050919050565b611d2e81611cfa565b8114611d38575f80fd5b50565b5f81359050611d4981611d25565b92915050565b5f60208284031215611d6457611d63611cf2565b5b5f611d7184828501611d3b565b91505092915050565b5f8115159050919050565b611d8e81611d7a565b82525050565b5f602082019050611da75f830184611d85565b92915050565b5f819050919050565b611dbf81611dad565b8114611dc9575f80fd5b50565b5f81359050611dda81611db6565b92915050565b5f60208284031215611df557611df4611cf2565b5b5f611e0284828501611dcc565b91505092915050565b611e1481611dad565b82525050565b5f602082019050611e2d5f830184611e0b565b92915050565b5f73ffffffffffffffffffffffffffffffffffffffff82169050919050565b5f611e5c82611e33565b9050919050565b611e6c81611e52565b8114611e76575f80fd5b50565b5f81359050611e8781611e63565b92915050565b5f8060408385031215611ea357611ea2611cf2565b5b5f611eb085828601611dcc565b9250506020611ec185828601611e79565b9150509250929050565b5f819050919050565b611edd81611ecb565b8114611ee7575f80fd5b50565b5f81359050611ef881611ed4565b92915050565b5f8060408385031215611f1457611f13611cf2565b5b5f611f2185828601611eea565b9250506020611f3285828601611eea565b9150509250929050565b5f8060408385031215611f5257611f51611cf2565b5b5f611f5f85828601611eea565b9250506020611f7085828601611e79565b9150509250929050565b611f8381611ecb565b82525050565b5f602082019050611f9c5f830184611f7a565b92915050565b5f80fd5b5f80fd5b5f80fd5b5f8083601f840112611fc357611fc2611fa2565b5b8235905067ffffffffffffffff811115611fe057611fdf611fa6565b5b602083019150836020820283011115611ffc57611ffb611faa565b5b9250929050565b5f8083601f84011261201857612017611fa2565b5b8235905067ffffffffffffffff81111561203557612034611fa6565b5b60208301915083602082028301111561205157612050611faa565b5b9250929050565b5f805f805f6060868803121561207157612070611cf2565b5b5f61207e88828901611eea565b955050602086013567ffffffffffffffff81111561209f5761209e611cf6565b5b6120ab88828901611fae565b9450945050604086013567ffffffffffffffff8111156120ce576120cd611cf6565b5b6120da88828901612003565b92509250509295509295909350565b5f602082840312156120fe576120fd611cf2565b5b5f61210b84828501611eea565b91505092915050565b61211d81611d7a565b8114612127575f80fd5b50565b5f8135905061213881612114565b92915050565b5f806040838503121561215457612153611cf2565b5b5f61216185828601611e79565b92505060206121728582860161212a565b9150509250929050565b5f6020828403121561219157612190611cf2565b5b5f61219e84828501611e79565b91505092915050565b6121b081611e52565b82525050565b5f6020820190506121c95f8301846121a7565b92915050565b5f6080820190506121e25f830187611f7a565b6121ef6020830186611f7a565b6121fc6040830185611d85565b6122096060830184611d85565b95945050505050565b5f819050919050565b5f819050919050565b5f61223e61223961223484612212565b61221b565b611ecb565b9050919050565b61224e81612224565b82525050565b5f60a0820190506122675f830188611f7a565b6122746020830187611f7a565b6122816040830186611f7a565b61228e6060830185612245565b61229b6080830184611f7a565b9695505050505050565b7f4e487b71000000000000000000000000000000000000000000000000000000005f52601160045260245ffd5b5f6122dc82611ecb565b91506122e783611ecb565b92508282039050818111156122ff576122fe6122a5565b5b92915050565b5f60a0820190506123185f830188611f7a565b6123256020830187611f7a565b6123326040830186611f7a565b61233f6060830185611f7a565b61234c6080830184611f7a565b9695505050505050565b5f61236082611ecb565b915061236b83611ecb565b9250828201905080821115612383576123826122a5565b5b92915050565b7f4e487b71000000000000000000000000000000000000000000000000000000005f52603260045260245ffd5b5f6123c082611ecb565b91506123cb83611ecb565b92508282026123d981611ecb565b915082820484148315176123f0576123ef6122a5565b5b5092915050565b7f4e487b71000000000000000000000000000000000000000000000000000000005f52601260045260245ffd5b5f61242e82611ecb565b915061243983611ecb565b925082612449576124486123f7565b5b828204905092915050565b5f6040820190506124675f830185611f7a565b6124746020830184611f7a565b9392505050565b5f60608201905061248e5f8301866121a7565b61249b6020830185611f7a565b6124a86040830184611f7a565b949350505050565b5f815190506124be81611db6565b92915050565b5f602082840312156124d9576124d8611cf2565b5b5f6124e6848285016124b0565b91505092915050565b5f6040820190506125025f8301856121a7565b61250f6020830184611e0b565b939250505056fea2646970667358221220f269c09618a14f456c7f585d6b7e1ed1b0105684e5096b2517e8039682a776b864736f6c63430008180033","linkReferences":{}},"methodIdentifiers":{"CLAIM_OPERATOR_ROLE()":"8eebb0fd","DEFAULT_ADMIN_ROLE()":"a217fddf","OWNER_ROLE()":"e58378bb","ROUND_OPERATOR_ROLE()":"d97f3dcf","SEASON_OPERATOR_ROLE()":"4fb2c7ba","SETTLEMENT_OPERATOR_ROLE()":"89674f9f","assignSeasonRewards(uint256,address[],uint256[])":"7accb122","assignedRewards(uint256,address)":"746104fe","authorizedRoundRooms(address)":"a8dfd213","claimVault()":"ab518e6e","configureSeason(uint256,uint256)":"95c0d657","getRoleAdmin(bytes32)":"248a9ca3","getSeasonBalance(uint256)":"9ae88dcf","grantProtocolRole(bytes32,address)":"35a58736","grantRole(bytes32,address)":"2f2ff15d","hasRole(bytes32,address)":"91d14854","pauseProtocol()":"dbf62489","paused()":"5c975abb","receiveSeasonFee(uint256)":"acbd6810","renounceRole(bytes32,address)":"36568abe","revokeProtocolRole(bytes32,address)":"eccc541e","revokeRole(bytes32,address)":"d547741f","seasonPoolBalance(uint256)":"954487f2","seasons(uint256)":"f5d709a1","setAuthorizedRoundRoom(address,bool)":"a5f4642c","setClaimVault(address)":"d76276d4","setQualificationThreshold(uint256,uint256)":"448dccb2","supportsInterface(bytes4)":"01ffc9a7","unpauseProtocol()":"f93b6be5"},"id":43}