{"abi":[{"type":"constructor","inputs":[{"name":"owner_","type":"address","internalType":"address"}],"stateMutability":"nonpayable"},{"type":"function","name":"CLAIM_OPERATOR_ROLE","inputs":[],"outputs":[{"name":"","type":"bytes32","internalType":"bytes32"}],"stateMutability":"view"},{"type":"function","name":"DEFAULT_ADMIN_ROLE","inputs":[],"outputs":[{"name":"","type":"bytes32","internalType":"bytes32"}],"stateMutability":"view"},{"type":"function","name":"OWNER_ROLE","inputs":[],"outputs":[{"name":"","type":"bytes32","internalType":"bytes32"}],"stateMutability":"view"},{"type":"function","name":"ROUND_OPERATOR_ROLE","inputs":[],"outputs":[{"name":"","type":"bytes32","internalType":"bytes32"}],"stateMutability":"view"},{"type":"function","name":"SEASON_OPERATOR_ROLE","inputs":[],"outputs":[{"name":"","type":"bytes32","internalType":"bytes32"}],"stateMutability":"view"},{"type":"function","name":"SETTLEMENT_OPERATOR_ROLE","inputs":[],"outputs":[{"name":"","type":"bytes32","internalType":"bytes32"}],"stateMutability":"view"},{"type":"function","name":"assignSeasonRewards","inputs":[{"name":"","type":"uint256","internalType":"uint256"}],"outputs":[],"stateMutability":"pure"},{"type":"function","name":"authorizedRoundRooms","inputs":[{"name":"room","type":"address","internalType":"address"}],"outputs":[{"name":"authorized","type":"bool","internalType":"bool"}],"stateMutability":"view"},{"type":"function","name":"getRoleAdmin","inputs":[{"name":"role","type":"bytes32","internalType":"bytes32"}],"outputs":[{"name":"","type":"bytes32","internalType":"bytes32"}],"stateMutability":"view"},{"type":"function","name":"getSeasonBalance","inputs":[{"name":"seasonId","type":"uint256","internalType":"uint256"}],"outputs":[{"name":"","type":"uint256","internalType":"uint256"}],"stateMutability":"view"},{"type":"function","name":"grantProtocolRole","inputs":[{"name":"role","type":"bytes32","internalType":"bytes32"},{"name":"account","type":"address","internalType":"address"}],"outputs":[],"stateMutability":"nonpayable"},{"type":"function","name":"grantRole","inputs":[{"name":"role","type":"bytes32","internalType":"bytes32"},{"name":"account","type":"address","internalType":"address"}],"outputs":[],"stateMutability":"nonpayable"},{"type":"function","name":"hasRole","inputs":[{"name":"role","type":"bytes32","internalType":"bytes32"},{"name":"account","type":"address","internalType":"address"}],"outputs":[{"name":"","type":"bool","internalType":"bool"}],"stateMutability":"view"},{"type":"function","name":"pauseProtocol","inputs":[],"outputs":[],"stateMutability":"nonpayable"},{"type":"function","name":"paused","inputs":[],"outputs":[{"name":"","type":"bool","internalType":"bool"}],"stateMutability":"view"},{"type":"function","name":"receiveSeasonFee","inputs":[{"name":"seasonId","type":"uint256","internalType":"uint256"}],"outputs":[],"stateMutability":"payable"},{"type":"function","name":"renounceRole","inputs":[{"name":"role","type":"bytes32","internalType":"bytes32"},{"name":"callerConfirmation","type":"address","internalType":"address"}],"outputs":[],"stateMutability":"nonpayable"},{"type":"function","name":"revokeProtocolRole","inputs":[{"name":"role","type":"bytes32","internalType":"bytes32"},{"name":"account","type":"address","internalType":"address"}],"outputs":[],"stateMutability":"nonpayable"},{"type":"function","name":"revokeRole","inputs":[{"name":"role","type":"bytes32","internalType":"bytes32"},{"name":"account","type":"address","internalType":"address"}],"outputs":[],"stateMutability":"nonpayable"},{"type":"function","name":"seasonPoolBalance","inputs":[{"name":"seasonId","type":"uint256","internalType":"uint256"}],"outputs":[{"name":"seasonPoolBalance","type":"uint256","internalType":"uint256"}],"stateMutability":"view"},{"type":"function","name":"setAuthorizedRoundRoom","inputs":[{"name":"roundRoom","type":"address","internalType":"address"},{"name":"authorized","type":"bool","internalType":"bool"}],"outputs":[],"stateMutability":"nonpayable"},{"type":"function","name":"supportsInterface","inputs":[{"name":"interfaceId","type":"bytes4","internalType":"bytes4"}],"outputs":[{"name":"","type":"bool","internalType":"bool"}],"stateMutability":"view"},{"type":"function","name":"unpauseProtocol","inputs":[],"outputs":[],"stateMutability":"nonpayable"},{"type":"event","name":"Paused","inputs":[{"name":"account","type":"address","indexed":false,"internalType":"address"}],"anonymous":false},{"type":"event","name":"ProtocolRoleGranted","inputs":[{"name":"role","type":"bytes32","indexed":true,"internalType":"bytes32"},{"name":"account","type":"address","indexed":true,"internalType":"address"},{"name":"sender","type":"address","indexed":true,"internalType":"address"}],"anonymous":false},{"type":"event","name":"ProtocolRoleRevoked","inputs":[{"name":"role","type":"bytes32","indexed":true,"internalType":"bytes32"},{"name":"account","type":"address","indexed":true,"internalType":"address"},{"name":"sender","type":"address","indexed":true,"internalType":"address"}],"anonymous":false},{"type":"event","name":"RoleAdminChanged","inputs":[{"name":"role","type":"bytes32","indexed":true,"internalType":"bytes32"},{"name":"previousAdminRole","type":"bytes32","indexed":true,"internalType":"bytes32"},{"name":"newAdminRole","type":"bytes32","indexed":true,"internalType":"bytes32"}],"anonymous":false},{"type":"event","name":"RoleGranted","inputs":[{"name":"role","type":"bytes32","indexed":true,"internalType":"bytes32"},{"name":"account","type":"address","indexed":true,"internalType":"address"},{"name":"sender","type":"address","indexed":true,"internalType":"address"}],"anonymous":false},{"type":"event","name":"RoleRevoked","inputs":[{"name":"role","type":"bytes32","indexed":true,"internalType":"bytes32"},{"name":"account","type":"address","indexed":true,"internalType":"address"},{"name":"sender","type":"address","indexed":true,"internalType":"address"}],"anonymous":false},{"type":"event","name":"RoundRoomAuthorizationUpdated","inputs":[{"name":"roundRoom","type":"address","indexed":true,"internalType":"address"},{"name":"authorized","type":"bool","indexed":false,"internalType":"bool"}],"anonymous":false},{"type":"event","name":"SeasonFunded","inputs":[{"name":"seasonId","type":"uint256","indexed":true,"internalType":"uint256"},{"name":"amount","type":"uint256","indexed":false,"internalType":"uint256"},{"name":"sender","type":"address","indexed":true,"internalType":"address"}],"anonymous":false},{"type":"event","name":"Unpaused","inputs":[{"name":"account","type":"address","indexed":false,"internalType":"address"}],"anonymous":false},{"type":"error","name":"AccessControlBadConfirmation","inputs":[]},{"type":"error","name":"AccessControlUnauthorizedAccount","inputs":[{"name":"account","type":"address","internalType":"address"},{"name":"neededRole","type":"bytes32","internalType":"bytes32"}]},{"type":"error","name":"EnforcedPause","inputs":[]},{"type":"error","name":"ExpectedPause","inputs":[]},{"type":"error","name":"InvalidAmount","inputs":[]},{"type":"error","name":"UnauthorizedSeasonFeeSender","inputs":[]},{"type":"error","name":"ZeroAddress","inputs":[]}],"bytecode":{"object":"0x608060405234801562000010575f80fd5b506040516200173c3803806200173c8339818101604052810190620000369190620002b7565b805f73ffffffffffffffffffffffffffffffffffffffff168173ffffffffffffffffffffffffffffffffffffffff16036200009d576040517fd92e233d00000000000000000000000000000000000000000000000000000000815260040160405180910390fd5b620000b15f801b82620000ed60201b60201c565b50620000e47fb19546dff01e856fb3f010c267a7b1c60363cf8a4664e21cc89c26224620214e82620000ed60201b60201c565b505050620002e7565b5f620001008383620001e860201b60201c565b620001de5760015f808581526020019081526020015f205f015f8473ffffffffffffffffffffffffffffffffffffffff1673ffffffffffffffffffffffffffffffffffffffff1681526020019081526020015f205f6101000a81548160ff0219169083151502179055506200017a6200024b60201b60201c565b73ffffffffffffffffffffffffffffffffffffffff168273ffffffffffffffffffffffffffffffffffffffff16847f2f8788117e7eff1d82e926ec794901d17c78024a50270940304540a733656f0d60405160405180910390a460019050620001e2565b5f90505b92915050565b5f805f8481526020019081526020015f205f015f8373ffffffffffffffffffffffffffffffffffffffff1673ffffffffffffffffffffffffffffffffffffffff1681526020019081526020015f205f9054906101000a900460ff16905092915050565b5f33905090565b5f80fd5b5f73ffffffffffffffffffffffffffffffffffffffff82169050919050565b5f620002818262000256565b9050919050565b620002938162000275565b81146200029e575f80fd5b50565b5f81519050620002b18162000288565b92915050565b5f60208284031215620002cf57620002ce62000252565b5b5f620002de84828501620002a1565b91505092915050565b61144780620002f55f395ff3fe60806040526004361061013f575f3560e01c8063954487f2116100b5578063d547741f1161006e578063d547741f14610461578063d97f3dcf14610489578063dbf62489146104b3578063e58378bb146104c9578063eccc541e146104f3578063f93b6be51461051b5761013f565b8063954487f21461033f5780639ae88dcf1461037b578063a217fddf146103b7578063a5f4642c146103e1578063a8dfd21314610409578063acbd6810146104455761013f565b8063474cb3fa11610107578063474cb3fa146102335780634fb2c7ba1461025b5780635c975abb1461028557806389674f9f146102af5780638eebb0fd146102d957806391d14854146103035761013f565b806301ffc9a714610143578063248a9ca31461017f5780632f2ff15d146101bb57806335a58736146101e357806336568abe1461020b575b5f80fd5b34801561014e575f80fd5b5061016960048036038101906101649190611055565b610531565b604051610176919061109a565b60405180910390f35b34801561018a575f80fd5b506101a560048036038101906101a091906110e6565b6105aa565b6040516101b29190611120565b60405180910390f35b3480156101c6575f80fd5b506101e160048036038101906101dc9190611193565b6105c6565b005b3480156101ee575f80fd5b5061020960048036038101906102049190611193565b6105e8565b005b348015610216575f80fd5b50610231600480360381019061022c9190611193565b61067d565b005b34801561023e575f80fd5b5061025960048036038101906102549190611204565b6106f8565b005b348015610266575f80fd5b5061026f610733565b60405161027c9190611120565b60405180910390f35b348015610290575f80fd5b50610299610757565b6040516102a6919061109a565b60405180910390f35b3480156102ba575f80fd5b506102c361076c565b6040516102d09190611120565b60405180910390f35b3480156102e4575f80fd5b506102ed610790565b6040516102fa9190611120565b60405180910390f35b34801561030e575f80fd5b5061032960048036038101906103249190611193565b6107b4565b604051610336919061109a565b60405180910390f35b34801561034a575f80fd5b5061036560048036038101906103609190611204565b610817565b604051610372919061123e565b60405180910390f35b348015610386575f80fd5b506103a1600480360381019061039c9190611204565b61082c565b6040516103ae919061123e565b60405180910390f35b3480156103c2575f80fd5b506103cb610846565b6040516103d89190611120565b60405180910390f35b3480156103ec575f80fd5b5061040760048036038101906104029190611281565b61084c565b005b348015610414575f80fd5b5061042f600480360381019061042a91906112bf565b61091d565b60405161043c919061109a565b60405180910390f35b61045f600480360381019061045a9190611204565b61093a565b005b34801561046c575f80fd5b5061048760048036038101906104829190611193565b610aa9565b005b348015610494575f80fd5b5061049d610acb565b6040516104aa9190611120565b60405180910390f35b3480156104be575f80fd5b506104c7610aef565b005b3480156104d4575f80fd5b506104dd610b24565b6040516104ea9190611120565b60405180910390f35b3480156104fe575f80fd5b5061051960048036038101906105149190611193565b610b48565b005b348015610526575f80fd5b5061052f610bdd565b005b5f7f7965db0b000000000000000000000000000000000000000000000000000000007bffffffffffffffffffffffffffffffffffffffffffffffffffffffff1916827bffffffffffffffffffffffffffffffffffffffffffffffffffffffff191614806105a357506105a282610c12565b5b9050919050565b5f805f8381526020019081526020015f20600101549050919050565b6105cf826105aa565b6105d881610c7b565b6105e28383610c8f565b50505050565b7fb19546dff01e856fb3f010c267a7b1c60363cf8a4664e21cc89c26224620214e61061281610c7b565b61061c8383610c8f565b503373ffffffffffffffffffffffffffffffffffffffff168273ffffffffffffffffffffffffffffffffffffffff16847fb753ecc47a2f500309a6cf640700ac2f460fc47f20b4547adf42246adaa94c2160405160405180910390a4505050565b610685610d78565b73ffffffffffffffffffffffffffffffffffffffff168173ffffffffffffffffffffffffffffffffffffffff16146106e9576040517f6697b23200000000000000000000000000000000000000000000000000000000815260040160405180910390fd5b6106f38282610d7f565b505050565b6040517f08c379a000000000000000000000000000000000000000000000000000000000815260040161072a90611344565b60405180910390fd5b7f98fa57671cf1c7b6c196c1230a2fc2d27625561c0bad9106de2d1db003a57e8781565b5f60015f9054906101000a900460ff16905090565b7fe5f3d29fbf8cd4b379b5a8ec1437261892bf01e7d129556690f84cf7a11d2c4d81565b7f36dc7495d0ae0bc2a620bf292049e4d4e5f800043895b13c08a1977d3a3297f581565b5f805f8481526020019081526020015f205f015f8373ffffffffffffffffffffffffffffffffffffffff1673ffffffffffffffffffffffffffffffffffffffff1681526020019081526020015f205f9054906101000a900460ff16905092915050565b6002602052805f5260405f205f915090505481565b5f60025f8381526020019081526020015f20549050919050565b5f801b81565b7fb19546dff01e856fb3f010c267a7b1c60363cf8a4664e21cc89c26224620214e61087681610c7b565b8160035f8573ffffffffffffffffffffffffffffffffffffffff1673ffffffffffffffffffffffffffffffffffffffff1681526020019081526020015f205f6101000a81548160ff0219169083151502179055508273ffffffffffffffffffffffffffffffffffffffff167fa1c99702d007b66c4786852fcbbddeb0f0bd442865ff4392f0e08fa30635951783604051610910919061109a565b60405180910390a2505050565b6003602052805f5260405f205f915054906101000a900460ff1681565b610942610e68565b5f340361097b576040517f2c5211c600000000000000000000000000000000000000000000000000000000815260040160405180910390fd5b60035f3373ffffffffffffffffffffffffffffffffffffffff1673ffffffffffffffffffffffffffffffffffffffff1681526020019081526020015f205f9054906101000a900460ff161580156109f957506109f77f082924f4e2f064ae6e08775a33c5bf0ed13092f3142e2c4280c29cce98ed69b7336107b4565b155b15610a30576040517fca0db19000000000000000000000000000000000000000000000000000000000815260040160405180910390fd5b3460025f8381526020019081526020015f205f828254610a50919061138f565b925050819055503373ffffffffffffffffffffffffffffffffffffffff16817f8e1497828f623da98ae9038f0e0f44456640d94b8dcc70af24821ddd3adb61a734604051610a9e919061123e565b60405180910390a350565b610ab2826105aa565b610abb81610c7b565b610ac58383610d7f565b50505050565b7f082924f4e2f064ae6e08775a33c5bf0ed13092f3142e2c4280c29cce98ed69b781565b7fb19546dff01e856fb3f010c267a7b1c60363cf8a4664e21cc89c26224620214e610b1981610c7b565b610b21610ea9565b50565b7fb19546dff01e856fb3f010c267a7b1c60363cf8a4664e21cc89c26224620214e81565b7fb19546dff01e856fb3f010c267a7b1c60363cf8a4664e21cc89c26224620214e610b7281610c7b565b610b7c8383610d7f565b503373ffffffffffffffffffffffffffffffffffffffff168273ffffffffffffffffffffffffffffffffffffffff16847f27f5a0ed9f37f001a3486a5f7ce66cb2e5e4083603248958917cb0c1285e056b60405160405180910390a4505050565b7fb19546dff01e856fb3f010c267a7b1c60363cf8a4664e21cc89c26224620214e610c0781610c7b565b610c0f610f0a565b50565b5f7f01ffc9a7000000000000000000000000000000000000000000000000000000007bffffffffffffffffffffffffffffffffffffffffffffffffffffffff1916827bffffffffffffffffffffffffffffffffffffffffffffffffffffffff1916149050919050565b610c8c81610c87610d78565b610f6b565b50565b5f610c9a83836107b4565b610d6e5760015f808581526020019081526020015f205f015f8473ffffffffffffffffffffffffffffffffffffffff1673ffffffffffffffffffffffffffffffffffffffff1681526020019081526020015f205f6101000a81548160ff021916908315150217905550610d0b610d78565b73ffffffffffffffffffffffffffffffffffffffff168273ffffffffffffffffffffffffffffffffffffffff16847f2f8788117e7eff1d82e926ec794901d17c78024a50270940304540a733656f0d60405160405180910390a460019050610d72565b5f90505b92915050565b5f33905090565b5f610d8a83836107b4565b15610e5e575f805f8581526020019081526020015f205f015f8473ffffffffffffffffffffffffffffffffffffffff1673ffffffffffffffffffffffffffffffffffffffff1681526020019081526020015f205f6101000a81548160ff021916908315150217905550610dfb610d78565b73ffffffffffffffffffffffffffffffffffffffff168273ffffffffffffffffffffffffffffffffffffffff16847ff6391f5c32d9c69d2a47ea670b442974b53935d1edc7fd64eb21e047a839171b60405160405180910390a460019050610e62565b5f90505b92915050565b610e70610757565b15610ea7576040517fd93c066500000000000000000000000000000000000000000000000000000000815260040160405180910390fd5b565b610eb1610e68565b6001805f6101000a81548160ff0219169083151502179055507f62e78cea01bee320cd4e420270b5ea74000d11b0c9f74754ebdbfc544b05a258610ef3610d78565b604051610f0091906113d1565b60405180910390a1565b610f12610fbc565b5f60015f6101000a81548160ff0219169083151502179055507f5db9ee0a495bf2e6ff9c91a7834c1ba4fdd244a5e8aa4e537bd38aeae4b073aa610f54610d78565b604051610f6191906113d1565b60405180910390a1565b610f7582826107b4565b610fb85780826040517fe2517d3f000000000000000000000000000000000000000000000000000000008152600401610faf9291906113ea565b60405180910390fd5b5050565b610fc4610757565b610ffa576040517f8dfc202b00000000000000000000000000000000000000000000000000000000815260040160405180910390fd5b565b5f80fd5b5f7fffffffff0000000000000000000000000000000000000000000000000000000082169050919050565b61103481611000565b811461103e575f80fd5b50565b5f8135905061104f8161102b565b92915050565b5f6020828403121561106a57611069610ffc565b5b5f61107784828501611041565b91505092915050565b5f8115159050919050565b61109481611080565b82525050565b5f6020820190506110ad5f83018461108b565b92915050565b5f819050919050565b6110c5816110b3565b81146110cf575f80fd5b50565b5f813590506110e0816110bc565b92915050565b5f602082840312156110fb576110fa610ffc565b5b5f611108848285016110d2565b91505092915050565b61111a816110b3565b82525050565b5f6020820190506111335f830184611111565b92915050565b5f73ffffffffffffffffffffffffffffffffffffffff82169050919050565b5f61116282611139565b9050919050565b61117281611158565b811461117c575f80fd5b50565b5f8135905061118d81611169565b92915050565b5f80604083850312156111a9576111a8610ffc565b5b5f6111b6858286016110d2565b92505060206111c78582860161117f565b9150509250929050565b5f819050919050565b6111e3816111d1565b81146111ed575f80fd5b50565b5f813590506111fe816111da565b92915050565b5f6020828403121561121957611218610ffc565b5b5f611226848285016111f0565b91505092915050565b611238816111d1565b82525050565b5f6020820190506112515f83018461122f565b92915050565b61126081611080565b811461126a575f80fd5b50565b5f8135905061127b81611257565b92915050565b5f806040838503121561129757611296610ffc565b5b5f6112a48582860161117f565b92505060206112b58582860161126d565b9150509250929050565b5f602082840312156112d4576112d3610ffc565b5b5f6112e18482850161117f565b91505092915050565b5f82825260208201905092915050565b7f534541534f4e5f5245574152445f4e4f545f494d504c454d454e5445440000005f82015250565b5f61132e601d836112ea565b9150611339826112fa565b602082019050919050565b5f6020820190508181035f83015261135b81611322565b9050919050565b7f4e487b71000000000000000000000000000000000000000000000000000000005f52601160045260245ffd5b5f611399826111d1565b91506113a4836111d1565b92508282019050808211156113bc576113bb611362565b5b92915050565b6113cb81611158565b82525050565b5f6020820190506113e45f8301846113c2565b92915050565b5f6040820190506113fd5f8301856113c2565b61140a6020830184611111565b939250505056fea2646970667358221220f58108e3c84600c97a5767a509f46af1af36446cd2d44092e79e62bb9cc6e0c564736f6c63430008180033","linkReferences":{}},"methodIdentifiers":{"CLAIM_OPERATOR_ROLE()":"8eebb0fd","DEFAULT_ADMIN_ROLE()":"a217fddf","OWNER_ROLE()":"e58378bb","ROUND_OPERATOR_ROLE()":"d97f3dcf","SEASON_OPERATOR_ROLE()":"4fb2c7ba","SETTLEMENT_OPERATOR_ROLE()":"89674f9f","assignSeasonRewards(uint256)":"474cb3fa","authorizedRoundRooms(address)":"a8dfd213","getRoleAdmin(bytes32)":"248a9ca3","getSeasonBalance(uint256)":"9ae88dcf","grantProtocolRole(bytes32,address)":"35a58736","grantRole(bytes32,address)":"2f2ff15d","hasRole(bytes32,address)":"91d14854","pauseProtocol()":"dbf62489","paused()":"5c975abb","receiveSeasonFee(uint256)":"acbd6810","renounceRole(bytes32,address)":"36568abe","revokeProtocolRole(bytes32,address)":"eccc541e","revokeRole(bytes32,address)":"d547741f","seasonPoolBalance(uint256)":"954487f2","setAuthorizedRoundRoom(address,bool)":"a5f4642c","supportsInterface(bytes4)":"01ffc9a7","unpauseProtocol()":"f93b6be5"},"id":43}